:100000000C9446000C9458000C9458000C94580022
:100010000C9458000C9458000C9458000C94580000
:100020000C9458000C9458000C9458000C945800F0
:100030000C9458000C9458000C9458000C945800E0
:100040000C9458000C9458000C946D010C945800BA
:100050000C9458000C9458000C9458000C945800C0
:100060000C9458000C9458000C9458000C945800B0
:100070000C9458000C9458000C9458000C945800A0
:100080000C9458000C9458000C94580011241FBE76
:10009000CFEFD0E1DEBFCDBF29E0A0E0B1E001C0ED
:1000A0001D92A531B207E1F70E9414030C94430896
:1000B0000C9400008BBB95BB95FD06C0809162003F
:1000C0008061809362000895809162008F7E8093AA
:1000D00062000895CF93DF93C2E6D0E028812E7F9F
:1000E00028832881226028832FEF22BB11BA0E9427
:1000F0005A0088818F7D888382E08A95F1F700C05D
:1001000080B3988190629883988191609883DF9101
:10011000CF910895CF93DF93C2E6D0E028812E7F60
:1001200028832881226028832FEF22BB11BA2881DF
:10013000206828830E945A00888181608883888192
:100140008D7F8883C39AC49882E08A95F1F700C0B6
:1001500080B3988192609883C49ADF91CF9108957B
:100160001F93CF93DF93162FBC9ABB9AC49AC39A5E
:10017000C2E6D0E028812260288328812068288375
:100180000E945A009FEF91BB12BB888181608883D7
:1001900088818D7F888382E08A95F1F700C0C398BB
:1001A00082E08A95F1F700C0C39A1BBA15BA88811C
:1001B0008061888388818260888392BB11BADF91D5
:1001C000CF911F910895CF93DF93EC01809162004E
:1001D0008E7F8093620080916200826080936200D3
:1001E0008FEF81BB809162008F778093620062BB4A
:1001F000CE010E945A0082E08A95F1F700C08091FA
:10020000620081608093620080916200D7FD2CC003
:1002100082608093620082E08A95F1F700C080914D
:1002200062008E7F80936200809162008260809382
:10023000620082E08A95F1F700C0809162008068D8
:10024000809362008FEF82BB11BA1BBA15BA8091FE
:10025000620080618093620080916200816080937F
:100260006200DF91CF9108958D7F80936200D3CF9C
:10027000CF93DF93EC01809162008E7F80936200C8
:10028000809162008260809362008FEF82BB11BA1E
:1002900080916200806880936200CE010E945A00C3
:1002A0008091620081608093620080916200D7FD3E
:1002B00010C082608093620082E08A95F1F700C0EE
:1002C00080B390916200926090936200DF91CF9131
:1002D00008958D7F80936200EFCF1F920F920FB62B
:1002E0000F9211242F933F934F935F936F937F93BC
:1002F0008F939F93AF93BF93EF93FF935F9B05C043
:100300008CB10E9478025F99FBCFFF91EF91BF9172
:10031000AF919F918F917F916F915F914F913F919D
:100320002F910F900FBE0F901F901895CF93DF93D2
:1003300064E070E082E10E943902C69A1BBA15BAE5
:10034000C2E6D0E088818061888382E08A95F1F7F7
:1003500000C081B182FB882780F90E9461021BBA2C
:1003600084E085BB88818061888382E08A95F1F78B
:1003700000C081B182FB882780F90E9461021BBA0C
:1003800088E085BB88818061888382E08A95F1F767
:1003900000C081B182FB882780F90E9461021BBAEC
:1003A0008CE085BB88818061888382E08A95F1F743
:1003B00000C081B182FB882780F90E9461021BBACC
:1003C00015BA888180618883DF91CF91089581E09B
:1003D00089B91092900088E98AB9E5E9F0E0808156
:1003E0008660808308955D9BFECF8CB90895982F19
:1003F00092959F709A3070F4905D8F708A3040F4BF
:10040000805D5D9BFECF9CB95D9BFECF8CB908954E
:10041000895CF7CF995CF1CFFC019081992339F089
:1004200031965D9BFECF9CB991919111FACF0895C1
:10043000411551056105710551F0FC01480F591F27
:1004400081915D9BFECF8CB9E417F507C9F708953C
:1004500090910801382F28E05CE8492F43279695B2
:1004600040FD952736952150C1F7909308010C94D3
:10047000F3011F93CF93DF93182FEB011092080124
:1004800086E40E942802812F0E9428028C2F0E945D
:1004900028028D2F0E942802D0930701C0930601E5
:1004A0001092050110920401CD2B21F0DF91CF9124
:1004B0001F91089580910801DF91CF911F910C94B5
:1004C000F3010E9428028091040190910501019698
:1004D000909305018093040120910601309107015A
:1004E0008217930709F00895809108010C94F30195
:1004F00090910001992319F0863409F00895109223
:10050000000160910201709103016115710559F1BB
:1005100090910101382F28E05CE8432F49279695F8
:1005200040FD952736952150C1F790930101613028
:10053000710509F447C0DCF062307105E9F1633000
:10054000710539F52091090130910A01A901582B53
:1005500050930A01409309016F5F7F4F709303012D
:1005600060930201089510920B0190E0D3CF6115C2
:10057000710579F4863481F381E08093000160E0B5
:1005800070E082E00E9439026091020170910301E3
:10059000E3CF9B0124503109283058E0350738F566
:1005A0004091090150910A012417350770F4F901AF
:1005B000E35FFE4F8083D0CF90E090930A01809359
:1005C0000901CACF80930C01C7CF40910901509116
:1005D0000A012417350709F0BFCF81E0911113C03C
:1005E00080930B0110920301109202010895109262
:1005F00003011092020181E08093000160E070E04D
:1006000084E00C9439028093000160E070E083E0A4
:100610000E943902E7CF109203011092020110925A
:100620000B01109200010895CF93DF9300D000D00A
:10063000CDB7DEB778940E94E70187B3806C87BBA3
:1006400087EB809361008FEF8093620012981A9A73
:1006500082BB11BA1BBA15BA909162009061909357
:1006600062008ABB84BBBC98C498C798C6980E9495
:100670000B0360E070E080E00E94390277247394FD
:100680000EE6C02ED12C84E1482E512C66246A94AB
:100690008FB589628FBD21E02EBD20E030E0E0E023
:1006A00041E050E060E070E080910B01811135C0C5
:1006B0008FB589628FBD7EBC403187E258076105E6
:1006C000710508F451C0E11154C0C90101968E367C
:1006D00091050CF456C0E1E09C012456310939BD66
:1006E00028BD9C01C601821B930B853191050CF03E
:1006F0005AC08B30910524F0A201481B590BCA0146
:10070000880F991F909379008093780040E050E023
:10071000BA0180910B01882359F210920B011092BB
:1007200079001092780019BC18BC1FBC55E05EBD62
:1007300080910C01833109F4BCC2C8F1853209F4FF
:10074000DAC208F457C0873209F43AC408F42DC35A
:10075000883209F4E1C38E3F09F09ACFF89414BEB1
:10076000E0E0F8EF099594CF4F5F5F4F6F4F7F4FF9
:100770009BCF2150310989F4E0E040E050E0BA011C
:1007800093CF8436910524F02356310939BD28BD15
:100790009C0140E050E0BA0187CF243631050CF4CB
:1007A000A1CFC90199CF40E050E0BA017DCF893097
:1007B00009F4F6C008F064C0863009F452C18730ED
:1007C00009F41BC1853009F063CF65E070E080E07B
:1007D0000E94390282E00E94610280E00E94610270
:1007E00088E00E94610280E00E94610288E00E942D
:1007F00061024ECF833209F410C208F038C1823250
:1008000009F046CF00910D0180910E0110E0182BE8
:1008100030910F01398380911001432F50E0582B04
:100820005A834983C69AC49AC39ABC9ABB9A69816F
:100830007A8188E00E94390289819A81892B71F03E
:10084000C8010E948A000E946102E981FA81319701
:10085000FA83E9830F5F1F4FEF2B91F71BBA15BA8D
:10086000809162008061809362008091620082606A
:1008700080936200C49AC39ABC98C498C69808CF63
:100880008D30C9F18131A1F18B3009F001CF009198
:100890000D0180910E0110E0182B30910F0139836A
:1008A00080911001432F50E0582B5A834983C69AF8
:1008B00069817A818CE00E94390289819A81892B31
:1008C00071F0C8010E946A000E946102E981FA8108
:1008D0003197FA83E9830F5F1F4FEF2B91F71BBA14
:1008E00015BA80916200806180936200C698D0CE74
:1008F0000E949601CDCEE0900D0180910E01F12C69
:10090000F82A50910F01598380911001E52FF0E0F2
:10091000F82BFA83E983C79AEF2BD9F101E111E0B3
:10092000F80191918F01809162008E7F8093620027
:100930008091620082608093620061BA92BBC701BD
:100940000E945A00809162008B7F80936200F2E0E7
:10095000FA95F1F700C08091620084608093620094
:1009600062BA11BA1BBA15BA809162008061809395
:100970006200809162008160809362002FEFE21A32
:10098000F20A49815A81415051095A834983452BC2
:1009900039F6C79860E070E08EE00E94390278CEA8
:1009A000E0900D0180910E01F12CF82A30910F0199
:1009B000398380911001432F50E0582B5A8349838B
:1009C000C79A452B99F001E111E0F80161918F017F
:1009D000C7010E94E300FFEFEF1AFF0A29813A8165
:1009E000215031093A832983232B79F7C79860E096
:1009F00070E08AE00E9439024BCE00910D01809197
:100A00000E0110E0182B80910F0189838091100155
:100A1000F981EF2FF0E0F82BFA83E983C69A698118
:100A20007A8188E00E94390229813A81232B09F4D6
:100A300056CFC8010E9438010E94610249815A8143
:100A4000415051095A8349830F5F1F4F452B89F746
:100A50001BBA15BA80916200806180936200C698CB
:100A600017CE60E070E081E00E94390211CE209143
:100A70000D01298380910E01422F50E0582B5A839B
:100A8000498300910F018091100110E0182BC79A43
:100A90000115110509F4B3C0E1E1AE2EE1E0BE2E6F
:100AA00029813A81207E4501F501E980FA80312CC7
:100AB00006C0C701807E2817390709F045C081911B
:100AC0008F3F09F033948FEFE81AF80A01501109AB
:100AD0005F0179F7332009F492C060EF80E090E085
:100AE0000E94B0006AEA8AEA9AE00E94B00065E5D6
:100AF00085E595E00E94B00065E280E090E00E940C
:100B0000B0003A94632D80E090E00E94B000F401C0
:100B100061914F016F3F89F089819A810E94B000F5
:100B200089819A8101963320A1F09A8389833A942E
:100B3000F40161914F016F3F79F729813A812F5F6D
:100B40003F4F3A832983E3CF3110C7CFFA82E9823E
:100B5000A7CF69E280E090E00E94B0001DBC1CBC01
:100B600029813A8130683C832B83A401415051098B
:100B70005A8349838CB59DB584389E4108F046C0A0
:100B80008B819C810E948A00882E8B819C810E948F
:100B90008A00982E8B819C810E948A00382E882D95
:100BA000892586FF18C0892D832586FF14C081FC06
:100BB00060C285FEDFCF63E070E08AE20E94390206
:100BC000882D0E946102892D0E946102832D0E945E
:100BD0006102C7985DCD8B819C810E948A00982E0E
:100BE0008B819C810E948A009812C4CFE981FA818E
:100BF00080819812BFCF0115110509F0A7CF60E0E1
:100C000070E08AE00E943902C79842CD60E070E04F
:100C10008AE20E943902C7983BCDC79A60EF80E014
:100C200090E00E94B0006AEA8AEA9AE00E94B0006E
:100C300065E585E595E00E94B00060E88AEA9AE003
:100C40000E94B0006AEA8AEA9AE00E94B00065E574
:100C500085E595E00E94B00060E380E090E00E94AE
:100C6000B0001DBC1CBC8CB59DB58D389B45D0F427
:100C700080E090E80E948A0089838CB59DB58D380C
:100C80009B4580F480E090E80E948A008B83598124
:100C90005827547409F4DFC189838CB59DB58D380C
:100CA0009B4580F360E070E08CE20E943902C798B7
:100CB000EFCCC79AC69A809162008E7F80936200C3
:100CC00080916200826080936200FFEF20E732E053
:100CD000F15020403040E1F700C0000080916200F8
:100CE000816080936200C798C69860E070E084E1FC
:100CF0000E943902CDCCC79A60EF80E090E80E9454
:100D0000E3006AEA8AEA9AE80E94E30065E585E57D
:100D100095E80E94E30060E88AEA9AE80E94E3000E
:100D20006AEA8AEA9AE80E94E30065E585E595E8C3
:100D30000E94E30060E380E090E80E94E3001DBCB5
:100D40001CBC8CB59DB58D389B4508F0ABCF80E0C1
:100D500090E80E94380189838CB59DB58D389B45FC
:100D600008F0A0CF80E090E80E9438012981821726
:100D700071F089838CB59DB58D389B4508F092CF75
:100D800080E090E80E94380129818213F2CF4981E6
:100D90004F3F09F434CF61E070E08BE20E943902EA
:100DA00089810E946102C79873CC80900D01809167
:100DB0000E01912C982A50910F01598380911001B6
:100DC000E52FF0E0F82BFC83EB83C79AEF2B09F4B7
:100DD0009CC071E1A72E71E0B72E9401207E150111
:100DE000F5018401F12C06C0C801807E281739075F
:100DF00009F04AC081918F3F09F0F3940F5F1F4FB4
:100E00004B815C81415051095C834B835F01452BD1
:100E100059F7FF2009F479C060EF80E090E80E9464
:100E2000E3006AEA8AEA9AE80E94E30065E585E55C
:100E300095E80E94E30065E280E090E80E94E3000C
:100E4000FA94F9826F2D80E090E80E94E300F101AE
:100E500061911F016F3FA1F074016894F7F8C70119
:100E60000E94E300FFEF8F1A9F0A2981222381F05D
:100E7000598151505983F10161911F016F3F61F711
:100E80003FEF831A930AE3CFF110C6CF4801A5CFF5
:100E900069E280E090E80E94E3001DBC1CBCA10157
:100EA000415051095A8349838CB59DB584389E4180
:100EB00008F0ACCEC7010E943801882EC7010E94FD
:100EC0003801982EC7010E943801382E882D8925B7
:100ED00086FF09C0892D832586FF05C081FCC9C016
:100EE00085FEE2CF68CEC7010E943801982EC70167
:100EF0000E9438019812D8CFE981FA818081981236
:100F0000D3CF2B813C81232B09F660E070E08AE08F
:100F10000E943902C798BCCBE0900D0180910E0170
:100F2000F12CF82A00910F018091100110E0182B8C
:100F3000C69A0115110509F4A3C01A821982C701C6
:100F40000E946A0029813A8128273A83298388E010
:100F500090E00CC049815A8156954795E1E04E27B3
:100F6000E0EA5E275A834983019759F0398130FDC1
:100F7000F1CF29813A81369527953A8329830197C4
:100F8000A9F7015011093FEFE31AF30A0115110502
:100F9000B1F619814A8149831BBA15BA8091620062
:100FA00080618093620062E070E08CE00E94390210
:100FB000812F0E94610289810E946102C69868CBDC
:100FC000E0900D0180910E01F12CF82A00910F01A3
:100FD0008091100110E0182BC69A0115110509F433
:100FE0004CC01A821982C7010E943801E981FA8136
:100FF000E827FA83E98388E090E00CC029813A81F0
:101000003695279541E0242740EA34273A832983FF
:10101000019759F0F981F0FDF1CFE981FA81F69558
:10102000E795FA83E9830197A9F701501109FFEFCA
:10103000EF1AFF0A01151105B1F619812A812983DA
:101040001BBA15BA8091620080618093620062E0F1
:1010500070E088E0ABCFFB81FF3F09F4D0CD61E0C9
:1010600070E08BE20E9439028B810E946102C79876
:101070000FCB63E070E089E2A1CD198210E0E0CFF0
:0A108000198210E089CFF894FFCF29
:00000001FF
