:100000000C9446000C9458000C9458000C94580022
:100010000C9458000C9458000C9458000C94580000
:100020000C9458000C9458000C9458000C945800F0
:100030000C9458000C9458000C9458000C945800E0
:100040000C9458000C9458000C9485010C945800A2
:100050000C9458000C9458000C9458000C945800C0
:100060000C9458000C9458000C9458000C945800B0
:100070000C9458000C9458000C9458000C945800A0
:100080000C9458000C9458000C94580011241FBE76
:10009000CFEFD0E1DEBFCDBF25E0A0E0B1E001C0F1
:1000A0001D92A732B207E1F70E942C030C9462095B
:1000B0000C9400008BBB95BB95FD06C0809162003F
:1000C0008061809362000895809162008F7E8093AA
:1000D00062000895CF93DF932FEF22BB11BAC2E6DF
:1000E000D0E02881216028832881226028830E9413
:1000F0005A0088818F7D888382E08A95F1F700C05D
:1001000080B3988190629883DF91CF910895CF93C7
:10011000DF932FEF22BB11BAC2E6D0E0288120681E
:1001200028830E945A0088818160888388818D7F1E
:100130008883C39AC49882E08A95F1F700C080B39F
:10014000DF91CF9108951F93CF93DF93C2E6D0E064
:1001500028812E7F28832881226028831FEF11BBEE
:1001600062BB0E945A0088818B7F888382E08A95D7
:10017000F1F700C088818460888312BB11BA1BBA72
:1001800015BA888180618883888181608883DF9146
:10019000CF911F9108951F93CF93DF93162FC49A89
:1001A000C39AC2E6D0E02881226028832881206893
:1001B00028830E945A009FEF91BB12BB8881816007
:1001C000888388818D7F888382E08A95F1F700C0DB
:1001D000C39882E08A95F1F700C0C39A1BBA15BA9A
:1001E00088818061888388818260888392BB11BA0C
:1001F000DF91CF911F910895CF93DF93EC01809110
:1002000062008E7F809362008091620082608093A2
:1002100062008FEF81BB809162008F7780936200D4
:1002200062BBCE010E945A0082E08A95F1F700C0BD
:100230008091620081608093620080916200D7FDAE
:100240002CC082608093620082E08A95F1F700C042
:10025000809162008E7F8093620080916200826054
:100260008093620082E08A95F1F700C0809162007D
:100270008068809362008FEF82BB11BA1BBA15BAF7
:100280008091620080618093620080916200816051
:1002900080936200DF91CF9108958D7F80936200FB
:1002A000D3CFCF93DF93EC01809162008E7F809358
:1002B0006200809162008260809362008FEF82BB57
:1002C00011BA80916200806880936200CE010E9422
:1002D0005A0082E08A95F1F700C080916200816047
:1002E0008093620080916200D7FD0BC08260809392
:1002F000620082E08A95F1F700C080B3DF91CF9170
:1003000008958D7F80936200F4CF1F920F920FB6F5
:100310000F9211242F933F934F935F936F937F938B
:100320008F939F93AF93BF93EF93FF935F9B05C012
:100330008CB10E9490025F99FBCFFF91EF91BF912A
:10034000AF919F918F917F916F915F914F913F916D
:100350002F910F900FBE0F901F901895CF93DF93A2
:1003600064E070E082E10E945102C69A1BBA15BA9D
:10037000C2E6D0E088818061888382E08A95F1F7C7
:1003800000C081B182FB882780F90E9479021BBAE4
:1003900084E085BB88818061888382E08A95F1F75B
:1003A00000C081B182FB882780F90E9479021BBAC4
:1003B00088E085BB88818061888382E08A95F1F737
:1003C00000C081B182FB882780F90E9479021BBAA4
:1003D0008CE085BB88818061888382E08A95F1F713
:1003E00000C081B182FB882780F90E9479021BBA84
:1003F00015BA888180618883DF91CF91089581E06B
:1004000089B91092900088E98AB9E5E9F0E0808125
:100410008660808308955D9BFECF8CB90895982FE8
:1004200092959F709A3070F4905D8F708A3040F48E
:10043000805D5D9BFECF9CB95D9BFECF8CB908951E
:10044000895CF7CF995CF1CFFC019081992339F059
:1004500031965D9BFECF9CB991919111FACF089591
:10046000411551056105710551F0FC01480F591FF7
:1004700081915D9BFECF8CB9E417F507C9F708950C
:1004800090910801382F28E05CE8492F4327969582
:1004900040FD952736952150C1F7909308010C94A3
:1004A0000B021F93CF93DF93182FEB0110920801DB
:1004B00086E40E944002812F0E9440028C2F0E94FD
:1004C00040028D2F0E944002D0930701C093060185
:1004D0001092050110920401CD2B21F0DF91CF91F4
:1004E0001F91089580910801DF91CF911F910C9485
:1004F0000B020E9440028091040190910501019637
:100500009093050180930401209106013091070129
:100510008217930709F00895809108010C940B024B
:1005200090910001992319F0863409F008951092F2
:10053000000160910201709103016115710559F18B
:1005400090910101382F28E05CE8432F49279695C8
:1005500040FD952736952150C1F7909301016130F8
:10056000710509F447C0DCF062307105E9F16330D0
:10057000710539F52091090130910A01A901582B23
:1005800050930A01409309016F5F7F4F70930301FD
:1005900060930201089510920B0190E0D3CF611592
:1005A000710579F4863481F381E08093000160E085
:1005B00070E082E00E94510260910201709103019B
:1005C000E3CF9B01245031092A3154E0350738F537
:1005D0004091090150910A012417350770F4F9017F
:1005E000E35FFE4F8083D0CF90E090930A01809329
:1005F0000901CACF80930C01C7CF409109015091E6
:100600000A012417350709F0BFCF81E0911113C00B
:1006100080930B0110920301109202010895109231
:1006200003011092020181E08093000160E070E01C
:1006300084E00C9451028093000160E070E083E05C
:100640000E945102E7CF1092030110920201109212
:100650000B0110920001089578940E94FF0187B366
:10066000806C87BB87EB809361008FEF8093620083
:1006700012981A9A82BB11BA1BBA15BA90916200ED
:100680009061909362008ABB84BBBC98C498C79861
:10069000C6980E94230360E070E080E00E9451024F
:1006A000BEE6AB2EB12C8FB589628FBD8EB5816051
:1006B0008EBD20E030E0E0E041E050E060E070E03E
:1006C00080910B01811138C08FB589628FBD8EB5C5
:1006D00081608EBD403187E258076105710508F4DD
:1006E00061C0E11164C0C90101968E3691050CF418
:1006F00066C0E1E09C012456310939BD28BD9C014A
:10070000C501821B930B853191050CF06AC08B30BB
:1007100091052CF044E150E0481B590BCA01880FA9
:10072000991F909379008093780040E050E0BA01DF
:1007300080910B01882341F210920B0110927900F5
:100740001092780019BC18BC1FBC80910C01893133
:1007500009F4C2C408F049C08B3009F49EC408F4FF
:10076000B6C1813109F4F3C308F0EBC18D3009F44F
:100770002DC58F3009F097CF3091620031603093F2
:100780006200209162002E7F2093620080E890E05A
:100790002BBB3BBB0197E1F760E070E080E10E947A
:1007A000510281CF4F5F5F4F6F4F7F4F89CF2150F5
:1007B000310989F4E0E040E050E0BA0181CF8436AD
:1007C000910524F02356310939BD28BD9C0140E034
:1007D00050E0BA0175CF243631050CF491CFC90130
:1007E00089CF40E050E0BA016BCF843209F4B2C344
:1007F00008F408C1873209F497C208F096C185321F
:1008000009F419C3863209F04ECF80900D01809112
:100810000E01912C982A00910F018091100110E097
:10082000182BC79A80916200826080936200011544
:10083000110509F4C9C141E1C42E41E0D42E94014F
:10084000207E1601F601E401712C06C0CE01807EE7
:100850002817390709F040C081918F3F09F0739440
:100860002196015011096F0189F7772009F4ACC175
:1008700060EF80E090E80E94FC006AEA8AEA9AE869
:100880000E94FC0065E585E595E80E94FC0065E2B4
:1008900080E090E80E94FC007A94672D80E090E868
:1008A0000E94FC00F10161911F016F3F89F074010A
:1008B0006894F7F8C7010E94FC00FFEF8F1A9F0AA7
:1008C000772071F07A94F10161911F016F3F79F700
:1008D0002FEF821A920AE6CF7110CACF4E01AFCF26
:1008E00069E280E090E80E94FC002AE12A95F1F795
:1008F00000C030EA432E36E8532E66246394712CF0
:10090000912C41E0241A31080CC0FAE1FA95F1F774
:1009100000C021E0421A510861087108982E09F4BC
:100920006AC0C7010E945101909162009260909349
:1009300062008911EACFF10190819911E6CF01158A
:10094000110509F441C14E017ACF00910D0180914A
:100950000E0110E0182BE0900F0180911001F12C96
:10096000F82AC79A17FD9DC4E114F10409F4B3C134
:1009700081E1882E81E0982EF40171904F0160EFA3
:1009800080E090E00E94A3006AEA85E595E00E947D
:10099000A30065E58AEA92E00E94A30060EA85E58B
:1009A00095E00E94A300672DC8010E94A300E80102
:1009B000D068C12CD12C09C087EC90E00197F1F7E9
:1009C00000C000009FEFC91AD90ACE010E946A0038
:1009D000781609F463C1EAE0CE16D10469F71BBAB0
:1009E00015BA8091620080618093620080916200FC
:1009F0008E7F8093620080916200826080936200AB
:100A0000C79851CE8B3109F4A0CF08F4F3C08232DD
:100A100009F46AC2833209F046CEC79AC49AC39ACF
:100A2000BC9ABB9A8091620082608093620060EF02
:100A300080E090E00E94CB006AEA8AEA9AE00E9495
:100A4000CB0065E585E595E00E94CB0060E88AEA89
:100A50009AE00E94CB006AEA8AEA9AE00E94CB0000
:100A600065E585E595E00E94CB0060E380E090E0DD
:100A70000E94CB00C0E0D0E00BC0C83BFBE0DF072A
:100A800069F0EFECF7E03197F1F700C00000219634
:100A900080E090E80E9487008F3F79F71BBA15BA73
:100AA0008091620080618093620080916200826028
:100AB00080936200BC98C498C798C83BDB4009F497
:100AC000F2CD60E070E08AE00E945102ECCD863009
:100AD00009F48AC008F47FC0873009F47CC18930EA
:100AE00009F0E1CDE0900D0180910E01F12CF82A82
:100AF000C0910F0180911001D0E0D82BC79A2097A8
:100B000069F001E111E0F80161918F01C7010E94D4
:100B1000FC00FFEFEF1AFF0A2197A9F7C79860E0E2
:100B200070E08AE00E945102BECD883209F46DC3A4
:100B30008E3F09F0B8CDF89414BEE0E0F8EF0995C7
:100B4000B2CD833109F4CEC0883109F0ACCDC79A5B
:100B500060EF80E090E80E94FC006AEA8AEA9AE886
:100B60000E94FC0065E585E595E80E94FC0060E8D0
:100B70008AEA9AE80E94FC006AEA8AEA9AE80E94F5
:100B8000FC0065E585E595E80E94FC0060E18AEAE5
:100B90009AE80E94FC0006C08FEC97E00197F1F7FD
:100BA00000C0000080E090E80E9451018F3FA1F753
:100BB0001BBA15BA809162008061809362008091B7
:100BC0006200816080936200809162008260809305
:100BD0006200C798A4CF853009F065CD60E070E071
:100BE00080E00E9451025FCD60E070E081E00E94F1
:100BF000510259CDC79A60EF80E090E00E94A300B7
:100C00006AEA85E595E00E94A30065E58AEA92E03C
:100C10000E94A30060E885E595E00E94A3006AEACF
:100C200085E595E00E94A30065E58AEA92E00E94CE
:100C3000A30060E185E595E00E94A300C0E0D0E05C
:100C40000BC0C03197E2D90769F08FEC97E00197AC
:100C5000F1F700C00000219680E090E00E946A0059
:100C60008F3F79F71BBA15BA80916200806180933B
:100C700062008091620081608093620080916200D6
:100C8000826080936200C798C031D74209F40BCDCF
:100C900060E070E08EE00E94510205CD1BBA15BAEB
:100CA00080916200806180936200809162008E7FFB
:100CB0008093620080916200826080936200FAE01B
:100CC000CF16D10409F49CCE0F5F1F4F21E0E21A2A
:100CD000F10809F051CEC79860E070E08EE00E9404
:100CE0005102E1CCC79AC69A809162008E7F8093B0
:100CF0006200809162008260809362002FEF40E783
:100D000052E0215040405040E1F700C00000809187
:100D10006200816080936200C798C69860E070E0CE
:100D200084E10E945102BFCCC0910D0180910E015F
:100D3000D0E0D82B00910F018091100110E0182B0A
:100D4000C69ACE010E9451010115110509F4B4C2E1
:100D500080E090E0CBBBD5BBF2E0FA95F1F700C0A4
:100D600020B3822728E030E009C09695879541E0BE
:100D7000842740EA94272150310939F080FDF5CFCE
:100D80009695879521503109C9F70150110921968F
:100D900001151105F9F6D82FC92F1BBA15BA809184
:100DA0006200806180936200809162008160809324
:100DB00062008091620082608093620062E070E075
:100DC00088E00E9451028D2F0E9479028C2F0E9490
:100DD0007902C69868CC00910D0180910E0110E057
:100DE000182BC0910F0180911001D0E0D82BC69A2A
:100DF000BE0188E00E945102209751F0C8010E9474
:100E000051010E94790221970F5F1F4F2097B1F780
:100E10001BBA15BA80916200806180936200809154
:100E200062008160809362008091620082608093A2
:100E30006200C69838CCC79A60EF80E090E80E94C4
:100E4000FC006AEA8AEA9AE80E94FC0065E585E50A
:100E500095E80E94FC0060E88AEA9AE80E94FC009B
:100E60006AEA8AEA9AE80E94FC0065E585E595E869
:100E70000E94FC0060E380E090E80E94FC00C0E07B
:100E8000D0E010C0C83B9BE0D90791F08091620090
:100E90008260809362008FEC97E00197F1F700C0C9
:100EA0000000219680E090E80E9451018F3F51F7A9
:100EB0001BBA15BA809162008061809362008091B4
:100EC0006200816080936200809162008260809302
:100ED0006200C798C83BDB4009F4E5CB60E070E0F6
:100EE0008AE00E945102DFCB00910D0180910E013A
:100EF00010E0182BC0910F0180911001D0E0D82B89
:100F0000C69AC49AC39ABC9ABB9ABE0188E00E9452
:100F10005102209751F0C8010E9487000E94790277
:100F200021970F5F1F4F2097B1F71BBA15BA809119
:100F30006200806180936200809162008260809391
:100F40006200C49AC39ABC98C498C698ACCB0E945D
:100F5000AE01A9CBE0900D0180910E01F12CF82A91
:100F600000910F018091100110E0182BC79AC49ACC
:100F7000C39ABC9ABB9A809162008260809362009F
:100F80000115110509F480C061E1C62E61E0D62E7D
:100F90009701207E4601F601E701712C05C0CE01C4
:100FA000807E28173907C1F581918F3F09F073942E
:100FB0002196015011096F0191F7772009F464C05F
:100FC0006AEA8AEA9AE00E94CB0065E585E595E049
:100FD0000E94CB0065E280E090E00E94CB007A9412
:100FE000672D80E090E00E94CB00F40161914F01F9
:100FF0006F3F71F0C7010E94CB00C70101967720B7
:1010000079F07C017A94F40161914F016F3F91F77F
:10101000FFEFEF1AFF0AE9CF7110D2CF7E01B8CFF0
:1010200069E280E090E00E94CB00FAE1FA95F1F7E6
:1010300000C06894F7F850EA452E56E8552E66240D
:101040006394712C312C21E0821A91080CC0FAE1D2
:10105000FA95F1F700C021E0421A510861087108C1
:10106000382E09F420C1C7010E94870090916200C8
:101070009260909362008311EACFF4019081931102
:10108000E6CF0115110551F68091620082608093D0
:101090006200BC98C498C79842CD00910D01809120
:1010A0000E0110E0182BC0910F0180911001D0E0CB
:1010B000D82BC69ABE018CE00E945102209709F4F9
:1010C000A7CEC8010E946A000E94790221970F5F93
:1010D0001F4F2097B1F79CCEE0900D0180910E013B
:1010E000F12CF82A00910F018091100110E0182BCB
:1010F000C79A0115110509F411CD71E1872E71E030
:10110000972EF40161904F0160EF80E090E80E941B
:10111000FC006AEA85E595E80E94FC0065E58AEA3C
:1011200092E80E94FC0060EA85E595E80E94FC00D8
:10113000E701D068662DCE010E94FC00F5E8FA9523
:10114000F1F70000C12CD12C712C0CC025E82A9598
:10115000F1F700004FEFC41AD40A782E58ECC516E8
:10116000D10431F1CE010E94510190916200926050
:10117000909362008711EACF6710E8CF80916200F8
:101180008260809362001BBA15BA80916200806110
:10119000809362008AE0C816D1040CF031CC9FEF36
:1011A000E91AF90A0150110909F0ABCFC798B7CC79
:1011B000809162008260809362001BBA15BA8091B0
:1011C0006200806180936200C7986DCAE0900D0153
:1011D00080910E01F12CF82AC0910F01809110012D
:1011E000D0E0D82BC79A209709F475CD01E111E022
:1011F000F80161918F01C7010E94A300FFEFEF1A70
:10120000FF0A2197A9F7C79867CDE0900D0180915B
:101210000E01F12CF82A00910F018091100110E0CD
:10122000182BC69A0115110509F449C0C0E0D0E099
:10123000C7010E946A00C82788E090E04C2FD6952D
:10124000C79540FF04C051E0C52750EAD527019754
:10125000A9F7015011098FEFE81AF80A01151105D5
:1012600039F71C2FCD2F1BBA15BA8091620080610F
:10127000809362008091620081608093620080911F
:10128000620082608093620062E070E08CE00E9405
:101290005102812F0E9479028C2F0E947902C698F8
:1012A00002CA105861CB8091620082608093620014
:1012B000BC98C498C798F7C9C0E0D0E06ECDC0E034
:0812C00010E0D1CFF894FFCF3C
:00000001FF
