:100000000C9446000C9458000C9458000C94580022
:100010000C9458000C9458000C9458000C94580000
:100020000C9458000C9458000C9458000C945800F0
:100030000C9458000C9458000C9458000C945800E0
:100040000C9458000C9458000C94F1010C94580036
:100050000C9458000C9458000C9458000C945800C0
:100060000C9458000C9458000C9458000C945800B0
:100070000C9458000C9458000C9458000C945800A0
:100080000C9458000C9458000C94580011241FBE76
:10009000CFEFD0E1DEBFCDBF25E0A0E0B1E001C0F1
:1000A0001D92A732B207E1F70E94CE040C94BF1054
:1000B0000C940000C49AC39AE2E6F0E0808182606A
:1000C000808380818068808325E52BBB85E085BBAC
:1000D0008081806180839FEF91BB22BB80818160A2
:1000E000808380818D7F808382E08A95F1F700C0D4
:1000F000C39882E08A95F1F700C0C39A1BBA15BA7B
:1001000080818061808380818260808392BB11BA0C
:100110000895E2E6F0E090819E7F90839081926066
:1001200090832FEF21BB90819F77908382BB1BBA76
:1001300080E885BB80818061808382E08A95F1F7C9
:1001400000C080818160808380818D7F808382E098
:100150008A95F1F700C080818E7F808380818260E4
:10016000808382E08A95F1F700C080818068808377
:1001700022BB11BA1BBA15BA80818061808380814D
:10018000816080830895C49AC39AE2E6F0E090818A
:10019000926090839081906890831BBA15BA908189
:1001A000906190839FEF91BB82BB8081816080834F
:1001B00080818D7F808382E08A95F1F700C0C398AB
:1001C00082E08A95F1F700C0C39A1BBA15BA808104
:1001D0008061808380818260808392BB11BA0895A0
:1001E000C49AC39AE2E6F0E0908192609083908195
:1001F000906890839AEA9BBB9AE095BB908190614E
:1002000090839FEF91BB82BB8081816080838081DE
:100210008D7F808382E08A95F1F700C0C39882E0E9
:100220008A95F1F700C0C39A1BBA15BA8081806124
:10023000808380818260808392BB11BA0895E2E658
:10024000F0E090819E7F90839081926090832FEF69
:1002500021BB90819F77908382BB8AEA8BBB8AE81F
:1002600085BB80818061808382E08A95F1F700C040
:1002700080818160808380818D7F808382E08A9508
:10028000F1F700C080818E7F8083808182608083CF
:1002900082E08A95F1F700C080818068808322BB6C
:1002A00011BA1BBA15BA8081806180838081816018
:1002B00080830895E2E6F0E090819E7F90839081B4
:1002C000926090832FEF21BB90819F77908382BBB8
:1002D00085E58BBB85E885BB80818061808382E07A
:1002E0008A95F1F700C080818160808380818D7F55
:1002F000808382E08A95F1F700C080818E7F8083C1
:1003000080818260808382E08A95F1F700C08081DD
:100310008068808322BB11BA1BBA15BA80818061C4
:1003200080838081816080830895209162002E7F88
:1003300020936200209162002260209362002FEFE0
:1003400021BB209162002F772093620062BB8BBBA0
:1003500095BB2091620095FD3AC020612093620018
:1003600022E02A95F1F700C02091620021602093DD
:10037000620097FD30C080916200826080936200CD
:1003800082E08A95F1F700C0809162008E7F8093B1
:1003900062008091620082608093620022E02A9570
:1003A000F1F700C0809162008068809362008FEF57
:1003B00082BB11BA1BBA15BA80916200806180932A
:1003C00062008091620081608093620008952F7EB8
:1003D00020936200C5CF809162008D7F8093620080
:1003E000CFCF1F920F920FB60F9211242F933F93EE
:1003F0004F935F936F937F938F939F93AF93BF932D
:10040000EF93FF935F9B05C08CB10E94FC035F9943
:10041000FBCFFF91EF91BF91AF919F918F917F9112
:100420006F915F914F913F912F910F900FBE0F9061
:100430001F901895CF93DF9364E070E082E10E94F3
:10044000AC02C69A1BBA15BAC2E6D0E088818061B8
:10045000888382E08A95F1F700C081B182FB88270A
:1004600080F90E94A1031BBA84E085BB888180616A
:10047000888382E08A95F1F700C081B182FB8827EA
:1004800080F90E94A1031BBA88E085BB8881806146
:10049000888382E08A95F1F700C081B182FB8827CA
:1004A00080F90E94A1031BBA8CE085BB8881806122
:1004B000888382E08A95F1F700C081B182FB8827AA
:1004C00080F90E94A1031BBA15BA888180618883D4
:1004D000DF91CF91089581E089B91092900088E969
:1004E0008AB9E5E9F0E080818660808308955D9BAC
:1004F000FECF8CB90895982F92959F709A3070F422
:10050000905D8F708A3040F4805D5D9BFECF9CB91A
:100510005D9BFECF8CB90895895CF7CF995CF1CFD4
:10052000FC019081992339F031965D9BFECF9CB9F7
:1005300091919111FACF0895411551056105710509
:1005400051F0FC01480F591F81915D9BFECF8CB982
:10055000E417F507C9F708951F93CF93DF93182F7A
:10056000EB018BE98093080186E40E947702809179
:100570000801982F9695812780FF02C08CE8982764
:10058000812F8695292F2695982790FF02C09CE8F9
:1005900029278695922F9695282720FF02C02CE8C0
:1005A00092278695292F2695982790FF02C09CE8D0
:1005B00029278695922F9695282720FF02C02CE8A0
:1005C00092278695292F2695982790FF02C09CE8B0
:1005D00029278695922F9695282720FF02C02CE880
:1005E0009227292F269586959170981711F08CE8FF
:1005F000282720930801812F0E947702809108010B
:10060000982F96958C2780FF02C08CE898278C2F16
:100610008695292F2695982790FF02C09CE82927C8
:100620008695922F9695282720FF02C02CE89227C6
:100630008695292F2695982790FF02C09CE82927A8
:100640008695922F9695282720FF02C02CE89227A6
:100650008695292F2695982790FF02C09CE8292788
:100660008695922F9695282720FF02C02CE8922786
:10067000292F269586959170981711F08CE82827D8
:10068000209308018C2F0E94770280910801982FF7
:1006900096958D2780FF02C08CE898278D2F869530
:1006A000292F2695982790FF02C09CE82927869538
:1006B000922F9695282720FF02C02CE89227869536
:1006C000292F2695982790FF02C09CE82927869518
:1006D000922F9695282720FF02C02CE89227869516
:1006E000292F2695982790FF02C09CE829278695F8
:1006F000922F9695282720FF02C02CE89227292FB9
:10070000269586959170981711F08CE828272093EC
:1007100008018D2F0E947702D0930701C093060134
:100720001092050110920401CD2B21F0DF91CF91A1
:100730001F91089580910801DF91CF911F910C9432
:10074000770290910801292F2695982790FF02C0E3
:100750009CE82927982F9695322F3695292720FF38
:1007600002C02CE832279695232F2695392730FF93
:1007700002C03CE823279695322F3695292720FF83
:1007800002C02CE832279695232F2695392730FF73
:1007900002C03CE823279695322F3695292720FF63
:1007A00002C02CE832279695232F2695392730FF53
:1007B00002C03CE82327322F3695969521702917E1
:1007C00011F09CE83927309308010E94770280914C
:1007D0000401909105010196909305018093040115
:1007E00020910601309107018217930709F00895BF
:1007F000809108010C94770290910001992319F0DF
:10080000863409F008951092000120910201309180
:1008100003012115310509F460C090910101492FB0
:100820004695982790FF02C09CE84927982F9695F7
:10083000542F5695492740FF02C04CE854279695FF
:10084000452F4695592750FF02C05CE845279695ED
:10085000542F5695492740FF02C04CE854279695DF
:10086000452F4695592750FF02C05CE845279695CD
:10087000542F5695492740FF02C04CE854279695BF
:10088000452F4695592750FF02C05CE84527542F55
:10089000569596954170491711F09CE85927509349
:1008A00001012130310509F447C0DCF02230310567
:1008B000E9F12330310539F54091090150910A01E0
:1008C000BA01782B70930A01609309012F5F3F4FA3
:1008D0003093030120930201089510920B0190E0E0
:1008E0009ECF2115310579F4863481F381E0809320
:1008F000000160E070E082E00E94AC022091020101
:1009000030910301E3CFB901645071096A3194E079
:10091000790738F5E0910901F0910A016E177F0718
:1009200070F4FB01E35FFE4F8083D0CF90E09093A3
:100930000A0180930901CACF80930C01C7CF80912F
:10094000090190910A016817790709F0BFCF81E08A
:10095000511113C080930B011092030110920201F8
:100960000895109203011092020181E0809300012A
:1009700060E070E084E00C94AC028093000160E0E1
:1009800070E083E00E94AC02E7CF10920301109266
:10099000020110920B0110920001089578940E94B8
:1009A0006B0287B3806C87BB87EB809361008FEF0E
:1009B0008093620012981A9A82BB11BA1BBA15BAB8
:1009C000909162009061909362008ABB84BBBC9856
:1009D000C498C798C6980E94C50460E070E080E0A3
:1009E0000E94AC02DEE68D2E912C14E1212E312CDA
:1009F00077247A948FB589628FBD8EB581608EBD64
:100A000020E030E0E0E041E050E060E070E0809124
:100A10000B01811137C08FB589628FBD8EB58160A2
:100A20008EBD403187E258076105710508F463C047
:100A3000E11166C0C90101968E3691050CF468C0BB
:100A4000E1E09C012456310939BD28BD9C01C40157
:100A5000821B930B853191050CF06CC08B30910596
:100A600024F0E101C81BD90BCE01880F991F909388
:100A700079008093780040E050E0BA0180910B014A
:100A8000882349F210920B0110927900109278009D
:100A900019BC18BC1FBC80910C01893111F40C9455
:100AA000AE0E08F04BC08B3011F40C94630E08F4BA
:100AB00019C3813109F4D4C708F04FC38D3011F444
:100AC0000C94800F8F3009F095CF30916200316027
:100AD00030936200209162002E7F2093620080E8B4
:100AE00090E02BBB3BBB0197E1F760E070E080E159
:100AF0000E94AC027FCF4F5F5F4F6F4F7F4F87CF1A
:100B00002150310989F4E0E040E050E0BA017FCFA4
:100B10008436910524F02356310939BD28BD9C0146
:100B200040E050E0BA0173CF243631050CF48FCF8A
:100B3000C90187CF40E050E0BA0169CF843209F49F
:100B400093C708F45DC2873209F496C508F0F9C26C
:100B5000853209F4BCC6863209F04CCFC0900D0135
:100B600080910E01D12CD82A00910F0180911001A3
:100B700010E0182BC79A8091620082608093620017
:100B80000115110509F442C3C1E1EC2EC1E0FC2EB0
:100B90009601207E5701F701E601612C05C0CE01C8
:100BA000807E28173907B1F581918F3F09F0639452
:100BB0002196015011097F0191F7662009F426C39F
:100BC00080EF0E9489008AEA0E941F0185E50E9449
:100BD0005A0185E20E9489006A94862D0E9489004C
:100BE000F50161915F016F3F89F02601689457F824
:100BF000C2010E949501C6010196662079F06C0140
:100C00006A94F50161915F016F3F79F72FEFC21A86
:100C1000D20AE6CF6110D4CF6E01BACF89E20E942A
:100C20008900FAE1FA95F1F700C0942D252D40EAEC
:100C300056E861E070E030E0F5013197D5FE0CC078
:100C40004DC03AE13A95F1F700C0415051096109B0
:100C500071093A2F09F4CDC1809162008E7F809393
:100C600062008091620082608093620072BA11BA61
:100C7000809162008068809362009BBB25BB80915D
:100C80006200806180936200809162008160809345
:100C90006200809162008D7F8093620082E08A957D
:100CA000F1F700C0A0B3809162008260809362007F
:100CB0003A13C7CF8081A813C4CF0115110509F4D9
:100CC000A5C26E0165CF3AE13A95F1F700C04150F7
:100CD0005109610971093A2F09F48BC180916200B1
:100CE0008E7F8093620080916200826080936200B8
:100CF00072BA11BA809162008068809362009BBBD7
:100D000025BB809162008F7E80936200809162009B
:100D1000816080936200809162008D7F8093620089
:100D200082E08A95F1F700C0A0B3809162008260F2
:100D300080936200A313C7CF80818313C4CFBDCF3C
:100D400040910D0180910E0150E0582B60910F01F0
:100D50008091100170E0782BC79A57FF02C00C9465
:100D6000A8106115710509F45EC4E1E1F1E080EFBE
:100D7000E82E1AEAA5E5B5E092E0F92E00EA3191F5
:100D8000809162008E7F8093620080916200826019
:100D90008093620071BAE2BA1BBA15BA8091620000
:100DA000806180936200809162008B7F80936200FB
:100DB00022E02A95F1F700C0809162008460809360
:100DC000620072BA11BA1BBA15BA809162008061D2
:100DD00080936200809162008160809362008091C4
:100DE00062008E7F809362008091620082608093B7
:100DF000620071BA12BBABBBB5BB8091620080616F
:100E000080936200809162008B7F8093620082E019
:100E10008A95F1F700C0809162008460809362003F
:100E200072BA11BA1BBA15BA8091620080618093C0
:100E30006200809162008160809362008091620014
:100E40008E7F809362008091620082608093620056
:100E500071BAA2BB1BBBF5BA80916200806180931E
:100E60006200809162008B7F8093620092E09A958D
:100E7000F1F700C08091620084608093620072BAD2
:100E800011BA1BBA15BA809162008061809362002A
:100E900080916200816080936200809162008E7F09
:100EA000809362008091620082608093620071BAD8
:100EB00002BBABBBB5BB80916200806180936200D6
:100EC000809162008B7F80936200C2E0CA95F1F747
:100ED00000C08091620084608093620072BA11BA8F
:100EE0001BBA15BA80916200806180936200809184
:100EF0006200816080936200809162008E7F8093A7
:100F000062008091620082608093620071BA32BB9D
:100F10004BBB55BBEA01CC27D0728091620055FDD6
:100F200064C3806180936200809162008B7F8093B4
:100F3000620022E02A95F1F700C08091620084608F
:100F40008093620072BA11BA1BBA15BA809162001E
:100F50008061809362008091620081608093620072
:100F6000CA019068D82EC92E80E090E0CD2B41F0C8
:100F70000FC3C7ECD0E02197F1F700C00000019645
:100F8000209162002E7F20936200209162002260F7
:100F90002093620072BA11BADBBAC5BA209162001E
:100FA000206120936200209162002F7D20936200D7
:100FB000C2E0CA95F1F700C0C0B320916200206280
:100FC00020936200209162002160209362003C1710
:100FD00009F40FC38A30910561F61BBA15BA8091E6
:100FE0006200806180936200809162008E7F8093B6
:100FF000620080916200826080936200C798FACCA0
:101000008B3109F49DCE08F417C1823209F4CFC4A4
:10101000833209F0EFCCC79AC49AC39ABC9ABB9AA0
:101020008091620082608093620080EF0E94C30022
:101030008AEA0E94F0000E945A0080E80E94F000B4
:101040008AEA0E94F0000E945A0080E30E94C300D6
:1010500020E030E090E80CC0283B4BE0340749F139
:10106000EFECF7E03197F1F700C000002F5F3F4F42
:1010700072BA11BA809162008068809362001BBAD4
:1010800095BB8091620080618093620080916200D4
:10109000816080936200809162008D7F8093620006
:1010A000C39AC498F2E0FA95F1F700C080B38F3F7D
:1010B00099F61BBA15BA8091620080618093620034
:1010C00080916200826080936200BC98C498C79847
:1010D000283B3B4009F48ECC60E070E08AE00E943F
:1010E000AC0288CC863009F4A1C008F496C08730E1
:1010F00009F48EC3893009F07DCC00910D018091F7
:101100000E0110E0182BC0910F0180911001D0E06A
:10111000D82BC79A209771F091E1E92E91E0F92E32
:10112000F70161917F01C8010E9495010F5F1F4F78
:101130002197B1F7C79860E070E08AE00E94AC02A6
:1011400059CC883209F42BC78E3F09F053CCF89460
:1011500014BEE0E0F8EF09954DCC833109F46AC282
:10116000883109F047CCC79A80EF0E9489008AEA4B
:101170000E941F0185E50E945A0180E80E941F011C
:101180008AEA0E941F0185E50E945A0180E10E94BF
:101190001F0190E806C0CFECD7E02197F1F700C01F
:1011A0000000809162008E7F8093620080916200D7
:1011B00082608093620072BA11BA80916200806886
:1011C000809362001BBA95BB80916200806180931E
:1011D0006200809162008160809362008091620071
:1011E0008D7F80936200D2E0DA95F1F700C080B382
:1011F0008F3F89F61BBA15BA809162008061809397
:101200006200809162008160809362008091620040
:10121000826080936200C7988ECF853009F0EACB58
:1012200060E070E080E00E94AC02E4CB60E070E03F
:1012300081E00E94AC02DECBC79A809162008E7F73
:10124000809362008091620082608093620071BA34
:1012500080EF82BB1BBA15BA8091620080618093D7
:101260006200809162008B7F8093620032E03A9549
:10127000F1F700C08091620084608093620072BACE
:1012800011BA1BBA15BA8091620080618093620026
:1012900080916200816080936200809162008E7F05
:1012A000809362008091620082608093620071BAD4
:1012B0002AEA22BB85E58BBB95E095BB30916200A5
:1012C000306130936200309162003B7F3093620066
:1012D00042E04A95F1F700C03091620034603093EB
:1012E000620072BA11BA1BBA15BA3091620030614D
:1012F000309362003091620031603093620030912F
:1013000062003E7F30936200309162003260309321
:10131000620071BA82BB2BBB42E045BB30916200D8
:10132000306130936200309162003B7F3093620005
:1013300052E05A95F1F700C030916200346030936A
:10134000620072BA11BA1BBA15BA309162003061EC
:1013500030936200309162003160309362003091CE
:1013600062003E7F309362003091620032603093C1
:10137000620071BA30E832BB8BBB95BB3091620022
:10138000306130936200309162003B7F30936200A5
:1013900062E06A95F1F700C03091620034603093EA
:1013A000620072BA11BA1BBA15BA3091620030618C
:1013B000309362003091620031603093620030916E
:1013C00062003E7F30936200309162003260309361
:1013D000620071BA22BB8BBB95BB30916200306159
:1013E00030936200309162003B7F30936200C2E034
:1013F000CA95F1F700C0309162003460309362000A
:1014000072BA11BA1BBA15BA3091620030613093CA
:10141000620030916200316030936200309162006E
:101420003E7F309362003091620032603093620000
:1014300071BA82BB2BBB45BB209162002061209317
:101440006200209162002B7F20936200D2E0DA9547
:10145000F1F700C02091620024602093620072BA0C
:1014600011BA1BBA15BA2091620020612093620064
:1014700020916200216020936200209162002E7F03
:10148000209362002091620022602093620071BA72
:1014900020E122BB8BBB95BB809162008061809371
:1014A0006200809162008B7F80936200E2E0EA95A7
:1014B000F1F700C08091620084608093620072BA8C
:1014C00011BA1BBA15BA80916200806180936200E4
:1014D0008091620081608093620020E030E00CC067
:1014E0002031C7E23C0789F18FEC97E00197F1F7D3
:1014F00000C000002F5F3F4F809162008E7F80937D
:1015000062008091620082608093620072BA11BAB8
:101510001BBA15BA8091620080618093620080914D
:1015200062008F7D8093620092E09A95F1F700C08F
:1015300090B380916200806280936200809162002B
:101540008160809362009F3F59F61BBA15BA809163
:10155000620080618093620080916200816080936C
:10156000620080916200826080936200C79820319F
:10157000374209F43FCA60E070E08EE00E94AC029E
:1015800039CAC7ECD0E02197F1F700C000000196FE
:10159000209162002E7F20936200209162002260E1
:1015A0002093620072BA11BADBBAC5BA2091620008
:1015B0002F7E20936200209162002F7D2093620095
:1015C000D2E0DA95F1F700C0C0B32091620020624A
:1015D00020936200209162002160209362003C17FA
:1015E00041F08A30910569F6F8CC8F7E80936200D5
:1015F0009BCC1BBA15BA2091620020612093620037
:10160000209162002E7F2093620020916200226070
:10161000209362000A9709F4F1CC4F5F5F4F61504D
:10162000710909F0ACCBC79860E070E08EE00E94D1
:10163000AC02E0C9C79AC69A809162008E7F8093FF
:101640006200809162008260809362004FEF50E7F9
:1016500062E0415050406040E1F700C000008091DE
:101660006200816080936200C798C69860E070E075
:1016700084E10E94AC02BEC920910D0180910E014F
:1016800030E0382B40910F018091100150E0582B31
:10169000C69A809162008E7F809362008091620082
:1016A00082608093620072BA11BA80916200806891
:1016B000809362002BBB35BB8091620035FD44C531
:1016C00080618093620080916200816080936200FB
:1016D0008091620037FD4CC582608093620062E0B9
:1016E0006A95F1F700C080B34115510509F43DC575
:1016F00080E090E026C09695879580FD34C0969551
:10170000879580FD38C09695879580FD3CC096955D
:10171000879580FD40C09695879580FD44C096953D
:10172000879580FD48C09695879580FD4CC096951D
:101730008795415051092F5F3F4F4115510509F4DD
:1017400050C02BBB35BBC2E0CA95F1F700C060B3F7
:10175000862780FFD0CF96958795D1E08D27D0EA58
:101760009D2780FFCCCF96958795E1E08E27E0EA14
:101770009E2780FFC8CF96958795F1E08F27F0EAE6
:101780009F2780FFC4CF9695879561E0862760EA02
:10179000962780FFC0CF96958795C1E08C27C0EA39
:1017A0009C2780FFBCCF96958795D1E08D27D0EA06
:1017B0009D2780FFB8CF96958795E1E08E27E0EAD8
:1017C0009E2780FFB4CF96958795F1E08F27F0EAAA
:1017D0009F27415051092F5F3F4F4115510509F097
:1017E000B0CFD82FC92F1BBA15BA80916200806183
:1017F000809362008091620081608093620080919A
:10180000620082608093620062E070E088E089C4D8
:10181000C0910D0180910E01D0E0D82B00910F01F5
:101820008091100110E0182BC69AB80188E00E9440
:10183000AC0201151105E9F437C0806180936200A4
:101840008091620081608093620080916200D7FD88
:1018500077C482608093620022E02A95F1F700C08D
:1018600080B30E94A10301501109219601151105B1
:10187000D9F0809162008E7F809362008091620037
:1018800082608093620072BA11BA809162008068AF
:1018900080936200CBBBD5BB80916200D5FFCDCFDA
:1018A0008F7E80936200CCCF1BBA15BA8091620004
:1018B0008061809362008091620081608093620009
:1018C00080916200826080936200C69893C8C79A34
:1018D00080EF0E9489008AEA0E941F0185E50E942C
:1018E0005A0180E80E941F018AEA0E941F0185E5D3
:1018F0000E945A0180E30E94890020E030E090E8D5
:1019000011C0283BEBE03E07B1F18091620082609C
:1019100080936200CFECD7E02197F1F700C0000080
:101920002F5F3F4F809162008E7F80936200809195
:10193000620082608093620072BA11BA8091620084
:101940008068809362001BBA95BB809162008061C1
:101950008093620080916200816080936200809138
:1019600062008D7F80936200D2E0DA95F1F700C0CB
:1019700080B38F3F31F61BBA15BA80916200806147
:101980008093620080916200816080936200809108
:101990006200826080936200C798283B3B4009F454
:1019A00029C860E070E08AE00E94AC0223C8C091C0
:1019B0000D0180910E01D0E0D82B00910F01809194
:1019C000100110E0182BC69AC49AC39ABC9ABB9A0D
:1019D000B80188E00E94AC0201151105E9F42DC0A0
:1019E00080618093620080916200816080936200D8
:1019F000809162008D7F80936200C39AC49832E028
:101A00003A95F1F700C080B30E94A103015011097B
:101A100021960115110589F072BA11BA8091620000
:101A2000806880936200CBBBD5BB80916200D5FFFC
:101A3000D7CF8F7E80936200D6CF1BBA15BA809124
:101A40006200806180936200809162008260809376
:101A50006200C49AC39ABC98C498C6980C94FA04BD
:101A60000E941A020C94FA04E0900D0180910E017C
:101A7000F12CF82A00910F018091100110E0182B31
:101A8000C79AC49AC39ABC9ABB9A8091620082603A
:101A9000809362000115110509F4D1C0D1E1AD2E8A
:101AA000D1E0BD2E9701207E6501F501E701612C93
:101AB00006C0CE01807E2817390709F06FC08191DA
:101AC0008F3F09F063942196015011095F0189F756
:101AD000662009F4B4C08AEA0E94F0000E945A000D
:101AE00085E20E94C3006A94862D0E94C300F6011D
:101AF00081916F018F3F09F449C0C49AC39A9091B4
:101B0000620092609093620090916200906890935E
:101B10006200EBBAF5BA27014424F0E25F2290910B
:101B20006200F5FC37C090619093620071BA82BB8D
:101B300080916200816080936200809162008D7F5D
:101B40008093620022E02A95F1F700C0C39832E04A
:101B50003A95F1F700C0C39A1BBA15BA809162009A
:101B60008061809362008091620082608093620055
:101B700072BA11BAC70101966620A1F07C016A947D
:101B8000F60181916F018F3F09F0B7CFFFEFEF1A98
:101B9000FF0AADCF9F7E90936200C8CF61109BCFAC
:101BA0007E0180CF89E20E94C3004AE14A95F1F7A5
:101BB00000C06894F7F82E2D9F2D40EA56E861E0AA
:101BC00070E030E0F6013197452861F052C03AE10B
:101BD0003A95F1F700C041505109610971093A2F56
:101BE00009F4B9C272BA11BA809162008068809318
:101BF00062002BBB95BB8091620080618093620084
:101C000080916200816080936200809162008D7F8C
:101C100080936200C39AC49882E08A95F1F700C06D
:101C2000A0B380916200826080936200A313CFCF43
:101C300080818313CCCF0115110509F0B1CF8091BC
:101C40006200826080936200BC98C498C79860E08C
:101C500070E08AE00E94AC020C94FA043AE13A95F2
:101C6000F1F700C041505109610971093A2F09F497
:101C700072C272BA11BA8091620080688093620069
:101C80002BBB95BB809162008F7E80936200809118
:101C90006200816080936200809162008D7F8093FA
:101CA0006200C39AC49882E08A95F1F700C0A0B39D
:101CB00080916200826080936200A313CFCF808105
:101CC0008313CCCFB8CFC0910D0180910E01D0E02D
:101CD000D82B00910F018091100110E0182BC69AAB
:101CE000B8018CE00E94AC020115110509F5DCCDAC
:101CF000806180936200809162008F7D809362009A
:101D000062E06A95F1F700C080B390916200906242
:101D100090936200909162009160909362000E94A3
:101D2000A1030150110921960115110509F4BCCD3B
:101D3000809162008E7F8093620080916200826059
:101D40008093620072BA11BACBBBD5BB809162009E
:101D5000D5FFCECF8F7E80936200CDCF00910D0155
:101D600080910E0110E0182BE0900F01809110017E
:101D7000F12CF82AC79AE114F10409F4DBC981E1D6
:101D8000C82E81E0D82EF601B1906F0180EF0E943D
:101D900089008AEA0E945A0165E58AEA92E80E946F
:101DA000950180EA0E945A016B2DE801D068CE01AE
:101DB0000E949501F5E8FA95F1F70000AE0180E088
:101DC00090E030E015FF0BC05BC035E83A95F1F7C5
:101DD00000000196362F883C910509F482C02091BD
:101DE00062002E7F20936200209162002260209387
:101DF000620072BA11BA20916200206820936200DA
:101E00004BBB55BB20916200206120936200209162
:101E10006200216020936200209162002D7F209358
:101E2000620022E02A95F1F700C060B320916200C1
:101E30002260209362006313C8CFB312C6CF2091F3
:101E400062002260209362001BBA15BA20916200E2
:101E50002061209362000A970CF0D0C80F5F1F4FDB
:101E6000D1E0ED1AF10809F08ECFC79864C9C5E832
:101E7000CA95F1F700000196362F883C910589F14B
:101E8000209162002E7F20936200209162002260E8
:101E90002093620072BA11BA2091620020682093E8
:101EA00062004BBB55BB209162002F7E20936200E5
:101EB00020916200216020936200209162002D7FBA
:101EC0002093620062E06A95F1F700C060B3209150
:101ED00062002260209362003613C9CF6B11C7CF16
:101EE000AECF809162008260809362001BBA15BA07
:101EF00080916200806180936200C7980C94FA041C
:101F000080910D0120910E0190E0922B40910F01E4
:101F10002091100150E0522BC79A4115510509F448
:101F200082CBE1E1F1E024C02061209362002091A6
:101F300062002B7F2093620022E02A95F1F700C017
:101F40002091620024602093620072BA11BA1BBA19
:101F500015BA2091620020612093620020916200F6
:101F600021602093620001964150510909F45BCB36
:101F70003191209162002E7F2093620020916200B7
:101F800022602093620071BA32BB8BBB95BB20915B
:101F9000620095FFC9CF2F7E20936200C8CF2091A9
:101FA0000D0180910E0130E0382B40910F0180919E
:101FB000100150E0582BC69A4115510509F4DCC0B8
:101FC00080E090E026C09695879580FD56C0969556
:101FD000879580FD5AC09695879580FD5EC0969541
:101FE000879580FD62C09695879580FD66C0969521
:101FF000879580FD6AC09695879580FD6EC0969501
:102000008795415051092F5F3F4F4115510509F404
:1020100072C0609162006E7F6093620060916200A6
:1020200062606093620072BA11BA2BBB35BB6091DB
:10203000620035FD81C06061609362006091620062
:102040006F7D60936200C2E0CA95F1F700C070B383
:102050006091620060626093620060916200616002
:1020600060936200872780FFAECF96958795D1E079
:102070008D27D0EA9D2780FFAACF96958795E1E02E
:102080008E27E0EA9E2780FFA6CF96958795F1E000
:102090008F27F0EA9F2780FFA2CF9695879561E072
:1020A000862760EA962780FF9ECF96958795C1E0A8
:1020B0008C27C0EA9C2780FF9ACF96958795D1E020
:1020C0008D27D0EA9D2780FF96CF96958795E1E0F2
:1020D0008E27E0EA9E2780FF92CF96958795F1E0C4
:1020E0008F27F0EA9F27415051092F5F3F4F41153D
:1020F000510509F08ECFD82FC92F1BBA15BA809180
:1021000062008061809362008091620081608093B0
:1021100062008091620082608093620062E070E001
:102120008CE00E94AC028D2F0E94A1038C2F0E9494
:10213000A103C6980C94FA046F7E609362007ECF70
:102140008D7F8093620088CB8F7E80936200BBCAB4
:1021500050580C94B10680916200826080936200B6
:10216000BC98C498C7980C94FA04C0E0D0E03BCB6C
:102170008D7F80936200B3CAC0E0D0E0BECFF894F8
:02218000FFCF8F
:00000001FF
