:100000000C9446000C9458000C9458000C94580022
:100010000C9458000C9458000C9458000C94580000
:100020000C9458000C9458000C9458000C945800F0
:100030000C9458000C9458000C9458000C945800E0
:100040000C9458000C9458000C943B080C945800E5
:100050000C9458000C9458000C9458000C945800C0
:100060000C9458000C9458000C9458000C945800B0
:100070000C9458000C9458000C9458000C945800A0
:100080000C9458000C9458000C94580011241FBE76
:10009000CFEFD0E1DEBFCDBF15E0A0E0B1E001C001
:1000A0001D92AC33B107E1F70E94BA010C940E0C1B
:1000B0000C9400008BBB95BB95FD06C0809162003F
:1000C0008061809362000895809162008F7E8093AA
:1000D000620008950F931F938C018FEF82BB11BABA
:1000E00080916200806880936200C8010E945A007B
:1000F0008091620081608093620017FD0CC0809146
:10010000620082608093620082E08A95F1F780B39A
:100110001F910F910895809162008D7F80936200FE
:10012000F3CF0F931F932FEF22BB11BA02E610E01B
:10013000F8012081216020832081226020830E9499
:100140005A00F80180818F7D808382E08A95F1F7E3
:1001500080B39081906290831F910F9108950F93C7
:100160001F932FEF22BB11BA02E610E0F8012081A5
:10017000206820830E945A00F8018081816080837A
:1001800080818D7F8083C39AC49882E08A95F1F73D
:1001900080B31F910F9108950F931F938C0180914D
:1001A00062008E7F80936200809162008260809303
:1001B00062008FEF81BB809162008F778093620035
:1001C00062BBC8010E945A008091620081608093E6
:1001D000620017FD29C080916200826080936200F6
:1001E00092E0892F8A95F1F7809162008E7F80934B
:1001F00062009A95F1F780916200826080936200BC
:10020000809162008068809362008FEF82BB11BA98
:1002100080E090E00E945A008091620081608093AB
:1002200062001F910F910895809162008D7F8093ED
:100230006200D6CFFF920F931F9302E610E0F80101
:1002400020812E7F2083208122602083FF24FA9446
:10025000F1BA62BB0E945A00F80180818B7F8083D3
:10026000808184608083F2BA11BA80E090E00E94BD
:100270005A00F8018081816080831F910F91FF9067
:10028000089590680E94CC000895EF92FF920F931A
:100290001F93F62EC49AC39A02E610E0F80120815B
:1002A000226020832081206820830E945A00EE244F
:1002B000EA94E1BAF2BAF80180818160808380819A
:1002C0008D7F808382E0982F9A95F1F7C3988A9565
:1002D000F1F7C39A80E090E00E945A00F801808113
:1002E00082608083E2BA11BA1F910F91FF90EF9064
:1002F00008951F9382E164E070E00E94E608C69AC8
:1003000080E090E00E945A0012E0812F8A95F1F778
:1003100081B18695869581700E94CE0880E094E038
:100320000E945A00812F8A95F1F781B186958695B2
:1003300081700E94CE0880E098E00E945A00812FD0
:100340008A95F1F781B18695869581700E94CE08D5
:1003500080E09CE00E945A001A95F1F781B18695E1
:10036000869581700E94CE0880E090E00E945A003D
:100370001F9108953F924F925F926F927F928F925A
:100380009F92AF92BF92CF92DF92EF92FF920F9324
:100390001F93DF93CF93CDB7DEB7A8970FB6F8942E
:1003A000DEBF0FBECDBF78940E94640887B3806C17
:1003B00087BB87EB809361001FEF10936200129858
:1003C0001A9A12BB11BA80E090E00E945A001ABB40
:1003D00014BB0E94B609C798C6980E94AF0880E077
:1003E00060E070E00E94E60855E8352E4AE1C42E30
:1003F0008FB589628FBD8EB581608EBD21E030E002
:1004000040E050E0E0E060E070E08091200188236F
:1004100009F043C08FB589628FBD8EB581608EBDF6
:10042000203187E2380780E0480780E0580708F469
:100430005FC0EE2309F066C06F5F7F4F6E367105B7
:100440000CF0E1E06436710534F06456704079BD1B
:1004500068BD6C597F4FEE2309F44FC08EE690E0E3
:10046000861B970B853191050CF047C08B309105A9
:100470002CF024E130E0281B390BC901880F991FAB
:10048000909379008093780020E030E040E050E0E5
:1004900080912001882309F4BDCF10922001109291
:1004A000790010927800809178009091790099BD40
:1004B00088BD88B599B58FBD80912101893109F436
:1004C00023C58A3148F58B3009F4AEC48C3008F06E
:1004D00079C1863009F46EC4873008F0A6C1853032
:1004E00009F086CF80E060E070E00E94E60880CFEF
:1004F0002F5F3F4F4F4F5F4F88CF20E030E040E00D
:1005000050E083CF6150704009F09CCF20E030E094
:1005100040E050E0E0E079CF823209F4B6C48332A3
:1005200008F090C08C3109F4ADC48D3108F00DC2D3
:100530008A3109F433C28B3109F05ACF90912201EC
:10054000809123018AA319A2A92EBB24E9A1FAA1B3
:10055000AE2ABF2A90912401809125018CA31BA271
:10056000892E99242BA13CA1822A932AC79AB7FCF1
:100570007DC58114910409F45EC0EE24FF24870137
:100580000A0D1B1DF701EE5DFE4FD48080E090E068
:1005900060EF0E941A0185E595E06AEA0E941A015F
:1005A0008AEA92E065E50E941A0185E595E060EA35
:1005B0000E941A01C8016D2D0E941A01106866245C
:1005C000772407C088EC90E00197F1F70894611C4C
:1005D000711CC8010E949100D816A1F09AE069161A
:1005E000710481F780E090E00E945A0080916200DF
:1005F0008E7F8093620080916200826080936200AF
:10060000C798F6CE80E090E00E945A008091620088
:100610008E7F80936200809162008260809362008E
:10062000EAE06E16710464F70894E11CF11C8E1464
:100630009F0409F0A4CFC7988EE060E070E00E94AC
:10064000E608D6CE853209F4ACC2863208F071C114
:10065000833209F41CC3843209F0CACE30912201DE
:100660002091230190912401809125018A8B198A80
:10067000A92EBB2489899A89A82AB92AC79AC49A1B
:10068000C39ABC9ABB9A8091620082608093620098
:10069000A114B10409F4CDC42C8B1B8AE32FF0E024
:1006A0002B893C89E22BF32BF8A7EFA396E2492E86
:1006B00091E0592E2FA138A5207E32018FA098A459
:1006C00010E005C0C401807E2817390789F4F301C2
:1006D00080818F3F09F01F5F0894811C911C089452
:1006E000A108B1080894611C711CA114B10451F750
:1006F000112341F4A114B10409F49BC498A68FA25C
:100700002301D8CF8AEA9AE06AEA0E94450185E58A
:1007100095E065E50E94450180E090E065E20E9479
:100720004501612F615080E090E00E94450101C0C9
:100730002C01F20160816F3F29F08FA198A50E94E2
:10074000450111502FA138A52F5F3F4F38A72FA388
:10075000C2010196112361F780E090E069E20E94F6
:1007600045018C2D8A95F1F7DD24EE24FF248701C5
:100770008FA198A50197906898A78FA312C08C2D80
:100780008A95F1F70894E11CF11C011D111DF0EA96
:10079000EF16F6E8FF06F1E00F07F0E01F07E1F1C2
:1007A000D92E8FA198A50E94AF00982F809162004A
:1007B0008260809362009D1511F7F2018081D81646
:1007C000F1F698CF813109F45FC2823108F067C039
:1007D0008D3009F4F5C28F3009F00ACE80916200A5
:1007E00081608093620030916200809162008E7F10
:1007F000809362002091620080E890E02BBB3BBBBD
:100800000197E1F780E160E070E00E94E608F0CD3A
:1008100080E090E00E945A008091620082608093A4
:1008200062000E94B609C798E3CD873009F486C2FA
:10083000893009F0DDCD3091220120912301909182
:100840002401809125018E831D82E92EFF248D8154
:100850009E81E82AF92AC79AE114F104C9F0288791
:100860001F82032F10E0EF81F8850E2B1F2BAA2487
:10087000BB24F501EE5DFE4FC501800F911F648121
:100880000E94CC000894A11CB11CEA14FB0489F757
:10089000C7988AE060E070E00E94E608A9CD833145
:1008A00009F4D0C1883109F0A3CDC79A80E090E067
:1008B00060EF0E9441018AEA9AE06AEA0E944101DF
:1008C00085E595E065E50E9441018AEA9AE060E8E5
:1008D0000E9441018AEA9AE06AEA0E94410185E5A4
:1008E00095E065E50E9441018AEA9AE060E10E9494
:1008F000410104C080ED97E00197F1F780E090E8B6
:100900000E946A008F3FB1F780E090E00E945A0099
:1009100080916200816080936200809162008260B9
:1009200080936200C7988AE060E070E00E94E60869
:100930005FCD863209F47EC08E3F09F059CDF89420
:1009400014BEE0E0F8EF099553CD8D31E1F08E3122
:1009500009F04ECD00912201F09023018FE161E07A
:1009600070E00E94E608C79AFEA21DA210E08DA1C9
:100970009EA1802B912B64E271E00E94BD090E9430
:10098000CE08C79835CD0E94B6098FE161E070E0CE
:100990000E94E60881E00E94CE082ACDC79A80E036
:1009A00090E060EF0E941A0185E595E06AEA0E94F6
:1009B0001A018AEA92E065E50E941A0185E595E050
:1009C00060E80E941A0185E595E06AEA0E941A0132
:1009D0008AEA92E065E50E941A0185E595E060E10A
:1009E0000E941A0100E010E00BC037E2003113074B
:1009F00009F42DC380ED97E00197F1F70F5F1F4FCA
:100A000080E090E00E9491008F3F79F780E090E0D5
:100A10000E945A0080916200816080936200809100
:100A20006200826080936200C798005117420CF008
:100A3000DFCC02CE3091220120912301909124013C
:100A4000809125018E8B1D8AA92EBB248D899E89BC
:100A5000A82AB92AC79A80916200826080936200B6
:100A6000A114B10409F4D9C2288F1F8AE32FF0E042
:100A70002F89388DE22BF32BF8A7EFA386E2482EBF
:100A800081E0582E2FA138A5207E32018FA098A496
:100A900010E005C0C401807E2817390789F4F301EE
:100AA00080818F3F09F01F5F0894811C911C08947E
:100AB000A108B1080894611C711CA114B10451F77C
:100AC000112341F4A114B10409F4A7C298A68FA27E
:100AD0002301D8CF8AEA9AE06AEA0E94410185E5BB
:100AE00095E065E50E94410180E090E065E20E94AA
:100AF0004101612F615080E090E00E94410101C0FE
:100B00002C01F20160816F3F29F08FA198A50E940E
:100B1000410111502FA138A52F5F3F4F38A72FA3B8
:100B2000C2010196112361F780E090E069E20E9422
:100B300041018C2D8A95F1F7DD24EE24FF248701F5
:100B40008FA198A50197906898A78FA312C08C2DAC
:100B50008A95F1F70894E11CF11C011D111DF0EAC2
:100B6000EF16F6E8FF06F1E00F07F0E01F0791F03F
:100B7000D92E8FA198A50E946A00982F80916200BB
:100B80008260809362009D1511F7F2018081D81672
:100B9000F1F698CF80916200826080936200C798DE
:100BA00027CCC79A80E090E060EF0E9441018AEA7A
:100BB0009AE06AEA0E94410185E595E065E50E94B8
:100BC00041018AEA9AE060E80E9441018AEA9AE0DB
:100BD0006AEA0E94410185E595E065E50E944101D0
:100BE00080E090E060E30E94410100E010E00BC073
:100BF0002BE0083B120709F42AC280ED97E0019729
:100C0000F1F70F5F1F4F80E090E80E946A008F3F6E
:100C100079F780E090E00E945A0080916200816044
:100C20008093620080916200826080936200C79826
:100C3000085B1B400CF0DCCB8AE060E070E00E94B7
:100C4000E608D6CBC79AC69A809162008E7F8093C1
:100C500062008091620082608093620020E137E24E
:100C600088EC90E00197F1F721503040C9F780916E
:100C70006200816080936200C798C69884E160E05A
:100C800070E00E94E608B4CB0E947901B1CBC79A0C
:100C9000C49AC39ABC9ABB9A809162008260809386
:100CA000620080E090E060EF0E9445018AEA9AE0ED
:100CB0006AEA0E94450185E595E065E50E944501E7
:100CC0008AEA9AE060E80E9445018AEA9AE06AEAC4
:100CD0000E94450185E595E065E50E94450180E0BB
:100CE00090E060E30E94450100E010E00BC09BE053
:100CF000083B190709F48CCD80ED97E00197F1F7D7
:100D00000F5F1F4F80E090E80E94AF008F3F79F7A0
:100D100080E090E00E945A0080916200826080939F
:100D200062000E94B609C798085B1B400CF060CBBC
:100D30008AE060E070E00E94E6085ACBE090220171
:100D4000F090230190912401809125018A831982DA
:100D5000092F10E089819A81082B192BC69A88E007
:100D6000B8010E94E60801151105A1F0FC821B8262
:100D7000FF24EB81FC81EE2AFF2AC7010E946A0052
:100D80000E94CE08015010400894E11CF11C01158E
:100D9000110599F780E090E00E945A00809162006E
:100DA0008160809362008091620082608093620023
:100DB000C6981ECB81E060E070E00E94E60818CB88
:100DC00030912201209123019091240180912501ED
:100DD0008E8F1D8EE92EFF24ED8DFE8DEE2AFF2ACB
:100DE000C79AE114F104C9F028A31F8E032F10E065
:100DF0002F8D38A1022B132BAA24BB24F501EE5D05
:100E0000FE4FC501800F911F64810E941A01089452
:100E1000A11CB11CEA14FB0489F7C7988EE060E0BE
:100E200070E00E94E608E4CAE0902201F0902301FD
:100E300090912401809125018A8F198E092F10E04D
:100E4000298D3A8D022B132BC69A8CE0B8010E9493
:100E5000E6080115110509F49DCFFC8E1B8EFF24B9
:100E60008B8D9C8DE82AF92AC7010E9491000E946F
:100E7000CE08015010400894E11CF11C0115110529
:100E800099F788CF0E94AC0980CDE0902201F090C4
:100E9000230190912401809125018A871986092FC9
:100EA00010E029853A85022B132BC69AC49AC39A5F
:100EB000BC9ABB9A88E0B8010E94E60801151105AA
:100EC000A1F0FC861B86FF248B859C85E82AF92AE5
:100ED000C7010E94AF000E94CE0801501040089444
:100EE000E11CF11C0115110599F780E090E00E94CA
:100EF0005A0080916200826080936200C49AC39A13
:100F00000E94B609C69874CA30912201209123012B
:100F100090912401809125018E871D86692E77246A
:100F2000ED85FE856E2A7F2AC79A6114710409F443
:100F3000AFCC288B1F86832E99242F853889822A4F
:100F4000932AAA24BB248501080D191DF501EE5D25
:100F5000FE4FD48080E090E060EF0E94410185E583
:100F600095E06AEA0E9441018AEA92E065E50E9402
:100F7000410185E595E060EA0E944101C8016D2DBF
:100F80000E944101832D8A95F1F7E12C20E8F22E91
:100F9000E02AF12A10E0442455240BC0832D8A95C1
:100FA000F1F70894411C511C88EC4816510451F18A
:100FB000192FC7010E946A00982F809162008260F9
:100FC00080936200911751F7D11641F7809162002A
:100FD00082608093620080E090E00E945A003AE0D4
:100FE000431651040CF00CCB0894A11CB11CA614A0
:100FF000B70409F0A8CFC7988AE060E070E00E94CB
:10100000E608F6C98091620082608093620080E009
:1010100090E00E945A00C798EBC9809162008260FC
:1010200080936200C7988AE060E070E00E94E60862
:10103000DFC9809162008260809362000E94B609DD
:10104000C7988AE060E070E00E94E608D1C980E0BD
:1010500090E00E945A00809162008160809362005B
:1010600080916200826080936200CACA80E090E84A
:10107000A80EB91E7ECA1F920F920FB60F921124AE
:101080002F933F934F935F936F937F938F939F9390
:10109000AF93BF93EF93FF935F9B05C08CB10E940A
:1010A0000B095F99FBCFFF91EF91BF91AF919F919A
:1010B0008F917F916F915F914F913F912F910F9001
:1010C0000FBE0F901F90189581E089B91092900083
:1010D00088E98AB9E5E9F0E0808186608083089537
:1010E0005D9BFECF8CB90895982F92959F709A3092
:1010F00070F4905D8F708A3040F4805D5D9BFECF10
:101100009CB95D9BFECF8CB90895895CF7CF995C43
:10111000F1CFFC018081882339F05D9BFECF8CB933
:10112000319680818823C9F708959C0141155105A6
:101130006105710599F080E090E0A0E0B0E0F90170
:10114000E80FF91FE0815D9BFECFECB90196A11D70
:10115000B11D84179507A607B70788F30895109265
:1011600006011092050110922001109208010895C5
:10117000582F90910001382F20E04CE801C036959F
:10118000892F8327969580FD94272F5F2830B9F704
:1011900090930001852F0E94700808950E94B8085E
:1011A0008091030190910401019690930401809332
:1011B000030120910101309102018217930709F088
:1011C0000895809100010E9470080895FF920F9386
:1011D0001F93F82E8B011092000186E40E94B8083C
:1011E0008F2D0E94B808802F0E94B808812F0E947E
:1011F000B8081093020100930101109204011092AB
:101200000301012B21F4809100010E9470081F91BD
:101210000F91FF900895782F80910801882319F08D
:10122000763409F00895109208014091050150911B
:1012300006014115510509F440C030910701272FDF
:1012400090E06CE801C02695832F8227369580FDBB
:1012500036279F5F9830B9F7309307014130510529
:1012600089F1423051050CF44AC04230510509F46D
:101270003FC04330510579F1FA01349784E0EA31F7
:10128000F80708F053C080911E0190911F01E817E4
:10129000F90708F447C080911E0190911F01E817DB
:1012A000F90791F4332309F04EC081E080932001C7
:1012B00010920601109205010895109207011092F4
:1012C0002001BBCF709321014F5F5F4F5093060108
:1012D00040930501089520911E0130911F01972F21
:1012E00080E0822B932B90931F0180931E01ECCF03
:1012F000872F90E090931F0180931E01E5CF411549
:10130000510509F0B9CF7634F9F281E080930801F4
:1013100082E060E070E00E94E60840910501509193
:101320000601D2CFEE5DFE4F7083CECF1092060144
:101330001092050181E08093080184E060E070E094
:101340000E94E608089581E08093080183E060E050
:1013500070E00E94E608ACCF88B3817F88BB87B37A
:10136000866187BBBB9810920901089588B3817E7E
:1013700088BB87B3817E87BB08952F923F924F929F
:101380005F926F927F928F929F92AF92BF92CF9215
:10139000DF92EF92FF920F931F93DF93CF93CDB71E
:1013A000DEB72A970FB6F894DEBF0FBECDBF9C8381
:1013B0008B837E836D83181619060CF079C02090FC
:1013C0001C0130901D0160901A0170901B0120914A
:1013D0001801309119013A8329838090140190906B
:1013E0001501A0901601B090170140911001509185
:1013F00011016091120170911301E0900C01F090C5
:101400000D0100910E0110910F0180910A01909140
:101410000B019A87898750900901CC24DD24ED8146
:10142000FE81EC0DFD1DE0819DEF591609F443C0CE
:10143000AEEF5A1609F4C1C0552009F06EC05E2EF9
:101440001A8619860894C11CD11C2B813C81C216B6
:10145000D3062CF330921D0120921C0170921B01C7
:1014600060921A0189819A819093190180931801E1
:101470008092140190921501A0921601B09217016A
:101480004093100150931101609312017093130166
:10149000E0920C01F0920D0100930E0110930F01E8
:1014A000A985BA85B0930B01A0930A015092090156
:1014B00021E030E068C029853A85232B09F0BDC0C2
:1014C0008E2E9924AA24BB2440E050E060E070E016
:1014D000EE24FF248701D501C40186709070A070AE
:1014E000B0700097A105B10509F480C08430910562
:1014F000A105B10509F42DC182309105A105B10501
:1015000009F427C10697A105B10509F469C0A985A9
:10151000BA851196BA87A98795CF30921D0120927E
:101520001C0170921B0160921A01A981BA81B093CB
:101530001901A09318018092140190921501A092B4
:101540001601B0921701409310015093110160935E
:10155000120170931301E0920C01F0920D010093BF
:101560000E0110930F01E985FA85F0930B01E093CA
:101570000A015092090188B3817E88BB87B3817EBE
:1015800087BB20E030E0C9012A960FB6F894DEBF91
:101590000FBECDBFCF91DF911F910F91FF90EF90C4
:1015A000DF90CF90BF90AF909F908F907F906F9083
:1015B0005F904F903F902F90089529853A85232B77
:1015C00009F05CC08E2F90E09A8389832224332413
:1015D0006624772489859A8501969A87898732CFF0
:1015E00029853A852830310509F091CF80FE95C0D4
:1015F000C29AC49AE114F1040105110571F020E0CA
:1016000030E088B390E1892788BB88B3892788BBFD
:101610002F5F3F4F2E153F05A1F74115510561057D
:10162000710549F080E090E022E02A95F1F70196FB
:1016300084179507C9F755246ACF89859A85049739
:1016400008F06DC081FC8BC08E2F90E0A0E0B0E070
:1016500029853A852150304E220F331F220F331F28
:10166000220F331F04C0880F991FAA1FBB1F2A9582
:10167000D2F7482B592B6A2B7B2B2DCFA985BA8506
:10168000119709F48DC02114310479F4E7FD0AC0E3
:101690002E2E332429813A816216730608F49ACFDC
:1016A000552498CFA1E02A2E312C8E2F90E0DC011A
:1016B000A170B070F2E04F2E4E22E2FD6AC0EFEF53
:1016C000FFEF2114310409F476C020E030E01EC0A1
:1016D000C29A442001F1C19AC498C49A8FEFEF3F97
:1016E000F80759F086B386958695869590E08170C7
:1016F0009070E817F90709F061C00894611C711C2B
:101700002F5F3F4F2215330508F055C0109701F7A2
:10171000C298442001F7C198DFCFC2986ACF8E2FBC
:1017200090E0A0E0B0E029853A852550304E220FA8
:10173000331F220F331F220F331F04C0880F991F3E
:10174000AA1FBB1F2A95D2F7482B592B6A2B7B2B3C
:10175000C2CEE985FA85349709F0D4CE47CF8E2FD3
:1017600090E0A0E0B0E029853A852150304E220F6C
:10177000331F220F331F220F331F04C0880F991FFE
:10178000AA1FBB1F2A95D2F7E82AF92A0A2B1B2B7E
:10179000A2CEE695E695E695F0E0E170F07091CF87
:1017A000E8871F82E981FA812F813885E22BF32BAC
:1017B000FA83E9830FCF222433246CCF30921D01AA
:1017C00020921C0170921B0160921A01A981BA81BA
:1017D000B0931901A0931801809214019092150101
:1017E000A0921601B092170140931001509311017D
:1017F0006093120170931301E0920C01F0920D01BD
:1018000000930E0110930F01E985FA85F0930B0107
:10181000E0930A018EEF80930901ADCEF894FFCFDB
:00000001FF
