:100000000C9446000C9458000C9458000C94580022
:100010000C9458000C9458000C9458000C94580000
:100020000C9458000C9458000C9458000C945800F0
:100030000C9458000C9458000C9458000C945800E0
:100040000C9458000C9458000C9485010C945800A2
:100050000C9458000C9458000C9458000C945800C0
:100060000C9458000C9458000C9458000C945800B0
:100070000C9458000C9458000C9458000C945800A0
:100080000C9458000C9458000C94580011241FBE76
:10009000CFEFD0E1DEBFCDBF25E0A0E0B1E001C0F1
:1000A0001D92AC33B207E1F70E94A9050C94040C31
:1000B0000C9400008BBB95BB95FD06C0809162003F
:1000C0008061809362000895809162008F7E8093AA
:1000D00062000895CF93DF932FEF22BB11BAC2E6DF
:1000E000D0E02881216028832881226028830E9413
:1000F0005A0088818F7D888382E08A95F1F700C05D
:1001000080B3988190629883DF91CF910895CF93C7
:10011000DF932FEF22BB11BAC2E6D0E0288120681E
:1001200028830E945A0088818160888388818D7F1E
:100130008883C39AC49882E08A95F1F700C080B39F
:10014000DF91CF9108951F93CF93DF93C2E6D0E064
:1001500028812E7F28832881226028831FEF11BBEE
:1001600062BB0E945A0088818B7F888382E08A95D7
:10017000F1F700C088818460888312BB11BA1BBA72
:1001800015BA888180618883888181608883DF9146
:10019000CF911F9108951F93CF93DF93162FC49A89
:1001A000C39AC2E6D0E02881226028832881206893
:1001B00028830E945A009FEF91BB12BB8881816007
:1001C000888388818D7F888382E08A95F1F700C0DB
:1001D000C39882E08A95F1F700C0C39A1BBA15BA9A
:1001E00088818061888388818260888392BB11BA0C
:1001F000DF91CF911F910895CF93DF93EC01809110
:1002000062008E7F809362008091620082608093A2
:1002100062008FEF81BB809162008F7780936200D4
:1002200062BBCE010E945A0082E08A95F1F700C0BD
:100230008091620081608093620080916200D7FDAE
:100240002CC082608093620082E08A95F1F700C042
:10025000809162008E7F8093620080916200826054
:100260008093620082E08A95F1F700C0809162007D
:100270008068809362008FEF82BB11BA1BBA15BAF7
:100280008091620080618093620080916200816051
:1002900080936200DF91CF9108958D7F80936200FB
:1002A000D3CFCF93DF93EC01809162008E7F809358
:1002B0006200809162008260809362008FEF82BB57
:1002C00011BA80916200806880936200CE010E9422
:1002D0005A0082E08A95F1F700C080916200816047
:1002E0008093620080916200D7FD0BC08260809392
:1002F000620082E08A95F1F700C080B3DF91CF9170
:1003000008958D7F80936200F4CF1F920F920FB6F5
:100310000F9211242F933F934F935F936F937F938B
:100320008F939F93AF93BF93EF93FF935F9B05C012
:100330008CB10E94A6025F99FBCFFF91EF91BF9114
:10034000AF919F918F917F916F915F914F913F916D
:100350002F910F900FBE0F901F901895CF93DF93A2
:1003600064E070E082E10E948102C69A1BBA15BA6D
:10037000C2E6D0E088818061888382E08A95F1F7C7
:1003800000C081B182FB882780F90E9469021BBAF4
:1003900084E085BB88818061888382E08A95F1F75B
:1003A00000C081B182FB882780F90E9469021BBAD4
:1003B00088E085BB88818061888382E08A95F1F737
:1003C00000C081B182FB882780F90E9469021BBAB4
:1003D0008CE085BB88818061888382E08A95F1F713
:1003E00000C081B182FB882780F90E9469021BBA94
:1003F00015BA888180618883DF91CF91089581E06B
:1004000089B91092900088E98AB9E5E9F0E0808125
:100410008660808308955D9BFECF8CB90895982FE8
:1004200092959F709A3070F4905D8F708A3040F48E
:10043000805D5D9BFECF9CB95D9BFECF8CB908951E
:10044000895CF7CF995CF1CFFC018081882339F07A
:100450005D9BFECF8CB9319680818823C9F70895C2
:100460009C01411551056105710599F080E090E00E
:10047000A0E0B0E0F901E80FF91FE0815D9BFECF3D
:10048000ECB90196A11DB11D84179507A607B70702
:1004900088F3089510920601109205011092200130
:1004A000109208010895582F90910001382F20E0F4
:1004B0004CE801C03695892F8327969580FD9427B7
:1004C0002F5F2830B9F790930001852F0E940B020F
:1004D00008950E94530280910301909104010196B6
:1004E0009093040180930301209101013091020156
:1004F0008217930709F00895809100010E940B0272
:100500000895FF920F931F93F82E8B011092000114
:1005100086E40E9453028F2D0E945302802F0E9476
:100520005302812F0E945302109302010093010194
:100530001092040110920301012B21F4809100011B
:100540000E940B021F910F91FF900895782F8091C8
:100550000801882319F0763409F0089510920801F3
:1005600040910501509106014115510509F440C023
:1005700030910701272F90E06CE801C02695832F6A
:100580008227369580FD36279F5F9830B9F73093E4
:1005900007014130510589F1423051050CF44AC040
:1005A0004230510509F43FC04330510579F1FA0159
:1005B000349784E0EA31F80708F053C080911E01B7
:1005C00090911F01E817F90708F447C080911E01B8
:1005D00090911F01E817F90791F4332309F04EC0F9
:1005E00081E0809320011092060110920501089588
:1005F0001092070110922001BBCF709321014F5F31
:100600005F4F5093060140930501089520911E010C
:1006100030911F01972F80E0822B932B90931F0125
:1006200080931E01ECCF872F90E090931F01809361
:100630001E01E5CF4115510509F0B9CF7634F9F225
:1006400081E08093080182E060E070E00E94810216
:100650004091050150910601D2CFEE5DFE4F7083AF
:10066000CECF109206011092050181E0809308011F
:1006700084E060E070E00E948102089581E0809350
:10068000080183E060E070E00E948102ACCF88B393
:10069000817F88BB87B3866187BBBB9810920901B5
:1006A000089588B3817E88BB87B3817E87BB089518
:1006B0002F923F924F925F926F927F928F929F9272
:1006C000AF92BF92CF92DF92EF92FF920F931F9360
:1006D000DF93CF93CDB7DEB72A970FB6F894DEBF7E
:1006E0000FBECDBF9C838B837E836D831816190646
:1006F0000CF079C020901C0130901D0160901A010F
:1007000070901B0120911801309119013A832983BF
:100710008090140190901501A0901601B0901701DF
:1007200040911001509111016091120170911301DB
:10073000E0900C01F0900D0100910E0110910F015D
:1007400080910A0190910B019A8789875090090145
:10075000CC24DD24ED81FE81EC0DFD1DE0819DEFBB
:10076000591609F443C0AEEF5A1609F4C1C055201A
:1007700009F06EC05E2E1A8619860894C11CD11C21
:100780002B813C81C216D3062CF330921D0120929E
:100790001C0170921B0160921A0189819A819093C9
:1007A0001901809318018092140190921501A09272
:1007B0001601B092170140931001509311016093FC
:1007C000120170931301E0920C01F0920D0100935D
:1007D0000E0110930F01A985BA85B0930B01A09368
:1007E0000A015092090121E030E068C029853A856C
:1007F000232B09F0BDC08E2E9924AA24BB2440E0EF
:1008000050E060E070E0EE24FF248701D501C401D0
:1008100086709070A070B0700097A105B10509F4C2
:1008200080C084309105A105B10509F42DC1823045
:100830009105A105B10509F427C10697A105B105E8
:1008400009F469C0A985BA851196BA87A98795CF99
:1008500030921D0120921C0170921B0160921A01BE
:10086000A981BA81B0931901A09318018092140153
:1008700090921501A0921601B092170140931001B9
:10088000509311016093120170931301E0920C01D7
:10089000F0920D0100930E0110930F01E985FA8586
:1008A000F0930B01E0930A015092090188B3817E15
:1008B00088BB87B3817E87BB20E030E0C9012A96E0
:1008C0000FB6F894DEBF0FBECDBFCF91DF911F9161
:1008D0000F91FF90EF90DF90CF90BF90AF909F90DF
:1008E0008F907F906F905F904F903F902F900895E2
:1008F00029853A85232B09F05CC08E2F90E09A83DE
:100900008983222433246624772489859A85019655
:100910009A87898732CF29853A852830310509F0B1
:1009200091CF80FE95C0C29AC49AE114F1040105EA
:10093000110571F020E030E088B390E1892788BB91
:1009400088B3892788BB2F5F3F4F2E153F05A1F73E
:10095000411551056105710549F080E090E022E004
:100960002A95F1F7019684179507C9F755246ACFA0
:1009700089859A85049708F06DC081FC8BC08E2F05
:1009800090E0A0E0B0E029853A852150304E220F5A
:10099000331F220F331F220F331F04C0880F991FEC
:1009A000AA1FBB1F2A95D2F7482B592B6A2B7B2BEA
:1009B0002DCFA985BA85119709F48DC02114310472
:1009C00079F4E7FD0AC02E2E332429813A8162167C
:1009D000730608F49ACF552498CFA1E02A2E312C23
:1009E0008E2F90E0DC01A170B070F2E04F2E4E220D
:1009F000E2FD6AC0EFEFFFEF2114310409F476C085
:100A000020E030E01EC0C29A442001F1C19AC4988F
:100A1000C49A8FEFEF3FF80759F086B38695869515
:100A2000869590E081709070E817F90709F061C031
:100A30000894611C711C2F5F3F4F2215330508F08D
:100A400055C0109701F7C298442001F7C198DFCF35
:100A5000C2986ACF8E2F90E0A0E0B0E029853A8559
:100A60002550304E220F331F220F331F220F331F0A
:100A700004C0880F991FAA1FBB1F2A95D2F7482BC5
:100A8000592B6A2B7B2BC2CEE985FA85349709F066
:100A9000D4CE47CF8E2F90E0A0E0B0E029853A85F4
:100AA0002150304E220F331F220F331F220F331FCE
:100AB00004C0880F991FAA1FBB1F2A95D2F7E82AE6
:100AC000F92A0A2B1B2BA2CEE695E695E695F0E0D7
:100AD000E170F07091CFE8871F82E981FA812F8160
:100AE0003885E22BF32BFA83E9830FCF22243324BA
:100AF0006CCF30921D0120921C0170921B016092FC
:100B00001A01A981BA81B0931901A09318018092AA
:100B1000140190921501A0921601B0921701409312
:100B20001001509311016093120170931301E09230
:100B30000C01F0920D0100930E0110930F01E98555
:100B4000FA85F0930B01E0930A018EEF809309017F
:100B5000ADCE78940E94FF0187B3806C87BB87EB92
:100B6000809361008FEF8093620012981A9A82BB83
:100B700011BA1BBA15BA909162009061909362000D
:100B80008ABB84BB0E945103C798C6980E944A0240
:100B900060E070E080E00E948102BEE6AB2EB12CE6
:100BA0008FB589628FBD8EB581608EBD20E030E04B
:100BB000E0E041E050E060E070E0809120018111D0
:100BC00038C08FB589628FBD8EB581608EBD4031D2
:100BD00087E258076105710508F450C0E11153C060
:100BE000C90101968E3691050CF455C0E1E09C01D7
:100BF0002456310939BD28BD9C01C501821B930BC8
:100C0000853191050CF059C08B3091052CF044E1F1
:100C100050E0481B590BCA01880F991F9093790027
:100C20008093780040E050E0BA0180912001882351
:100C300041F210922001109279001092780019BCB4
:100C400018BC1FBC809121018A3109F4D3C4C8F5B6
:100C50008D3009F480C308F04BC0873009F4B6C367
:100C600008F06AC0853009F4BFC4863009F098CF17
:100C700060E070E081E00E94810292CF4F5F5F4FA1
:100C80006F4F7F4F9ACF2150310989F4E0E040E067
:100C900050E0BA0192CF8436910524F023563109F1
:100CA00039BD28BD9C0140E050E0BA0186CF243612
:100CB00031050CF4A2CFC9019ACF40E050E0BA014F
:100CC0007CCF833209F424C408F1863209F482C24D
:100CD00008F484C1883209F433C508F4DAC48E3FBD
:100CE00009F05ECFF89414BEE0E0F8EF099558CF14
:100CF000833109F4EBC308F08EC08F3009F45EC471
:100D0000813109F04DCF0E94AE014ACF8D3109F4F7
:100D10005AC308F047C08B3109F4F5C08C3109F093
:100D20003FCF0E94470361E070E08FE10E948102A3
:100D300081E00E94690234CF893009F4EEC28B3021
:100D400009F02ECF009122018091230110E0182B91
:100D5000C091240180912501D0E0D82BC69ABE0114
:100D60008CE00E948102209751F0C8010E946A0025
:100D70000E94690221970F5F1F4F2097B1F71BBA9E
:100D800015BA809162008061809362008091620058
:100D90008160809362008091620082608093620033
:100DA000C698FECE8E3109F4F9C2823209F0F8CE2F
:100DB000009122018091230110E0182BC0912401A1
:100DC00080912501D0E0D82BC69AC49AC39ABC9AC8
:100DD000BB9ABE0188E00E948102209751F0C801B1
:100DE0000E9487000E94690221970F5F1F4F209782
:100DF000B1F71BBA15BA80916200806180936200DE
:100E000080916200826080936200C49AC39A0E94BB
:100E10005103C698C5CE883109F415C3893109F04C
:100E2000BFCEE090220180912301F12CF82A00919D
:100E300024018091250110E0182BC79A0115110596
:100E400009F45AC076E2872E71E0972EF401619082
:100E50004F0160EF80E090E80E94FC006AEA85E5BF
:100E600095E80E94FC0065E58AEA92E80E94FC0091
:100E700060EA85E595E80E94FC00E701D068662DF0
:100E8000CE010E94FC00F5E8FA95F1F70000C12CB4
:100E9000D12C712C0DC025E82A95F1F700004FEFF9
:100EA000C41AD40A782E58ECC516D10409F488C0A7
:100EB000CE010E9451019091620092609093620075
:100EC0008711E9CF6710E7CF80916200826080933D
:100ED00062001BBA15BA8091620080618093620043
:100EE0008AE0C816D1040CF069C09FEFE91AF90A2C
:100EF0000150110909F0AACFC79860E070E08AE0BC
:100F00000E9481024DCE009122018091230110E0C8
:100F1000182BE090240180912501F12CF82AC79A22
:100F200017FD6AC4E114F10409F431C286E2882E87
:100F300081E0982EF40171904F0160EF80E090E025
:100F40000E94A3006AEA85E595E00E94A30065E59A
:100F50008AEA92E00E94A30060EA85E595E00E949B
:100F6000A300672DC8010E94A300E801D068C12C2E
:100F7000D12C09C087EC90E00197F1F700C0000088
:100F80009FEFC91AD90ACE010E946A00781609F4A7
:100F90003CC2EAE0CE16D10469F71BBA15BA8091BB
:100FA0006200806180936200809162008E7F8093F6
:100FB000620080916200826080936200C798F0CDE9
:100FC000809162008260809362001BBA15BA8091A2
:100FD0006200806180936200C798E2CD843209F498
:100FE00057C0853209F0DCCDC79A60EF80E090E809
:100FF0000E94FC006AEA8AEA9AE80E94FC0065E521
:1010000085E595E80E94FC0060E88AEA9AE80E947B
:10101000FC006AEA8AEA9AE80E94FC0065E585E538
:1010200095E80E94FC0060E380E090E80E94FC00EC
:10103000C0E0D0E010C0C83B9BE0D90791F08091A0
:1010400062008260809362008FEC97E00197F1F775
:1010500000C00000219680E090E80E9451018F3F7F
:1010600051F71BBA15BA80916200806180936200CB
:101070008091620081608093620080916200826052
:1010800080936200C798C83BDB4009F489CD35CF17
:10109000E090220180912301F12CF82A0091240193
:1010A0008091250110E0182BC79AC49AC39ABC9A64
:1010B000BB9A8091620082608093620001151105E5
:1010C00009F480C066E2C62E61E0D62E9701207E2C
:1010D0004601F601E701712C05C0CE01807E28177C
:1010E0003907C1F581918F3F09F073942196015022
:1010F00011096F0191F7772009F464C06AEA8AEA5E
:101100009AE00E94CB0065E585E595E00E94CB0062
:1011100065E280E090E00E94CB007A94672D80E049
:1011200090E00E94CB00F40161914F016F3F71F09C
:10113000C7010E94CB00C7010196772079F07C019E
:101140007A94F40161914F016F3F91F7FFEFEF1A2D
:10115000FF0AE9CF7110D2CF7E01B8CF69E280E0FB
:1011600090E00E94CB00FAE1FA95F1F700C0689494
:10117000F7F850EA452E56E8552E66246394712CF4
:10118000312C21E0821A91080CC0FAE1FA95F1F7AE
:1011900000C021E0421A510861087108382E09F494
:1011A00022C3C7010E9487009091620092609093D1
:1011B00062008311EACFF40190819311E6CF01150B
:1011C000110551F6809162008260809362000E9456
:1011D000510392CE8090220180912301912C982A74
:1011E000009124018091250110E0182BC79A80916D
:1011F00062008260809362000115110509F487C0C6
:1012000046E2C42E41E0D42E9401207E1601F60160
:10121000E401712C06C0CE01807E2817390709F041
:1012200040C081918F3F09F07394219601501109BC
:101230006F0189F7772009F46AC060EF80E090E8D9
:101240000E94FC006AEA8AEA9AE80E94FC0065E5CE
:1012500085E595E80E94FC0065E280E090E80E9448
:10126000FC007A94672D80E090E80E94FC00F10178
:1012700061911F016F3F89F074016894F7F8C7010D
:101280000E94FC00FFEF8F1A9F0A772071F07A947A
:10129000F10161911F016F3F79F72FEF821A920AD6
:1012A000E6CF7110CACF4E01AFCF69E280E090E87F
:1012B0000E94FC002AE12A95F1F700C030EA432E93
:1012C00036E8532E66246394712C912C41E0241A45
:1012D00031080CC0FAE1FA95F1F700C021E0421A9A
:1012E000510861087108982E09F463CEC7010E9465
:1012F0005101909162009260909362008911EACF4F
:10130000F10190819911E6CF0115110561F68091E7
:101310006200826080936200EFCDE09022018091B4
:101320002301F12CF82AC091240180912501D0E0FD
:10133000D82BC79A209709F4DFCD06E211E0F80117
:1013400061918F01C7010E94FC00FFEFEF1AFF0AB5
:101350002197A9F7D1CDE090220180912301F12CB2
:10136000F82AC091240180912501D0E0D82BC79A9A
:10137000209769F006E211E0F80161918F01C70141
:101380000E94A300FFEFEF1AFF0A2197A9F7C79861
:1013900060E070E08EE00E94810202CCC0912201E8
:1013A00080912301D0E0D82B61E070E08FE10E94B2
:1013B0008102C79A64E271E0CE010E9458030E9444
:1013C0006902C798EDCB0E945103ADCC0091220178
:1013D0008091230110E0182BC091240180912501F8
:1013E000D0E0D82BC69ABE0188E00E9481022097E7
:1013F00009F4C5CCC8010E9451010E9469022197DD
:101400000F5F1F4F2097B1F7BACC1BBA15BA809166
:101410006200806180936200809162008E7F809381
:10142000620080916200826080936200FAE0CF16D1
:10143000D10409F4C3CD0F5F1F4F21E0E21AF10878
:1014400009F078CDA4CFC79A60EF80E090E80E94C1
:10145000FC006AEA8AEA9AE80E94FC0065E585E5F4
:1014600095E80E94FC0060E88AEA9AE80E94FC0085
:101470006AEA8AEA9AE80E94FC0065E585E595E853
:101480000E94FC0060E18AEA9AE80E94FC0006C023
:101490008FEC97E00197F1F700C0000080E090E842
:1014A0000E9451018F3FA1F71BBA15BA80916200CB
:1014B000806180936200809162008160809362000D
:1014C0008091620082608093620016CDC79AC69AAE
:1014D000809162008E7F80936200809162008260C2
:1014E000809362002FEF40E752E02150404050408F
:1014F000E1F700C00000809162008160809362008B
:10150000C798C69860E070E084E10E94810248CBF1
:10151000C79AC49AC39ABC9ABB9A809162008260AF
:101520008093620060EF80E090E00E94CB006AEA66
:101530008AEA9AE00E94CB0065E585E595E00E9485
:10154000CB0060E88AEA9AE00E94CB006AEA8AEA65
:101550009AE00E94CB0065E585E595E00E94CB000E
:1015600060E380E090E00E94CB00C0E0D0E00CC0DF
:10157000C83BFBE0DF0709F42FC1EFECF7E0319740
:10158000F1F700C00000219680E090E80E948700FB
:101590008F3F71F71BBA15BA80916200806180930A
:1015A0006200809162008260809362000E94510319
:1015B000C798C83BDB4009F4F3CA9FCC3091620066
:1015C000316030936200209162002E7F2093620090
:1015D00080E890E02BBB3BBB0197E1F760E070E057
:1015E00080E10E948102DCCA60E070E080E00E943D
:1015F0008102D6CAC79A60EF80E090E00E94A30003
:101600006AEA85E595E00E94A30065E58AEA92E032
:101610000E94A30060E885E595E00E94A3006AEAC5
:1016200085E595E00E94A30065E58AEA92E00E94C4
:10163000A30060E185E595E00E94A300C0E0D0E052
:101640000BC0C03197E2D90769F08FEC97E00197A2
:10165000F1F700C00000219680E090E00E946A004F
:101660008F3F79F71BBA15BA809162008061809331
:1016700062008091620081608093620080916200CC
:10168000826080936200C798C031D74209F488CA4B
:101690007FCEC091220180912301D0E0D82B009110
:1016A00024018091250110E0182BC69ACE010E94DA
:1016B00051010115110509F4A4C080E090E0CBBBF5
:1016C000D5BBF2E0FA95F1F700C020B3822728E0FD
:1016D00030E009C09695879541E0842740EA942739
:1016E0002150310939F080FDF5CF9695879521502D
:1016F0003109C9F701501109219601151105F9F6B3
:10170000D82FC92F1BBA15BA8091620080618093CF
:10171000620080916200816080936200809162002B
:1017200082608093620062E070E088E00E94810243
:101730008D2F0E9469028C2F0E946902C69830CAC0
:10174000E090220180912301F12CF82A00912401DC
:101750008091250110E0182BC69A0115110509F496
:101760004DC0C0E0D0E0C7010E946A00C82788E0F1
:1017700090E04C2FD695C79540FF04C051E0C52797
:1017800050EAD5270197A9F7015011098FEFE81A00
:10179000F80A0115110539F71C2FCD2F1BBA15BA00
:1017A000809162008061809362008091620081601C
:1017B000809362008091620082608093620062E0A8
:1017C00070E08CE00E948102812F0E9469028C2FC0
:1017D0000E946902C698E4C91BBA15BA80916200DA
:1017E00080618093620080916200826080936200D9
:1017F0000E945103C798D4C9105894CBC0E010E0A0
:0C180000CDCFC0E0D0E07ECFF894FFCF49
:00000001FF
