:100000000C9446000C9463000C9463000C94630001
:100010000C9463000C9463000C9463000C946300D4
:100020000C9463000C9463000C9463000C946300C4
:100030000C9463000C9463000C9463000C946300B4
:100040000C9463000C9463000C948E090C94630070
:100050000C9463000C9463000C9463000C94630094
:100060000C9463000C9463000C9463000C94630084
:100070000C9463000C9463000C9463000C94630074
:100080000C9463000C9463000C94630011241FBE55
:10009000CFEFD0E1DEBFCDBF14E0A0E0B1E0E8E1FA
:1000A000F6E102C005900D92A030B107D9F71CE02F
:1000B000A0E0B4E001C01D92A531B107E1F70E94B4
:1000C000BC010C940A0B0C9400008BBB95BB95FDF6
:1000D00006C08091620080618093620008958091E3
:1000E00062008F7E8093620008950F931F938C01AE
:1000F000809162008E7F80936200809162008260B6
:10010000809362008FEF82BB11BA80916200806899
:1001100080936200C8010E94650080916200816046
:100120008093620017FD0EC0809162008260809310
:10013000620080B3909162009260909362001F9180
:100140000F910895809162008D7F80936200F1CFBE
:100150000F931F9302E610E0F80120812E7F208389
:100160002081226020832FEF22BB11BA0E946500FC
:10017000F80180818F7D808382E08A95F1F780B3DA
:100180009081906290839081916090831F910F91F4
:1001900008950F931F9302E610E0F80120812E7F4F
:1001A00020832081226020832FEF22BB11BA20817F
:1001B000206820830E946500F8018081816080832F
:1001C00080818D7F8083C39AC49882E08A95F1F7FD
:1001D00080B3908192609083C49A1F910F9108958B
:1001E0000F931F938C01809162008E7F8093620039
:1001F000809162008260809362008FEF81BB80916A
:1002000062008F778093620062BBC8010E94650024
:1002100082E08A95F1F780916200816080936200AC
:1002200017FD29C08091620082608093620092E095
:10023000892F8A95F1F7809162008E7F809362000A
:10024000809162008260809362009A95F1F78091BC
:1002500062008068809362008FEF82BB11BA80E0F9
:1002600090E00E946500809162008160809362004E
:100270001F910F910895809162008D7F809362009D
:10028000D6CF90680E94F0000895EF92FF920F93EE
:100290001F93E62EBC9ABB9AC49AC39A02E610E05A
:1002A000F8012081226020832081206820830E9421
:1002B0006500FF24FA94F1BAE2BAF8018081816006
:1002C000808380818D7F808382E0982F9A95F1F7DB
:1002D000C3988A95F1F7C39A80E090E00E94650088
:1002E000F801808182608083F2BA11BA1F910F9168
:1002F000FF90EF9008951F9382E164E070E00E9408
:10030000310AC69A80E090E00E94650012E0812FD9
:100310008A95F1F781B18695869581700E94190AB8
:1003200080E094E00E946500812F8A95F1F781B109
:100330008695869581700E94190A80E098E00E9457
:100340006500812F8A95F1F781B186958695817038
:100350000E94190A80E09CE00E9465001A95F1F75E
:1003600081B18695869581700E94190A80E090E09F
:100370000E9465001F9108952F923F924F925F92C5
:100380006F927F928F929F92AF92BF92CF92DF92A5
:10039000EF92FF920F931F93DF93CF93CDB7DEB70A
:1003A000A9970FB6F894DEBF0FBECDBF78940E9418
:1003B000B70987B3806C87BB87EB809361001FEF21
:1003C0001093620012981A9A12BB11BA80E090E062
:1003D0000E9465001ABB14BBBC98C498C798C69805
:1003E0000E94020A80E060E070E00E94310A48EC5E
:1003F000642E712C8FB589628FBD21E02EBD21E066
:1004000030E040E050E0E0E060E070E080910B041C
:10041000882309F042C08FB589628FBD81E08EBD0F
:10042000203197E2390790E0490790E0590708F436
:1004300070C0EE2309F072C06F5F7F4F6E3671059A
:100440000CF0E1E06436710534F06456704079BD1B
:1004500068BD6C597F4FEE2309F46AC08EE690E0C8
:10046000861B970B853191050CF062C08B3091058E
:100470002CF024E130E0281B390BC901880F991FAB
:10048000909379008093780020E030E040E050E0E5
:1004900080910B04882309F4BECF10920B041092B4
:1004A000790010927800809178009091790099BD40
:1004B00088BD88B599B58FBD35E03EBD80910C04EF
:1004C000823209F42CC68332C0F5893009F437C171
:1004D0008A3008F09FC0863009F498C1873009F44B
:1004E00062C1853009F086CF80E065E070E00E944F
:1004F000310A82E00E94190A80E00E94190A88E00D
:100500000E94190A80E00E94190A88E00E94190AD4
:1005100071CF2F5F3F4F4F4F5F4F78CF615070408B
:1005200009F090CF20E030E040E050E0E0E06ECF16
:1005300020E030E040E050E069CF863209F4F5C3B6
:10054000873208F055C0843209F418C5853208F4A2
:10055000C5C4C79A80E090E060EF0E9441018AEA3A
:100560009AE06AEA0E94410185E595E065E50E940E
:1005700041018AEA9AE060E80E9441018AEA9AE031
:100580006AEA0E94410185E595E065E50E94410126
:1005900080E090E060E30E9441011DBC1CBC8CB572
:1005A0009DB58D589B45E8F4EE24EA94FE2C02C0DC
:1005B000E12EFF2480E090E80E947500182F3FEFA5
:1005C000E3163FEFF30641F090E0EFEFEE22FF2459
:1005D0008E159F0509F40BC68CB59DB58D589B45AE
:1005E00038F38CE260E070E00E94310AC79802CFD5
:1005F000883209F458C3883208F4FAC28D3209F4FB
:100600000BC18E3F09F0F6CEF89414BEE0E0F8EF8F
:100610000995F0CE8D30C1F18E3008F0BFC58B301A
:1006200009F0E8CEE0900D04F0900E0490910F04D4
:10063000809110048D8F1C8E092F10E02C8D3D8D24
:10064000022B132BC69A8CE0B8010E94310A0115C7
:100650001105A1F0FF8E1E8EFF248E8D9F8DE82A3E
:10066000F92AC7010E94A8000E94190A01501040EF
:100670000894E11CF11C0115110599F780E090E048
:100680000E946500C698B6CE30910D0420910E04EC
:1006900090910F04809110048DA31CA2E92EFF24D9
:1006A0008CA19DA1E82AF92AC79AE114F10409F462
:1006B0003FC02FA31EA2032F10E0EEA1FFA10E2B1F
:1006C0001F2BCC24DD24F601E35FFB4F9481809146
:1006D00062008E7F809362008091620082608093CE
:1006E0006200FFEFF1BB92BBC601800F911F0E9419
:1006F0006500809162008B7F8093620082E08A9522
:10070000F1F7809162008460809362002FEF22BB3A
:1007100011BA80E090E00E946500809162008160E3
:10072000809362000894C11CD11CEC14FD0459F69E
:10073000C7988EE060E070E00E94310A5BCE309195
:100740000D0420910E0490910F04809110048D8768
:100750001C86E92EFF24EC85FD85EE2AFF2AC79A28
:10076000E114F104C9F02F871E86032F10E02E85B7
:100770003F85022B132BCC24DD24F601E35FFB4FD6
:10078000C601800F911F64810E94F0000894C11C73
:10079000D11CEC14FD0489F7C7988AE060E070E092
:1007A0000E94310A27CEE0900D04F0900E04909143
:1007B0000F04809110048D831C82092F10E08C811E
:1007C0009D81082B192BC69A88E0B8010E94310A36
:1007D0000115110509F452CFFF821E82FF24EE811C
:1007E000FF81EE2AFF2AC7010E9475000E94190AA4
:1007F000015010400894E11CF11C0115110599F7F6
:1008000080E090E00E946500C698F4CD81E060E051
:1008100070E00E94310AEECDC0900D0430900E04BD
:1008200082E290E460E00E94F00083E290E460E005
:100830000E94F00083E290E461E00E94F00085E213
:1008400090E46EE20E94F00082E390E40E94750062
:1008500080FDFACF85E290E46EE20E94F00020E491
:100860003FE1C3010197F1F721503040D1F785E214
:1008700090E46FE20E94F00085E290E46DE20E9455
:10088000F00024EC39E0C3010197F1F7215030402A
:10089000D1F785E290E46EE20E94F00085E290E4F8
:1008A0006FE20E94F00085E290E46DE20E94F000A9
:1008B00082E390E40E94750081FDFACF28EB3BE0D3
:1008C000C3010197F1F721503040D1F7C69ACC20EF
:1008D00029F48EE26AE370E00E94310A85E290E436
:1008E0006DE60E94F00085E290E46DEE0E94F0005B
:1008F00000E0EE24FF240699FECF81E390E40E94FD
:100900007500182F80E390E40E947500829586950B
:1009100086958170082BCC2009F4DEC0069BFECFA3
:100920000894E11CF11C38E3E316F10421F785E299
:1009300090E46DEE0E94F0000699FECF81E390E412
:100940000E94750084E290E46FEF0E94F000069B25
:10095000FECF80E390E40E947500182F1295169543
:1009600016951170102BCC2051F482958F7091E068
:10097000892781700E94190A812F0E94190A112368
:1009800009F08CC08C2C99245401A30CB11CE2E01A
:10099000AE16B1040CF040C45401DD24D3943324CA
:1009A00081E090E08A159B050CF078C085E290E428
:1009B0006DE20E94F00082E390E40E94750081FDE8
:1009C000FACF80E197E20197F1F7DC1428F08EE28C
:1009D00062E170E00E94310A85E290E46DE60E94D7
:1009E000F00085E290E46DEE0E94F00000E019A6B0
:1009F00018A6EE24FF240699FECF81E390E40E941E
:100A00007500182F80E390E40E947500829586950A
:100A100086958170082BDC1418F0812F0E94190A2A
:100A2000E8A5F9A53D9709F44DC028A539A52E30B4
:100A3000310509F44CC0069BFECF88A599A5019607
:100A400099A788A74097B9F685E290E46DEE0E94D9
:100A5000F0000699FECF81E390E40E94750084E2E5
:100A600090E46FEF0E94F000069BFECF80E390E4DD
:100A70000E947500182F1295169516951170102B5F
:100A8000DC1450F082958F7091E0892781700E946C
:100A9000190A812F0E94190A112311F185E290E4AD
:100AA00066E20E94F00024EF31E0C3010197F1F704
:100AB00021503040D1F78FE260E070E00E94310AAF
:100AC000C69898CC812F90E0E82AF92AB4CF512E0D
:100AD0004424E428F528AFCF812F0E94190A1ECFA5
:100AE000D3948D2D90E08A159B055CF0332420E093
:100AF00030E05901A80CB91C8A159B050CF456CF9F
:100B0000CDCF85E290E46DE20E94F00082E390E4B4
:100B10000E94750081FDFACF80E197E20197F1F71D
:100B2000DC1430F0B7016D5F7F4F8EE20E94310A16
:100B300085E290E46DE60E94F00085E290E46DEEBF
:100B40000E94F0000894E11CF11CE114F104F9F09A
:100B5000AA24BB240699FECF81E390E40E9475008D
:100B6000082F80E390E40E94750082958695869513
:100B70008170182BDC1418F0802F0E94190A069B34
:100B8000FECF0894A11CB11CAE14BF0418F385E27B
:100B900090E46DEE0E94F0000699FECF81E390E4B0
:100BA0000E94750084E290E46FEF0E94F000069BC3
:100BB000FECF80E390E40E947500082F0295069511
:100BC00006950170012BDC1450F082958F70E1E0E6
:100BD0008E2781700E94190A802F0E94190A002313
:100BE00009F05CCFD394232D30E08D2D90E081CFA0
:100BF00090910D0480910E0489871886E92EFF24B8
:100C000028853985E22AF32A90910F0480911004F7
:100C10008B871A86092F10E08A859B85082B192B54
:100C2000C69A9FEF92BB11BA809162008068809350
:100C3000620080916200816080936200F7FCE6C2EE
:100C4000809162008260809362000115110509F4B1
:100C50005FC380E090E0EBBAF5BA22E02A95F1F7A5
:100C600060B30E94F80A015010400894E11CF11C86
:100C70000115110581F7182F092F809162008260FC
:100C80008093620080E090E00E94650088E062E06E
:100C900070E00E94310A812F0E94190A802F0E9461
:100CA000190AC698A7CB30910D0420910E0490919B
:100CB0000F048091100489A318A2E92EFF24E8A153
:100CC000F9A1EE2AFF2AC69AE114F10409F423C31C
:100CD0002BA31AA2C32EDD242AA13BA1C22AD32A08
:100CE00000E010E0C6010E94A800682FC8010E9421
:100CF000F80A8C010894E108F1080894C11CD11C81
:100D0000E114F10479F7F82E80E090E00E9465008C
:100D10008CE062E070E00E94310A8F2D0E94190A77
:100D2000812F0E94190AC69865CB30910D0420913D
:100D30000E0490910F0480911004898F188E092F52
:100D400010E0888D998D082B192BC79A0115110574
:100D500009F4DEC12B8F1A8EE32FF0E02A8D3B8D34
:100D6000E22BF32BF9A7E8A791E1892E94E0992EC5
:100D700019822224332428A539A5207CA8A4B9A44B
:100D80006401FF2405C0C501807C2817390781F460
:100D9000F60180818F3F09F0F3940894A11CB11CE7
:100DA000015010400894C11CD11C0115110559F7C0
:100DB000FF2041F40115110509F4AAC1B9A6A8A69E
:100DC0004601D9CF80E090E060EF0E9441018AEABD
:100DD0009AE06AEA0E94410185E595E065E50E9496
:100DE000410180E090E065E20E9441016F2D615079
:100DF00080E090E00E94410109C028A539A52F5F3D
:100E00003F4F39A728A70894811C911CF4016081E9
:100E10006F3F51F088A599A50E944101F401F0812E
:100E2000F983FA9428A439A4FF2039F780E090E0F0
:100E300069E20E9441011DBC1CBCC101906899A7D8
:100E400088A78CB59DB584589E4108F040C088A500
:100E500099A50E947500E82E88A599A50E947500A5
:100E6000F82E88A599A50E947500982E8F2D8E25A5
:100E700086FF18C0892D8F2586FF14C0E1FCC4C1F0
:100E8000E5FEDFCF8AE263E070E00E94310A8E2D3A
:100E90000E94190A8F2D0E94190A892D0E94190A91
:100EA000C798A8CA88A599A50E947500F82E88A59C
:100EB00099A50E947500F81621F6F981FF1509F42D
:100EC00079CF8CB59DB584589E4108F4C0CF8AE295
:100ED00060E070E00E94310AC7988CCAC79A80E02F
:100EE00090E060EF0E9445018AEA9AE06AEA0E9477
:100EF000450185E595E065E50E9445018AEA9AE0AD
:100F000060E80E9445018AEA9AE06AEA0E94450187
:100F100085E595E065E50E94450180E090E060E3AD
:100F20000E9445011DBC1CBC8CB59DB58D589B45D0
:100F300008F057CBEE24EA94FE2C02C0E12EFF24E9
:100F400080E090E80E94C900182F2FEFE2162FEFE3
:100F5000F20649F090E0E826F92634E4E322FF2483
:100F6000EF2809F444C18CB59DB58D589B4530F3ED
:100F70008CE260E070E00E94310A38CB30910D04C1
:100F800020910E0490910F04809110048D8B1C8A87
:100F9000092F10E08C899D89082B192BC79A011500
:100FA000110509F4B5C02F8B1E8AE32FF0E02E89BE
:100FB0003F89E22BF32BF9A7E8A721E1822E24E059
:100FC000922E33241B821A8228A539A5207CA8A43E
:100FD000B9A46401FF2405C0C501807C2817390726
:100FE00081F4F60180818F3F09F0F3940894A11CED
:100FF000B11C015010400894C11CD11C01151105F1
:1010000059F7FF2041F40115110509F481C0B9A673
:10101000A8A64601D9CF80E090E060EF0E9445018C
:101020008AEA9AE06AEA0E94450185E595E065E56D
:101030000E94450180E090E065E20E9445016F2D2D
:10104000615080E090E00E94450108C088A599A504
:10105000019699A788A70894811C911CF4016081CE
:101060006F3F59F088A599A50E944501F401308091
:10107000FA9428A539A53B832A83FF2039F780E01D
:1010800090E069E20E9445011DBC1CBCEA81FB8125
:10109000F068F9A7E8A78CB59DB584589E4100F586
:1010A00088A599A50E94C900E82E88A599A50E9447
:1010B000C900F82E88A599A50E94C900982E8F2DE9
:1010C0008E2586FF14C0892D8F2586FF10C0E1FC78
:1010D0009BC0E5FCD7CE8CB59DB584589E4100F3EE
:1010E0008AE260E070E00E94310AC79883C988A54F
:1010F00099A50E94C900F82E88A599A50E94C9004B
:10110000F81649F63F1439F60115110509F07FCF9D
:101110008AE060E070E00E94310AC7986BC9E090F5
:101120000D04F0900E0490910F0480911004898BAF
:10113000188A092F10E088899989082B192BC69ADB
:10114000C49AC39ABC9ABB9A88E0B8010E94310A3B
:1011500001151105A1F0FB8A1A8AFF24EA89FB898F
:10116000EE2AFF2AC7010E94C9000E94190A0150F5
:1011700010400894E11CF11C0115110599F780E05D
:1011800090E00E946500809162008260809362001E
:10119000C49AC39ABC98C498C6982CC9813121F1CD
:1011A000833109F027C9C79AC69A809162008E7F61
:1011B000809362008091620082608093620028EEDA
:1011C00033E0C3010197F1F721503040D1F780910E
:1011D0006200816080936200C798C69884E160E0F5
:1011E00070E00E94310A06C90E947B0103C91F3FBB
:1011F00009F483C08BE261E070E00E94310A812F24
:101200000E94190AC798F6C889E23DCE8091620013
:101210008D7F8093620019CD85E290E46DE20E949B
:10122000F00082E390E40E94750081FDFACF80E136
:1012300097E20197F1F7F1E0FC1528F08EE264E007
:1012400070E00E94310A85E290E46DE60E94F000B1
:1012500085E290E46DEE0E94F00000E0EE24FF24B1
:101260000699FECF81E390E40E947500182F80E379
:1012700090E40E9475008295869586958170082B72
:1012800021E02C1508F040C0069BFECF0894E11C1D
:10129000F11C32E0E316F10419F785E290E46DEEFB
:1012A0000E94F0000699FECF81E390E40E94750051
:1012B00084E290E46FEF0E94F000069BFECF80E393
:1012C00090E40E947500182F1295169516951170CE
:1012D000102B91E09C1548F082958F7089278170C2
:1012E0000E94190A812F0E94190A112309F0D6CBF6
:1012F00082E0D82E82E090E055CB8AE060E070E09A
:101300000E94310AC79876C8812F0E94190ABCCF63
:1013100010E000E0B2CCFF2410E0F6CC1F920F9258
:101320000FB60F9211242F933F934F935F936F93B8
:101330007F938F939F93AF93BF93EF93FF935F9BA5
:1013400005C08CB10E94560A5F99FBCFFF91EF91C7
:10135000BF91AF919F918F917F916F915F914F91CD
:101360003F912F910F900FBE0F901F90189581E025
:1013700089B91092900088E98AB9E5E9F0E08081A6
:101380008660808308955D9BFECF8CB90895982F69
:1013900092959F709A3070F4905D8F708A3040F40F
:1013A000805D5D9BFECF9CB95D9BFECF8CB908959F
:1013B000895CF7CF995CF1CFFC018081882339F0FB
:1013C0005D9BFECF8CB9319680818823C9F7089543
:1013D0009C01411551056105710599F080E090E08F
:1013E000A0E0B0E0F901E80FF91FE0815D9BFECFBE
:1013F000ECB90196A11DB11D84179507A607B70783
:1014000088F30895109206041092050410920B04BC
:101410001092080408951F93182F80910004612FE3
:101420000E94F10A80930004812F0E94C3091F913A
:1014300008950E940B0A8091030490910404019680
:1014400090930404809303042091010430910204DA
:101450008217930709F00895809100040E94C30940
:101460000895FF920F931F93F82E8B0110920004A2
:1014700086E40E940B0A8F2D0E940B0A802F0E9487
:101480000B0A812F0E940B0A10930204009301049F
:101490001092040410920304012B21F480910004A3
:1014A0000E94C3091F910F91FF9008951F93182F59
:1014B00080910804882321F0163411F01F910895BB
:1014C000109208048091050490910604892B21F460
:1014D0001092070410920B0480910704612F0E9460
:1014E000F10A282F809307044091050450910604C7
:1014F0004130510559F1423051050CF445C042309C
:101500005105D9F14330510559F1FA01349788E07A
:10151000E830F80708F04FC08091090490910A0460
:10152000E817F90708F443C08091090490910A0470
:10153000E817F90769F4222309F04AC081E0809393
:101540000B041092060410920504B8CF10930C04FB
:101550004F5F5F4F50930604409305041F91089519
:101560002091090430910A04912F80E0822B932B63
:1015700090930A0480930904EBCF812F90E090931D
:101580000A0480930904E4CF4115510509F0BDCF49
:101590001634F1F281E08093080482E060E070E0AC
:1015A0000E94310A4091050450910604D1CFE35FB7
:1015B000FB4F1083CDCF109206041092050481E0FA
:1015C0008093080484E060E070E00E94310A76CFE6
:1015D00081E08093080483E060E070E00E94310ABB
:1015E000B0CF6827E0E0F1E0E60FF11D80810895BB
:1015F0009C01E62FF0E0E827F927F070EE0FFF1FBF
:10160000E050FE4F232F33278081918128273927EF
:08161000C9010895F894FFCF11
:10161800005EBCE2613FDD83C29C7E20A3FD1F41CA
:101628009DC3217FFCA2401E5F01E3BD3E6082DCBA
:10163800237D9FC1421CFEA0E1BF5D0380DE3C62AA
:10164800BEE0025CDF81633D7C22C09E1D43A1FF9A
:101658004618FAA427799BC584DA3866E5BB59078A
:10166800DB856739BAE406581947A5FB7826C49A7A
:10167800653BD987045AB8E6A7F91B45C6987A246A
:10168800F8A6441A99C7257B3A6486D85B05E7B95A
:101698008CD2306EEDB3510F4E10F2AC2F7193CD4A
:1016A800114FADF3702ECC92D38D6F31B2EC0E503A
:1016B800AFF1134DCE90722C6D33D18F0C52B0EE2A
:1016C800326C8ED0530DEFB1F0AE4C1291CF2D731A
:1016D800CA947628ABF517490856B4EA6937D58B0A
:1016E8005709EBB536688AD495CB2977F4AA4816FA
:1016F800E9B7550B88D6346A2B7597C94A14F6A8EA
:10170800742AC896154BA9F7B6E80A54D7896B35D9
:101718000000C1C081C1400101C3C003800241C2B1
:1017280001C6C006800741C70005C1C581C4400481
:1017380001CCC00C800D41CD000FC1CF81CE400E31
:10174800000AC1CA81CB400B01C9C009800841C841
:1017580001D8C018801941D9001BC1DB81DA401AB1
:10176800001EC1DE81DF401F01DDC01D801C41DC81
:101778000014C1D481D5401501D7C017801641D6B1
:1017880001D2C012801341D30011C1D181D04010C1
:1017980001F0C030803141F10033C1F381F24032B1
:1017A8000036C1F681F7403701F5C035803441F481
:1017B800003CC1FC81FD403D01FFC03F803E41FE31
:1017C80001FAC03A803B41FB0039C1F981F8403841
:1017D8000028C1E881E9402901EBC02B802A41EAB1
:1017E80001EEC02E802F41EF002DC1ED81EC402C81
:1017F80001E4C024802541E50027C1E781E64026B1
:101808000022C1E281E3402301E1C021802041E0C0
:1018180001A0C060806141A10063C1A381A24062B0
:101828000066C1A681A7406701A5C065806441A480
:10183800006CC1AC81AD406D01AFC06F806E41AE30
:1018480001AAC06A806B41AB0069C1A981A8406840
:101858000078C1B881B9407901BBC07B807A41BAB0
:1018680001BEC07E807F41BF007DC1BD81BC407C80
:1018780001B4C074807541B50077C1B781B64076B0
:101888000072C1B281B3407301B1C071807041B0C0
:101898000050C190819140510193C05380524192B0
:1018A8000196C056805741970055C1958194405480
:1018B800019CC05C805D419D005FC19F819E405E30
:1018C800005AC19A819B405B0199C0598058419840
:1018D8000188C04880494189004BC18B818A404AB0
:1018E800004EC18E818F404F018DC04D804C418C80
:1018F8000044C184818540450187C04780464186B0
:101908000182C042804341830041C18181804040BF
:00000001FF
