:100000000C9446000C9458000C9458000C94580022
:100010000C9458000C9458000C9458000C94580000
:100020000C9458000C9458000C9458000C945800F0
:100030000C9458000C9458000C9458000C945800E0
:100040000C9458000C9458000C947B010C945800AC
:100050000C9458000C9458000C9458000C945800C0
:100060000C9458000C9458000C9458000C945800B0
:100070000C9458000C9458000C9458000C945800A0
:100080000C9458000C9458000C94580011241FBE76
:10009000CFEFD0E1DEBFCDBF25E0A0E0B1E001C0F1
:1000A0001D92AC33B207E1F70E942D050C94600B52
:1000B0000C9400008BBB95BB95FD06C0809162003F
:1000C0008061809362000895809162008F7E8093AA
:1000D00062000895CF93DF932FEF22BB11BAC2E6DF
:1000E000D0E02881216028832881226028830E9413
:1000F0005A0088818F7D888382E08A95F1F700C05D
:1001000080B3988190629883DF91CF910895CF93C7
:10011000DF932FEF22BB11BAC2E6D0E0288120681E
:1001200028830E945A0088818160888388818D7F1E
:100130008883C39AC49882E08A95F1F700C080B39F
:10014000DF91CF9108951F93CF93DF93C2E6D0E064
:1001500028812E7F28832881226028831FEF11BBEE
:1001600062BB0E945A0088818B7F888382E08A95D7
:10017000F1F700C088818460888312BB11BA80E0E7
:1001800090E00E945A00888181608883DF91CF913E
:100190001F910895EF92FF921F93CF93DF931F92C9
:1001A000CDB7DEB7C49AC39A22E6E22EF12CF7014E
:1001B00020812260208320812068208369830E941F
:1001C0005A001FEF11BB698162BBF701808181601A
:1001D000808380818D7F8083F2E0FA95F1F700C003
:1001E000C39882E08A95F1F700C0C39A80E090E05E
:1001F0000E945A00F70180818260808312BB11BA8D
:100200000F90DF91CF911F91FF90EF900895CF93C2
:10021000DF93EC018FEF82BB11BA9091620090687E
:1002200090936200CE010E945A009091620091600A
:100230009093620080916200D7FD0BC08260809332
:10024000620082E08A95F1F700C080B3DF91CF9120
:1002500008958D7F80936200F4CFCF93DF93EC01FC
:10026000909162009E7F90936200909162009260F4
:10027000909362008FEF81BB909162009F77909383
:10028000620062BBCE010E945A00909162009160B0
:100290009093620080916200D7FD29C082608093B4
:1002A000620082E08A95F1F700C0809162008E7F43
:1002B0008093620082E08A95F1F700C0809162002D
:1002C0008260809362008091620080688093620007
:1002D0008FEF82BB11BA80E090E00E945A008091BB
:1002E0006200816080936200DF91CF9108958D7FDD
:1002F00080936200D6CF1F920F920FB60F921124F7
:100300002F933F934F935F936F937F938F939F931D
:10031000AF93BF93EF93FF935F9B05C08CB10E9497
:1003200077025F99FBCFFF91EF91BF91AF919F91C2
:100330008F917F916F915F914F913F912F910F908E
:100340000FBE0F901F90189564E070E082E10E944C
:100350003802C69A80E090E00E945A0082E08A95B6
:10036000F1F700C081B182FB882780F90E9460020A
:1003700080E094E00E945A0082E08A95F1F700C084
:1003800081B182FB882780F90E94600280E098E0BA
:100390000E945A0082E08A95F1F700C081B182FB89
:1003A000882780F90E94600280E09CE00E945A0049
:1003B00082E08A95F1F700C081B182FB882780F93D
:1003C0000E94600280E090E00C945A0081E089B9BC
:1003D0001092900088E98AB9E5E9F0E080818660B2
:1003E000808308955D9BFECF8CB90895982F9295D8
:1003F0009F709A3070F4905D8F708A3040F4805D09
:100400005D9BFECF9CB95D9BFECF8CB90895895C46
:10041000F7CF995CF1CFFC019081992339F03196A7
:100420005D9BFECF9CB991919111FACF0895411532
:1004300051056105710551F0FC01480F591F81916B
:100440005D9BFECF8CB9E417F507C9F7089590912D
:100450000801382F28E05CE8432F4927969540FD96
:10046000952736952150C1F7909308010C94F2011D
:100470001F93CF93DF93182FEB011092080186E4AE
:100480000E942702812F0E9427028C2F0E942702A0
:100490008D2F0E942702D0930701C093060110926E
:1004A000050110920401CD2B21F0DF91CF911F9116
:1004B000089580910801DF91CF911F910C94F20172
:1004C0000E9427028091040190910501019690936A
:1004D00005018093040120910601309107018217E4
:1004E000930709F00895809108010C94F20190910E
:1004F0000001992319F0863409F008951092000143
:1005000060910201709103016115710559F190919B
:100510000101382F28E05CE8492F4327969540FDDC
:10052000952736952150C1F79093010161307105EF
:1005300009F447C0DCF062307105E9F16330710500
:1005400039F520911E0130911F01A901582B5093BC
:100550001F0140931E016F5F7F4F709303016093F3
:10056000020108951092200190E0D3CF611571052A
:1005700079F4863481F381E08093000160E070E0DB
:1005800082E00E9438026091020170910301E3CF82
:100590009B01245031092A3154E0350738F5409148
:1005A0001E0150911F012417350770F4F901EE5D0B
:1005B000FE4F8083D0CF90E090931F0180931E0167
:1005C000CACF80932101C7CF40911E0150911F01D6
:1005D0002417350709F0BFCF81E0911113C0809334
:1005E000200110920301109202010895109203015C
:1005F0001092020181E08093000160E070E084E0ED
:100600000C9438028093000160E070E083E00E9467
:100610003802E7CF109203011092020110922001DC
:1006200010920001089588B3817F88BB87B38661EB
:1006300087BBBB9810921D01089588B3817E88BB4B
:1006400087B3817E87BB08952F923F924F925F922E
:100650006F927F928F929F92AF92BF92CF92DF92D2
:10066000FF920F931F93CF93DF9300D000D000D061
:10067000CDB7DEB7181619060CF082C0FB015B017E
:10068000A80EB91EBE82AD8240E1F42E222423942E
:10069000312C419180911D018D3F31F18E3F09F444
:1006A00079C0882309F46FC088B3817E88BB87B383
:1006B000817E87BB80E090E026960FB6F894DEBF7F
:1006C0000FBECDBFDF91CF911F910F91FF90DF90B3
:1006D000CF90BF90AF909F908F907F906F905F90E2
:1006E0004F903F902F90089580911B0190911C0195
:1006F000009709F064C01092130110921401109237
:1007000015011092160110920F0110921001109213
:10071000110110921201442E512C612C712C409227
:100720001701509218016092190170921A01B301D9
:10073000A2014670552766277727411551056105A7
:10074000710509F4EAC0443051056105710509F4E9
:1007500027C1423051056105710509F421C14630B8
:1007600051056105710509F4D4C0019690931C01EF
:1007700080931B01AD80BE80EA15FB0509F089CF8F
:1007800081E090E099CF40931D0110921C011092DE
:100790001B01F0CF80911B0190911C01009709F083
:1007A0005CC050E050930E0140930D0110920C017B
:1007B00010920B0110920A0110920901D6CF8430D9
:1007C000910508F0F2C04090170150901801609018
:1007D000190170901A01A42EB12CC12CD12CBC018E
:1007E0006150704E660F771F660F771F660F771F79
:1007F00004C0AA0CBB1CCC1CDD1C6A95D2F7B60148
:10080000A50141FE15C08090130190901401A090A5
:100810001501B0901601482959296A297B2940936E
:1008200013015093140160931501709316017FCF4B
:1008300080900F0190901001A0901101B0901201D2
:10084000482959296A297B2940930F0150931001A7
:1008500060931101709312016ACF8130910509F400
:10086000E8C06091090170910A01672BD1F447FD3E
:1008700014C050E050930A014093090160910B01AC
:1008800070910C0140910D0150910E016417750794
:1008900008F46BCF10921D0168CF30920A012092AC
:1008A000090142FDB6C00FEF1FEF542F5270952E75
:1008B00080E090E0417026C0C29A992041F1C19A2F
:1008C000C498C49A0F3FAFEF1A0749F056B353FBD1
:1008D000222720F930E02017310709F0E5CE60919A
:1008E0000B0170910C016F5F7F4F70930C0160934F
:1008F0000B010196A0900901B0900A018A159B0591
:1009000008F0A2C04111D8CFC2989110D8CFC19899
:10091000D7CF8830910509F028CF80900F019090B3
:100920001001A0901101B09012014091130150915B
:100930001401609115017091160140FE68C0C29AC1
:10094000C49A411551056105710571F0BA0140E085
:1009500050E098B39F2598BB98B39F2598BB4F5FF5
:100960005F4F46175707A9F781149104A104B104FA
:1009700081F040E050E0BA01B2E0BA95F1F700C072
:100980004F5F5F4F6F4F7F4F481559056A057B05D5
:1009900099F710921D0180911B0190911C01E5CEE9
:1009A0008430910509F0E1CEB8CF50E060E070E00E
:1009B0005C01A5E0AA1AA0EEBA0AAA0CBB1CAA0CFC
:1009C000BB1CAA0CBB1C04C0440F551F661F771F1D
:1009D000AA94D2F780900F0190901001A09011017D
:1009E000B0901201482959296A297B2940930F01A7
:1009F0005093100160931101709312014090170100
:100A0000509018016090190170901A0190CEC29810
:100A100097CF43FB002700F910E060910901709126
:100A20000A01672B09F041CF60910B0170910C0115
:100A30000FC060910D0170910E015B01B42AB0925C
:100A40000E01A0920D0191CE80911B0190911C018D
:100A500010920A011092090115CF78940E94E601C4
:100A600087B3806C87BB87EB80936100CFEFC09327
:100A7000620012981A9AC2BB11BA80E090E00E94FC
:100A80005A00CABBC4BB0E941D03C798C6980E94E7
:100A90000A0360E070E080E00E9438020EE610E099
:100AA0008FB589628FBD8EB581608EBD20E030E04C
:100AB000E0E041E050E060E070E0809120018111D1
:100AC00036C08FB589628FBD8EB581608EBD4031D5
:100AD00087E258076105710508F44EC0E11151C065
:100AE000C90101968E3691050CF453C0E1E09C01DA
:100AF0002456310939BD28BD9C01C801821B930BC6
:100B0000853191050CF057C08B3091051CF0C9015F
:100B10008A559109880F991F9093790080937800E6
:100B200040E050E0BA0180912001882351F21092F8
:100B30002001109279001092780019BC18BC1FBCDB
:100B4000809121018A3109F479C3C8F58D3009F407
:100B5000DFC408F04BC0873009F47AC408F06AC0DB
:100B6000853009F465C3863009F09ACF60E070E003
:100B700081E00E94380294CF4F5F5F4F6F4F7F4FED
:100B80009CCF2150310989F4E0E040E050E0BA0107
:100B900094CF8436910524F02356310939BD28BD00
:100BA0009C0140E050E0BA0188CF243631050CF4B6
:100BB000A4CFC9019CCF40E050E0BA017ECF833280
:100BC00009F4CDC208F1863209F4C2C408F476C132
:100BD000883209F4DAC308F483C38E3F09F060CF8A
:100BE000F89414BEE0E0F8EF09955ACF833109F488
:100BF00094C208F08AC08F3009F404C3813109F02F
:100C00004FCF0E94A4014CCF8D3109F41EC408F0CF
:100C100045C08B3109F4EFC08C3109F041CF0E94FF
:100C2000130361E070E08FE10E94380281E00E94CE
:100C3000600236CF893009F44BC48B3009F030CFD5
:100C4000E090220180912301F12CF82AC091240127
:100C500080912501D0E0D82BC69ABE018CE00E947D
:100C60003802209759F0C7010E946A000E94600272
:100C700021978FEFE81AF80A2097A9F780E090E013
:100C80000E945A008091620081608093620080918E
:100C90006200826080936200C69802CF8E3109F4B0
:100CA000BFC3823209F0FCCEE09022018091230183
:100CB000F12CF82AC091240180912501D0E0D82B95
:100CC000C69AC49AC39ABC9ABB9ABE0188E00E9495
:100CD0003802209759F0C7010E9487000E946002E5
:100CE00021972FEFE21AF20A2097A9F780E090E00F
:100CF0000E945A0080916200826080936200C49AD0
:100D0000C39A0E941D03C698CBCE883109F4C5C191
:100D1000893109F0C5CEC090220180912301D12CE8
:100D2000D82AE090240180912501F12CF82AC79A55
:100D3000E114F10409F458C0F6E2AF2EF1E0BF2E41
:100D4000F50161905F0160EF80E090E80E942D0165
:100D50006AEA85E595E80E942D0165E58AEA92E850
:100D60000E942D0160EA85E595E80E942D01E601CB
:100D7000D068662DCE010E942D01F5E8FA95F1F7B5
:100D80000000812C912C712C0DC025E82A95F1F7DB
:100D900000009FEF891A990A782EE8EC8E169104CC
:100DA00009F481C0CE010E94070190916200926017
:100DB000909362008711E9CF6710E7CF80916200BE
:100DC00082608093620080E090E00E945A00FAE026
:100DD0008F1691040CF065C02FEFC21AD20A81E081
:100DE000E81AF10809F0ACCFC79860E070E08AE03B
:100DF0000E94380255CEC090220180912301D12C4F
:100E0000D82AA090240180912501B12CB82AC79A34
:100E1000D7FC46C4A114B10409F453C386E2882E5A
:100E200081E0982EF40171904F0160EF80E090E036
:100E30000E94A3006AEA85E595E00E94A30065E5AB
:100E40008AEA92E00E94A30060EA85E595E00E94AC
:100E5000A300672DC6010E94A30076016894F7F8ED
:100E6000C0E0D0E007C087EC90E00197F1F700C048
:100E700000002196C7010E946A00781609F408C391
:100E8000CA30D10581F780E090E00E945A0080913D
:100E900062008E7F80936200809162008260809306
:100EA0006200C798FDCD80916200826080936200ED
:100EB00080E090E00E945A00C798F2CD843209F495
:100EC00050C0853209F0ECCDC79A60EF80E090E821
:100ED0000E942D016AEA8AEA9AE80E942D0165E5DE
:100EE00085E595E80E942D0160E88AEA9AE80E946B
:100EF0002D016AEA8AEA9AE80E942D0165E585E5F6
:100F000095E80E942D0160E380E090E80E942D01A9
:100F1000C0E0D0E00CC0C83B9BE0D90709F4B8C3DF
:100F20008FEC97E00197F1F700C00000219680E078
:100F300090E80E9407018F3F71F780E090E00E94E7
:100F40005A0080916200816080936200809162000B
:100F5000826080936200C798C83BDB4009F4A0CD53
:100F600044CFE090220180912301F12CF82A809057
:100F7000240180912501912C982AC79AC49AC39A7A
:100F8000BC9ABB9A80916200826080936200811457
:100F90009104E1F0E6E2AE2EE1E0BE2E9701207E64
:100FA0006501F501E701712C05C0CE01807E28178F
:100FB0003907A1F481918F3F09F07394219681E064
:100FC000881A91085F0189F771100CC08091620046
:100FD0008260809362000E941D0306CF711002C0E0
:100FE0007E01DCCF6AEA8AEA9AE00E94CA0065E5DF
:100FF00085E595E00E94CA0065E280E090E00E94ED
:10100000CA006FEF670D80E090E00E94CA0001C047
:101010007C01F60161916F016F3F21F0C7010E94D1
:10102000CA007A94C70101967110F2CF69E280E09C
:1010300090E00E94CA00FAE1FA95F1F700C070EA68
:10104000472E76E8572E66246394712C312C6894D1
:10105000F7F821E0C21AD1080CC0FAE1FA95F1F7CD
:1010600000C021E0421A510861087108382E09F4C5
:1010700006C3C7010E94870090916200926090931E
:1010800062008311EACFF60190813912E6CF811414
:10109000910409F49BCF7E0181CFC79A60EF80E075
:1010A00090E80E942D016AEA8AEA9AE80E942D01DE
:1010B00065E585E595E80E942D0160E88AEA9AE8F1
:1010C0000E942D016AEA8AEA9AE80E942D0165E5EC
:1010D00085E595E80E942D0160E18AEA9AE80E9480
:1010E0002D0106C08FEC97E00197F1F700C00000DA
:1010F00080E090E80E9407018F3FA1F780E090E038
:101100000E945A0080916200816080936200809109
:10111000620082608093620067CEC79AC69A80910F
:1011200062008E7F80936200809162008260809373
:1011300062008FEF90E7E2E081509040E040E1F7FD
:1011400000C0000080916200816080936200C798B7
:10115000C69860E070E084E10E943802A1CCC79A92
:10116000C49AC39ABC9ABB9A8091620082608093B1
:10117000620060EF80E090E00E94CA006AEA8AEABA
:101180009AE00E94CA0065E585E595E00E94CA00E4
:1011900060E88AEA9AE00E94CA006AEA8AEA9AE06B
:1011A0000E94CA0065E585E595E00E94CA0060E3FB
:1011B00080E090E00E94CA00C0E0D0E00CC0C83BD4
:1011C000FBE0DF0709F457C2EFECF7E03197F1F7E6
:1011D00000C00000219680E090E80E9487008F3FC9
:1011E00071F780E090E00E945A0080916200826076
:1011F000809362000E941D03C798C83BDB4009F43E
:101200004FCCF3CD30916200316030936200209179
:1012100062002E7F2093620080E890E02BBB3BBBF6
:101220000197E1F760E070E080E10E94380238CC7D
:1012300060E070E080E00E94380232CCC79A60EF34
:1012400080E090E00E94A3006AEA85E595E00E94B4
:10125000A30065E58AEA92E00E94A30060E885E5C4
:1012600095E00E94A3006AEA85E595E00E94A3004C
:1012700065E58AEA92E00E94A30060E185E595E0D9
:101280000E94A300C0E0D0E00CC0C03197E2D907B3
:1012900009F4FEC18FEC97E00197F1F700C0000060
:1012A000219680E090E00E946A008F3F71F780E015
:1012B00090E00E945A0080916200816080936200F9
:1012C00080916200826080936200C798C031D742EB
:1012D00009F4E6CB60E070E08EE00E943802E0CBDB
:1012E000C091220180912301D0E0D82BE09024010D
:1012F00080912501F12CF82AC69ACE010E9407019F
:10130000E114F10409F4D9C120E030E0CBBBD5BB36
:1013100082E08A95F1F700C080B3282748E050E0CA
:1013200009C03695279591E0292790EA3927415041
:10133000510939F020FDF5CF3695279541505109D7
:10134000C9F7E1E0EE1AF1082196E114F104F1F693
:10135000D22FC32F80E090E00E945A00909162004B
:10136000916090936200909162009260909362000D
:1013700062E070E088E00E9438028D2F0E946002D7
:101380008C2F0E946002C6988BCBC0902201809166
:101390002301D12CD82AE090240180912501F12C41
:1013A000F82AC69AE114F10409F484C1C0E0D0E03F
:1013B000C6010E946A00C82728E030E09C2FD6951D
:1013C000C79590FF04C0E1E0CE27E0EADE27215078
:1013D0003109A1F7F1E0EF1AF1082FEFC21AD20A92
:1013E000E114F10429F7FC2ECD2F80E090E00E945B
:1013F0005A00909162009160909362009091620017
:1014000092609093620062E070E08CE00E9438028B
:101410008F2D0E9460028C2F0E946002C69840CBE4
:10142000C091220180912301D0E0D82B61E070E0CF
:101430008FE10E943802C79A64E271E0CE010E94F7
:1014400024030E946002C7982BCB0E941D03E9CBA6
:10145000E090220180912301F12CF82AC09124010F
:1014600080912501D0E0D82BC69ABE0188E00E9469
:101470003802209709F402CCC7010E9407010E949C
:10148000600221979FEFE91AF90A2097A9F7F6CB96
:1014900080E090E00E945A00809162008E7F8093ED
:1014A0006200809162008260809362002A9709F452
:1014B000F8CC9FEFC91AD90AE1E0AE1AB10809F0D9
:1014C000B1CCC79860E070E08EE00E943802E8CAB4
:1014D000E090220180912301F12CF82AC09124018F
:1014E00080912501D0E0D82BC79A209709F47CCCB5
:1014F000A6E2CA2EA1E0DA2EF60161916F01C701C2
:101500000E942D01FFEFEF1AFF0A2197A9F76CCC7B
:10151000E090220180912301F12CF82AC09124014E
:1015200080912501D0E0D82BC79A209751F296E2FE
:10153000C92E91E0D92EF60161916F01C7010E9479
:10154000A300FFEFEF1AFF0A2197A9F7C798BACFB8
:10155000E090220180912301F12CF82A809024014F
:1015600080912501912C982AC79A8091620082600F
:10157000809362008114910409F4C9CD66E2A62E1D
:1015800061E0B62E9701207E6501F501E701712C1F
:1015900006C0CE01807E2817390709F068C0819106
:1015A0008F3F09F07394219681E0881A91085F01BA
:1015B00081F7772009F4ABCD6AEA8AEA9AE80E94BB
:1015C0002D0165E585E595E80E942D0165E280E045
:1015D00090E80E942D016FEF670D80E090E80E9477
:1015E0002D0101C07C01F60161916F016F3F29F06F
:1015F000C70190680E942D017A94C701019671106D
:10160000F1CF69E280E090E80E942D01FAE1FA95BD
:10161000F1F700C050EA452E56E8552E6624639433
:10162000712C312C6894F7F821E0C21AD1080BC054
:10163000FAE1FA95F1F700C021E0421A5108610879
:101640007108382E81F1C7010E9407019091620054
:101650009260909362008311EBCFF6019081391272
:10166000E7CF8114910409F452CD7E018BCF711024
:10167000A3CF7E0187CF80E090E00E945A00809146
:1016800062008260809362000E941D03C79808CAAE
:1016900080E090E00E945A00809162008160FACB65
:1016A000F0E8DF1AB7CB809162008260809362001D
:1016B000C798F6C9C0E0F12C98CEC0E0D0E04ACE81
:0416C000F894FFCFCC
:00000001FF
