:100000000C94C6010C94D8010C94D8010C94D8011E
:100010000C94D8010C94D8010C94D8010C94D801FC
:100020000C94D8010C94D8010C94D8010C94D801EC
:100030000C94D8010C94D8010C94D8010C94D801DC
:100040000C94D8010C94D8010C94060B0C94D80194
:100050000C94D8010C94D8010C94D8010C94D801BC
:100060000C94D8010C94D8010C94D8010C94D801AC
:100070000C94D8010C94D8010C94D8010C94D8019C
:100080000C94D8010C94D8010C94D801005EBCE209
:10009000613FDD83C29C7E20A3FD1F419DC3217F64
:1000A000FCA2401E5F01E3BD3E6082DC237D9FC158
:1000B000421CFEA0E1BF5D0380DE3C62BEE0025C4C
:1000C000DF81633D7C22C09E1D43A1FF4618FAA438
:1000D00027799BC584DA3866E5BB5907DB85673924
:1000E000BAE406581947A5FB7826C49A653BD98718
:1000F000045AB8E6A7F91B45C6987A24F8A6441A0C
:1001000099C7257B3A6486D85B05E7B98CD2306EF7
:10011000EDB3510F4E10F2AC2F7193CD114FADF3E3
:10012000702ECC92D38D6F31B2EC0E50AFF1134DD7
:10013000CE90722C6D33D18F0C52B0EE326C8ED0CB
:10014000530DEFB1F0AE4C1291CF2D73CA947628B7
:10015000ABF517490856B4EA6937D58B5709EBB5A3
:1001600036688AD495CB2977F4AA4816E9B7550B97
:1001700088D6346A2B7597C94A14F6A8742AC8968B
:10018000154BA9F7B6E80A54D7896B350000C1C0F2
:1001900081C1400101C3C003800241C201C6C00643
:1001A000800741C70005C1C581C4400401CCC00C13
:1001B000800D41CD000FC1CF81CE400E000AC1CAD3
:1001C00081CB400B01C9C009800841C801D8C018C3
:1001D000801941D9001BC1DB81DA401A001EC1DE43
:1001E00081DF401F01DDC01D801C41DC0014C1D433
:1001F00081D5401501D7C017801641D601D2C01253
:10020000801341D30011C1D181D0401001F0C03022
:10021000803141F10033C1F381F240320036C1F642
:1002200081F7403701F5C035803441F4003CC1FC12
:1002300081FD403D01FFC03F803E41FE01FAC03AD2
:10024000803B41FB0039C1F981F840380028C1E802
:1002500081E9402901EBC02B802A41EA01EEC02E42
:10026000802F41EF002DC1ED81EC402C01E4C02432
:10027000802541E50027C1E781E640260022C1E252
:1002800081E3402301E1C021802041E001A0C06062
:10029000806141A10063C1A381A240620066C1A642
:1002A00081A7406701A5C065806441A4006CC1AC12
:1002B00081AD406D01AFC06F806E41AE01AAC06AD2
:1002C000806B41AB0069C1A981A840680078C1B8C2
:1002D00081B9407901BBC07B807A41BA01BEC07E42
:1002E000807F41BF007DC1BD81BC407C01B4C07432
:1002F000807541B50077C1B781B640760072C1B252
:1003000081B3407301B1C071807041B00050C190A1
:10031000819140510193C053805241920196C05641
:10032000805741970055C19581944054019CC05C11
:10033000805D419D005FC19F819E405E005AC19AD1
:10034000819B405B0199C059805841980188C04801
:1003500080494189004BC18B818A404A004EC18E41
:10036000818F404F018DC04D804C418C0044C18431
:10037000818540450187C047804641860182C04251
:10038000804341830041C1818180404011241FBED0
:10039000CFEFD0E1DEBFCDBF19E0A0E0B1E001C0FA
:1003A0001D92AD30B107E1F70E9434030C948F0C1D
:1003B0000C9400008BBB95BB95FD06C0809162003C
:1003C0008061809362000895809162008F7E8093A7
:1003D000620008950F931F938C01809162008E7FBD
:1003E00080936200809162008260809362008FEF50
:1003F00082BB11BA80916200806880936200C8015C
:100400000E94DA018091620081608093620017FD92
:1004100011C08091620082608093620082E08A95C0
:10042000F1F780B3909162009260909362001F9107
:100430000F910895809162008D7F80936200EECFCE
:100440000F931F9302E610E0F80120812E7F208396
:100450002081226020832FEF22BB11BA0E94DA0193
:10046000F80180818F7D808382E08A95F1F780B3E7
:100470009081906290839081916090831F910F9101
:1004800008950F931F9302E610E0F80120812E7F5C
:1004900020832081226020832FEF22BB11BA20818C
:1004A000206820830E94DA01F801808181608083C6
:1004B00080818D7F8083C39AC49882E08A95F1F70A
:1004C00080B3908192609083C49A1F910F91089598
:1004D0000F931F938C01809162008E7F8093620046
:1004E000809162008260809362008FEF81BB809177
:1004F00062008F778093620062BBC8010E94DA01BC
:1005000082E08A95F1F780916200816080936200B9
:1005100017FD29C08091620082608093620092E0A2
:10052000892F8A95F1F7809162008E7F8093620017
:10053000809162008260809362009A95F1F78091C9
:1005400062008068809362008FEF82BB11BA80E006
:1005500090E00E94DA0180916200816080936200E5
:100560001F910F910895809162008D7F80936200AA
:10057000D6CF90680E9468020895EF92FF920F9381
:100580001F93E62EBC9ABB9AC49AC39A02E610E067
:10059000F8012081226020832081206820830E942E
:1005A000DA01FF24FA94F1BAE2BAF801808181609D
:1005B000808380818D7F808382E0982F9A95F1F7E8
:1005C000C3988A95F1F7C39A80E090E00E94DA011F
:1005D000F801808182608083F2BA11BA1F910F9175
:1005E000FF90EF9008951F9382E164E070E00E9415
:1005F000A90BC69A80E090E00E94DA0112E0812FF8
:100600008A95F1F781B18695869581700E94910B4C
:1006100080E094E00E94DA01812F8A95F1F781B1A0
:100620008695869581700E94910B80E098E00E94EB
:10063000DA01812F8A95F1F781B1869586958170CF
:100640000E94910B80E09CE00E94DA011A95F1F77C
:1006500081B18695869581700E94910B80E090E033
:100660000E94DA011F9108952F923F924F925F925C
:100670006F927F928F929F92AF92BF92CF92DF92B2
:10068000EF92FF920F931F93DF93CF93CDB7DEB717
:10069000A9970FB6F894DEBF0FBECDBF78940E9425
:1006A0002F0B87B3806C87BB87EB809361001FEFB4
:1006B0001093620012981A9A12BB11BA80E090E06F
:1006C0000E94DA011ABB14BBBC98C498C798C6989C
:1006D0000E947A0B80E060E070E00E94A90B48EC79
:1006E000642E712C8FB589628FBD21E02EBD21E073
:1006F00030E040E050E0E0E060E070E080910B012D
:10070000882309F042C08FB589628FBD81E08EBD1C
:10071000203197E2390790E0490790E0590708F443
:1007200070C0EE2309F072C06F5F7F4F6E367105A7
:100730000CF0E1E06436710534F06456704079BD28
:1007400068BD6C597F4FEE2309F46AC08EE690E0D5
:10075000861B970B853191050CF062C08B3091059B
:100760002CF024E130E0281B390BC901880F991FB8
:10077000909379008093780020E030E040E050E0F2
:1007800080910B01882309F4BECF10920B011092C7
:10079000790010927800809178009091790099BD4D
:1007A00088BD88B599B58FBD35E03EBD80910C01FF
:1007B000823209F42CC68332C0F5893009F437C17E
:1007C0008A3008F09FC0863009F498C1873009F458
:1007D00062C1853009F086CF80E065E070E00E945C
:1007E000A90B82E00E94910B8CEF0E94910B87E095
:1007F0000E94910B8CEF0E94910B87E00E94910B5D
:1008000071CF2F5F3F4F4F4F5F4F78CF6150704098
:1008100009F090CF20E030E040E050E0E0E06ECF23
:1008200020E030E040E050E069CF863209F4F5C3C3
:10083000873208F055C0843209F418C5853208F4AF
:10084000C5C4C79A80E090E060EF0E94B9028AEACE
:100850009AE06AEA0E94B90285E595E065E50E94A2
:10086000B9028AEA9AE060E80E94B9028AEA9AE04C
:100870006AEA0E94B90285E595E065E50E94B90241
:1008800080E090E060E30E94B9021DBC1CBC8CB506
:100890009DB58D589B45E8F4EE24EA94FE2C02C0E9
:1008A000E12EFF2480E090E80E94EA01182F3FEF3C
:1008B000E3163FEFF30641F090E0EFEFEE22FF2466
:1008C0008E159F0509F40BC68CB59DB58D589B45BB
:1008D00038F38CE260E070E00E94A90BC79802CF69
:1008E000883209F458C3883208F4FAC28D3209F408
:1008F0000BC18E3F09F0F6CEF89414BEE0E0F8EF9D
:100900000995F0CE8D30C1F18E3008F0BFC58B3027
:1009100009F0E8CEE0900D01F0900E0190910F01EA
:10092000809110018D8F1C8E092F10E02C8D3D8D34
:10093000022B132BC69A8CE0B8010E94A90B01155B
:100940001105A1F0FF8E1E8EFF248E8D9F8DE82A4B
:10095000F92AC7010E9420020E94910B0150104009
:100960000894E11CF11C0115110599F780E090E055
:100970000E94DA01C698B6CE30910D0120910E0189
:1009800090910F01809110018DA31CA2E92EFF24EC
:100990008CA19DA1E82AF92AC79AE114F10409F46F
:1009A0003FC02FA31EA2032F10E0EEA1FFA10E2B2C
:1009B0001F2BCC24DD24F601E35FFE4F9481809150
:1009C00062008E7F809362008091620082608093DB
:1009D0006200FFEFF1BB92BBC601800F911F0E9426
:1009E000DA01809162008B7F8093620082E08A95B9
:1009F000F1F7809162008460809362002FEF22BB48
:100A000011BA80E090E00E94DA018091620081607A
:100A1000809362000894C11CD11CEC14FD0459F6AB
:100A2000C7988EE060E070E00E94A90B5BCE309129
:100A30000D0120910E0190910F01809110018D8781
:100A40001C86E92EFF24EC85FD85EE2AFF2AC79A35
:100A5000E114F104C9F02F871E86032F10E02E85C4
:100A60003F85022B132BCC24DD24F601E35FFE4FE0
:100A7000C601800F911F64810E9468020894C11C06
:100A8000D11CEC14FD0489F7C7988AE060E070E09F
:100A90000E94A90B27CEE0900D01F0900E019091DD
:100AA0000F01809110018D831C82092F10E08C8131
:100AB0009D81082B192BC69A88E0B8010E94A90BCA
:100AC0000115110509F452CFFF821E82FF24EE8129
:100AD000FF81EE2AFF2AC7010E94EA010E94910BC2
:100AE000015010400894E11CF11C0115110599F703
:100AF00080E090E00E94DA01C698F4CD81E060E0E9
:100B000070E00E94A90BEECDC0900D0130900E0157
:100B100082E290E460E00E94680283E290E460E098
:100B20000E94680283E290E461E00E94680285E22C
:100B300090E46EE20E94680282E390E40E94EA017F
:100B400080FDFACF85E290E46EE20E94680220E424
:100B50003FE1C3010197F1F721503040D1F785E221
:100B600090E46FE20E94680285E290E46DE20E94E8
:100B7000680224EC39E0C3010197F1F721503040BD
:100B8000D1F785E290E46EE20E94680285E290E48B
:100B90006FE20E94680285E290E46DE20E946802C2
:100BA00082E390E40E94EA0181FDFACF28EB3BE06A
:100BB000C3010197F1F721503040D1F7C69ACC20FC
:100BC00029F48EE26AE370E00E94A90B85E290E4CA
:100BD0006DE60E94680285E290E46DEE0E94680274
:100BE00000E0EE24FF240699FECF81E390E40E940A
:100BF000EA01182F80E390E40E94EA01829586952D
:100C000086958170082BCC2009F4DEC0069BFECFB0
:100C10000894E11CF11C38E3E316F10421F785E2A6
:100C200090E46DEE0E9468020699FECF81E390E4A5
:100C30000E94EA0184E290E46FEF0E946802069B42
:100C4000FECF80E390E40E94EA01182F12951695DA
:100C500016951170102BCC2051F482958F7091E075
:100C6000892781700E94910B812F0E94910B112383
:100C700009F08CC08C2C99245401A30CB11CE2E027
:100C8000AE16B1040CF040C45401DD24D3943324D7
:100C900081E090E08A159B050CF078C085E290E435
:100CA0006DE20E94680282E390E40E94EA0181FD05
:100CB000FACF80E197E20197F1F7DC1428F08EE299
:100CC00062E170E00E94A90B85E290E46DE60E946B
:100CD000680285E290E46DEE0E94680200E019A6C9
:100CE00018A6EE24FF240699FECF81E390E40E942B
:100CF000EA01182F80E390E40E94EA01829586952C
:100D000086958170082BDC1418F0812F0E94910BBE
:100D1000E8A5F9A53D9709F44DC028A539A52E30C1
:100D2000310509F44CC0069BFECF88A599A5019614
:100D300099A788A74097B9F685E290E46DEE0E94E6
:100D400068020699FECF81E390E40E94EA0184E202
:100D500090E46FEF0E946802069BFECF80E390E470
:100D60000E94EA01182F1295169516951170102BF6
:100D7000DC1450F082958F7091E0892781700E9479
:100D8000910B812F0E94910B112311F185E290E4C8
:100D900066E20E94680224EF31E0C3010197F1F797
:100DA00021503040D1F78FE260E070E00E94A90B43
:100DB000C69898CC812F90E0E82AF92AB4CF512E1A
:100DC0004424E428F528AFCF812F0E94910B1ECF39
:100DD000D3948D2D90E08A159B055CF0332420E0A0
:100DE00030E05901A80CB91C8A159B050CF456CFAC
:100DF000CDCF85E290E46DE20E94680282E390E448
:100E00000E94EA0181FDFACF80E197E20197F1F7B4
:100E1000DC1430F0B7016D5F7F4F8EE20E94A90BAA
:100E200085E290E46DE60E94680285E290E46DEE52
:100E30000E9468020894E11CF11CE114F104F9F02D
:100E4000AA24BB240699FECF81E390E40E94EA0124
:100E5000082F80E390E40E94EA01829586958695AA
:100E60008170182BDC1418F0802F0E94910B069BC8
:100E7000FECF0894A11CB11CAE14BF0418F385E288
:100E800090E46DEE0E9468020699FECF81E390E443
:100E90000E94EA0184E290E46FEF0E946802069BE0
:100EA000FECF80E390E40E94EA01082F02950695A8
:100EB00006950170012BDC1450F082958F70E1E0F3
:100EC0008E2781700E94910B802F0E94910B00232E
:100ED00009F05CCFD394232D30E08D2D90E081CFAD
:100EE00090910D0180910E0189871886E92EFF24CB
:100EF00028853985E22AF32A90910F01809110010B
:100F00008B871A86092F10E08A859B85082B192B61
:100F1000C69A9FEF92BB11BA80916200806880935D
:100F2000620080916200816080936200F7FCE6C2FB
:100F3000809162008260809362000115110509F4BE
:100F40005FC380E090E0EBBAF5BA22E02A95F1F7B2
:100F500060B30E947E0C015010400894E11CF11C0B
:100F60000115110581F7182F092F80916200826009
:100F70008093620080E090E00E94DA0188E062E005
:100F800070E00E94A90B812F0E94910B802F0E947C
:100F9000910BC698A7CB30910D0120910E01909135
:100FA0000F018091100189A318A2E92EFF24E8A166
:100FB000F9A1EE2AFF2AC69AE114F10409F423C329
:100FC0002BA31AA2C32EDD242AA13BA1C22AD32A15
:100FD00000E010E0C6010E942002682FC8010E94B4
:100FE0007E0C8C010894E108F1080894C11CD11C06
:100FF000E114F10479F7F82E80E090E00E94DA0124
:101000008CE062E070E00E94A90B8F2D0E94910B92
:10101000812F0E94910BC69865CB30910D012091D4
:101020000E0190910F0180911001898F188E092F68
:1010300010E0888D998D082B192BC79A0115110581
:1010400009F4DEC12B8F1A8EE32FF0E02A8D3B8D41
:10105000E22BF32BF9A7E8A791E1892E91E0992ED5
:1010600019822224332428A539A5207CA8A4B9A458
:101070006401FF2405C0C501807C2817390781F46D
:10108000F60180818F3F09F0F3940894A11CB11CF4
:10109000015010400894C11CD11C0115110559F7CD
:1010A000FF2041F40115110509F4AAC1B9A6A8A6AB
:1010B0004601D9CF80E090E060EF0E94B9028AEA51
:1010C0009AE06AEA0E94B90285E595E065E50E942A
:1010D000B90280E090E065E20E94B9026F2D615094
:1010E00080E090E00E94B90209C028A539A52F5FD1
:1010F0003F4F39A728A70894811C911CF4016081F7
:101100006F3F51F088A599A50E94B902F401F081C2
:10111000F983FA9428A439A4FF2039F780E090E0FD
:1011200069E20E94B9021DBC1CBCC101906899A76C
:1011300088A78CB59DB584589E4108F040C088A50D
:1011400099A50E94EA01E82E88A599A50E94EA01C6
:10115000F82E88A599A50E94EA01982E8F2D8E253C
:1011600086FF18C0892D8F2586FF14C0E1FCC4C1FD
:10117000E5FEDFCF8AE263E070E00E94A90B8E2DCE
:101180000E94910B8F2D0E94910B892D0E94910B33
:10119000C798A8CA88A599A50E94EA01F82E88A533
:1011A00099A50E94EA01F81621F6F981FF1509F4C4
:1011B00079CF8CB59DB584589E4108F4C0CF8AE2A2
:1011C00060E070E00E94A90BC7988CCAC79A80E0C3
:1011D00090E060EF0E94BD028AEA9AE06AEA0E940B
:1011E000BD0285E595E065E50E94BD028AEA9AE0C8
:1011F00060E80E94BD028AEA9AE06AEA0E94BD02A3
:1012000085E595E065E50E94BD0280E090E060E341
:101210000E94BD021DBC1CBC8CB59DB58D589B4564
:1012200008F057CBEE24EA94FE2C02C0E12EFF24F6
:1012300080E090E80E944102182F2FEFE2162FEF76
:10124000F20649F090E0E826F92634E4E322FF2490
:10125000EF2809F444C18CB59DB58D589B4530F3FA
:101260008CE260E070E00E94A90B38CB30910D0158
:1012700020910E0190910F01809110018D8B1C8A9D
:10128000092F10E08C899D89082B192BC79A01150D
:10129000110509F4B5C02F8B1E8AE32FF0E02E89CB
:1012A0003F89E22BF32BF9A7E8A721E1822E21E069
:1012B000922E33241B821A8228A539A5207CA8A44B
:1012C000B9A46401FF2405C0C501807C2817390733
:1012D00081F4F60180818F3F09F0F3940894A11CFA
:1012E000B11C015010400894C11CD11C01151105FE
:1012F00059F7FF2041F40115110509F481C0B9A681
:10130000A8A64601D9CF80E090E060EF0E94BD0220
:101310008AEA9AE06AEA0E94BD0285E595E065E501
:101320000E94BD0280E090E065E20E94BD026F2D48
:10133000615080E090E00E94BD0208C088A599A598
:10134000019699A788A70894811C911CF4016081DB
:101350006F3F59F088A599A50E94BD02F401308025
:10136000FA9428A539A53B832A83FF2039F780E02A
:1013700090E069E20E94BD021DBC1CBCEA81FB81B9
:10138000F068F9A7E8A78CB59DB584589E4100F593
:1013900088A599A50E944102E82E88A599A50E94DA
:1013A0004102F82E88A599A50E944102982E8F2D02
:1013B0008E2586FF14C0892D8F2586FF10C0E1FC85
:1013C0009BC0E5FCD7CE8CB59DB584589E4100F3FB
:1013D0008AE260E070E00E94A90BC79883C988A5E3
:1013E00099A50E944102F82E88A599A50E94410264
:1013F000F81649F63F1439F60115110509F07FCFAB
:101400008AE060E070E00E94A90BC7986BC9E09089
:101410000D01F0900E0190910F0180911001898BC8
:10142000188A092F10E088899989082B192BC69AE8
:10143000C49AC39ABC9ABB9A88E0B8010E94A90BCF
:1014400001151105A1F0FB8A1A8AFF24EA89FB899C
:10145000EE2AFF2AC7010E9441020E94910B01500F
:1014600010400894E11CF11C0115110599F780E06A
:1014700090E00E94DA0180916200826080936200B5
:10148000C49AC39ABC98C498C6982CC9813121F1DA
:10149000833109F027C9C79AC69A809162008E7F6E
:1014A000809362008091620082608093620028EEE7
:1014B00033E0C3010197F1F721503040D1F780911B
:1014C0006200816080936200C798C69884E160E002
:1014D00070E00E94A90B06C90E94F30203C91F3FD6
:1014E00009F483C08BE261E070E00E94A90B812FB8
:1014F0000E94910BC798F6C889E23DCE80916200A8
:101500008D7F8093620019CD85E290E46DE20E94A8
:10151000680282E390E40E94EA0181FDFACF80E153
:1015200097E20197F1F7F1E0FC1528F08EE264E014
:1015300070E00E94A90B85E290E46DE60E946802CB
:1015400085E290E46DEE0E94680200E0EE24FF2444
:101550000699FECF81E390E40E94EA01182F80E310
:1015600090E40E94EA018295869586958170082B09
:1015700021E02C1508F040C0069BFECF0894E11C2A
:10158000F11C32E0E316F10419F785E290E46DEE08
:101590000E9468020699FECF81E390E40E94EA016E
:1015A00084E290E46FEF0E946802069BFECF80E326
:1015B00090E40E94EA01182F129516951695117065
:1015C000102B91E09C1548F082958F7089278170CF
:1015D0000E94910B812F0E94910B112309F0D6CB11
:1015E00082E0D82E82E090E055CB8AE060E070E0A7
:1015F0000E94A90BC79876C8812F0E94910BBCCF7F
:1016000010E000E0B2CCFF2410E0F6CC1F920F9265
:101610000FB60F9211242F933F934F935F936F93C5
:101620007F938F939F93AF93BF93EF93FF935F9BB2
:1016300005C08CB10E94CE0B5F99FBCFFF91EF915B
:10164000BF91AF919F918F917F916F915F914F91DA
:101650003F912F910F900FBE0F901F90189581E032
:1016600089B91092900088E98AB9E5E9F0E08081B3
:101670008660808308955D9BFECF8CB90895982F76
:1016800092959F709A3070F4905D8F708A3040F41C
:10169000805D5D9BFECF9CB95D9BFECF8CB90895AC
:1016A000895CF7CF995CF1CFFC018081882339F008
:1016B0005D9BFECF8CB9319680818823C9F7089550
:1016C0009C01411551056105710599F080E090E09C
:1016D000A0E0B0E0F901E80FF91FE0815D9BFECFCB
:1016E000ECB90196A11DB11D84179507A607B70790
:1016F00088F30895109206011092050110920B01D3
:101700001092080108951F93182F80910001612FF6
:101710000E94760C80930001812F0E943B0B1F9149
:1017200008950E94830B809103019091040101961A
:1017300090930401809303012091010130910201F3
:101740008217930709F00895809100010E943B0BD6
:101750000895FF920F931F93F82E8B0110920001B2
:1017600086E40E94830B8F2D0E94830B802F0E94A2
:10177000830B812F0E94830B1093020100930101C0
:101780001092040110920301012B21F480910001B9
:101790000E943B0B1F910F91FF9008951F93182FEC
:1017A00080910801882321F0163411F01F910895CB
:1017B000109208018091050190910601892B21F476
:1017C0001092070110920B0180910701612F0E9476
:1017D000760C282F80930701409105015091060156
:1017E0004130510509F43FC041305105B0F4163481
:1017F00061F081E08093080182E060E070E00E9487
:10180000A90B40910501509106014F5F5F4F509326
:101810000601409305011F9108954230510561F181
:1018200043305105B1F1FA01349788E0E030F80710
:1018300008F046C08091090190910A01E817F90764
:10184000D8F18091090190910A01E817F907E9F6AA
:10185000222309F042C081E080930B01109206011F
:1018600010920501A3CF10930C014F5F5F4F50936F
:10187000060140930501CFCF812F90E090930A019C
:10188000809309014F5F5F4F50930601409305011C
:10189000C2CF2091090130910A01912F80E0822B63
:1018A000932B90930A01809309014F5F5F4F5093F0
:1018B000060140930501AFCFE35FFE4F1083A5CF34
:1018C000109206011092050181E08093080184E0E6
:1018D00060E070E00E94A90B69CF81E0809308016D
:1018E00083E060E070E00E94A90BB8CF6827ECE8C5
:1018F000F0E0E60FF11DE4918E2F0895E62FF0E061
:10190000E827F927F070EE0FFF1FE457FE4F2591EF
:101910003491892F992728273927C9010895F894E8
:02192000FFCFF7
:00000001FF
