:100000000C94C6010C94D8010C94D8010C94D8011E
:100010000C94D8010C94D8010C94D8010C94D801FC
:100020000C94D8010C94D8010C94D8010C94D801EC
:100030000C94D8010C94D8010C94D8010C94D801DC
:100040000C94D8010C94D8010C94DF020C94D801C4
:100050000C94D8010C94D8010C94D8010C94D801BC
:100060000C94D8010C94D8010C94D8010C94D801AC
:100070000C94D8010C94D8010C94D8010C94D8019C
:100080000C94D8010C94D8010C94D801005EBCE209
:10009000613FDD83C29C7E20A3FD1F419DC3217F64
:1000A000FCA2401E5F01E3BD3E6082DC237D9FC158
:1000B000421CFEA0E1BF5D0380DE3C62BEE0025C4C
:1000C000DF81633D7C22C09E1D43A1FF4618FAA438
:1000D00027799BC584DA3866E5BB5907DB85673924
:1000E000BAE406581947A5FB7826C49A653BD98718
:1000F000045AB8E6A7F91B45C6987A24F8A6441A0C
:1001000099C7257B3A6486D85B05E7B98CD2306EF7
:10011000EDB3510F4E10F2AC2F7193CD114FADF3E3
:10012000702ECC92D38D6F31B2EC0E50AFF1134DD7
:10013000CE90722C6D33D18F0C52B0EE326C8ED0CB
:10014000530DEFB1F0AE4C1291CF2D73CA947628B7
:10015000ABF517490856B4EA6937D58B5709EBB5A3
:1001600036688AD495CB2977F4AA4816E9B7550B97
:1001700088D6346A2B7597C94A14F6A8742AC8968B
:10018000154BA9F7B6E80A54D7896B350000C1C0F2
:1001900081C1400101C3C003800241C201C6C00643
:1001A000800741C70005C1C581C4400401CCC00C13
:1001B000800D41CD000FC1CF81CE400E000AC1CAD3
:1001C00081CB400B01C9C009800841C801D8C018C3
:1001D000801941D9001BC1DB81DA401A001EC1DE43
:1001E00081DF401F01DDC01D801C41DC0014C1D433
:1001F00081D5401501D7C017801641D601D2C01253
:10020000801341D30011C1D181D0401001F0C03022
:10021000803141F10033C1F381F240320036C1F642
:1002200081F7403701F5C035803441F4003CC1FC12
:1002300081FD403D01FFC03F803E41FE01FAC03AD2
:10024000803B41FB0039C1F981F840380028C1E802
:1002500081E9402901EBC02B802A41EA01EEC02E42
:10026000802F41EF002DC1ED81EC402C01E4C02432
:10027000802541E50027C1E781E640260022C1E252
:1002800081E3402301E1C021802041E001A0C06062
:10029000806141A10063C1A381A240620066C1A642
:1002A00081A7406701A5C065806441A4006CC1AC12
:1002B00081AD406D01AFC06F806E41AE01AAC06AD2
:1002C000806B41AB0069C1A981A840680078C1B8C2
:1002D00081B9407901BBC07B807A41BA01BEC07E42
:1002E000807F41BF007DC1BD81BC407C01B4C07432
:1002F000807541B50077C1B781B640760072C1B252
:1003000081B3407301B1C071807041B00050C190A1
:10031000819140510193C053805241920196C05641
:10032000805741970055C19581944054019CC05C11
:10033000805D419D005FC19F819E405E005AC19AD1
:10034000819B405B0199C059805841980188C04801
:1003500080494189004BC18B818A404A004EC18E41
:10036000818F404F018DC04D804C418C0044C18431
:10037000818540450187C047804641860182C04251
:10038000804341830041C1818180404011241FBED0
:10039000CFEFD0E1DEBFCDBF19E0A0E0B1E001C0FA
:1003A0001D92AD30B107E1F70E9408030C947E085E
:1003B0000C9400008BBB95BB95FD06C0809162003C
:1003C0008061809362000895809162008F7E8093A7
:1003D000620008950F931F938C01809162008E7FBD
:1003E00080936200809162008260809362008FEF50
:1003F00082BB11BA80916200806880936200C8015C
:100400000E94DA018091620081608093620017FD92
:1004100015C080916200826080936200C39AC49A82
:1004200082E08A95F1F780B3909162009260909398
:100430006200C39AC49A1F910F910895809162003F
:100440008D7F80936200C39AC498EACF0F931F9365
:1004500002E610E0F80120812E7F208320812260B7
:1004600020832FEF22BB11BA0E94DA01F8018081AC
:100470008F7D808382E08A95F1F780B390819062CE
:1004800090839081916090831F910F9108950F93B5
:100490001F938C01809162008E7F80936200809117
:1004A00062008260809362008FEF81BB8091620066
:1004B0008F778093620062BBC8010E94DA0182E0FC
:1004C0008A95F1F78091620081608093620017FD48
:1004D0002DC080916200826080936200C39AC49AAA
:1004E00092E0892F8A95F1F7809162008E7F809348
:1004F000620080916200826080936200C39AC49A15
:100500009A95F1F7809162008068809362008FEF86
:1005100082BB11BA80E090E00E94DA018091620013
:100520008160809362001F910F9108958091620015
:100530008D7F80936200C398C49AD2CF1F9382E1CB
:1005400064E070E00E949807C69A80E090E00E9404
:10055000DA0112E0812F8A95F1F781B186958695AF
:1005600081700E94800780E094E00E94DA01812F70
:100570008A95F1F781B18695869581700E948007F2
:1005800080E098E00E94DA01812F8A95F1F781B12D
:100590008695869581700E94800780E09CE00E948D
:1005A000DA011A95F1F781B18695869581700E94DE
:1005B000800780E090E00E94DA011F9108951F9269
:1005C0000F920FB60F9211242F933F934F935F9387
:1005D0006F937F938F939F93AF93BF93EF93FF930B
:1005E0005F9B05C08CB10E94BD075F99FBCFFF9157
:1005F000EF91BF91AF919F918F917F916F915F919B
:100600004F913F912F910F900FBE0F901F90189513
:100610002F923F924F925F926F927F928F929F9212
:10062000AF92BF92CF92DF92EF92FF920F931F9300
:10063000DF93CF93CDB7DEB76E970FB6F894DEBFDA
:100640000FBECDBF78940E941E0787B3806C87BB16
:1006500087EB809361001FEF1093620012981A9A43
:1006600012BB11BA80E090E00E94DA011ABB14BB01
:1006700087B3886187BB88B3886188BBC798C698F1
:100680000E94690780E060E070E00E9498072224E1
:10069000239438EC432E512C8FB589628FBD2EBC2C
:1006A00021E030E040E050E0E0E060E070E0809188
:1006B0000B01882309F041C08FB589628FBD2EBC24
:1006C000203187E2380780E0480780E0580708F4C7
:1006D0006FC0EE2309F076C06F5F7F4F6E367105F5
:1006E0000CF0E1E06436710534F06456704079BD79
:1006F00068BD6C597F4FEE2309F45FC08EE690E031
:10070000861B970B853191050CF057C08B309105F6
:100710002CF024E130E0281B390BC901880F991F08
:10072000909379008093780020E030E040E050E042
:1007300080910B01882309F4BFCF10920B01109216
:10074000790010927800809178009091790099BD9D
:1007500088BD88B599B58FBD35E03EBD80910C014F
:10076000833109F456C18431B8F5893009F41DC1CB
:100770008A3008F083C0863009F46CC18730D1F12B
:10078000853009F089CF80E065E070E00E9498072D
:1007900082E00E9480078CEF0E94800787E00E9421
:1007A00080078CEF0E94800787E00E94800774CF4B
:1007B0002F5F3F4F4F4F5F4F7ACF20E030E040E058
:1007C00050E075CF6150704009F08CCF20E030E0F0
:1007D00040E050E0E0E06BCF853209F4B5C28632EC
:1007E000D8F5833209F4B0C2843208F0D6C182321F
:1007F00009F052CFE0900D01F0900E0190910F01A1
:10080000809110018A831982092F10E089819A81D1
:10081000082B192BC69A88E0B8010E949807011589
:100820001105A1F0FC821B82FF24EB81FC81EE2AE2
:10083000FF2AC7010E94EA010E9480070150104070
:100840000894E11CF11C0115110599F780E090E076
:100850000E94DA01C69820CF873209F443C187325B
:1008600008F49BC1883209F4FBC08E3F09F014CF15
:10087000F89414BEE0E0F8EF09950ECF8D30D1F179
:100880008131A9F18B3009F007CFE0900D01F09094
:100890000E0190910F01809110018A8B198A092F06
:1008A00010E029893A89022B132BC69A8CE0B801F3
:1008B0000E9498070115110549F2FC8A1B8AFF2442
:1008C0008B899C89E82AF92AC7010E9426020E9486
:1008D0008007015010400894E11CF11C011511051E
:1008E00099F780E090E00E94DA01C698D5CE0E9488
:1008F0009E02D2CE30910D0120910E0190910F01F8
:10090000809110018A8F198EE92EFF24898D9A8D8E
:10091000E82AF92AC79AE114F10409F43FC02C8FA0
:100920001B8E032F10E0EB8DFC8D0E2B1F2BCC2488
:10093000DD24F601E35FFE4F9481809162008E7F9B
:100940008093620080916200826080936200FFEF7A
:10095000F1BB92BBC601800F911F0E94DA0180910A
:1009600062008B7F8093620082E08A95F1F780912C
:1009700062008460809362002FEF22BB11BA80E096
:1009800090E00E94DA0180916200816080936200B1
:100990000894C11CD11CEC14FD0459F6C7988EE0D4
:1009A00060E070E00E94980777CE30910D012091B1
:1009B0000E0190910F01809110018A871986E92E0E
:1009C000FF24E985FA85EE2AFF2AC79AE114F1048B
:1009D000C9F02C871B86032F10E02B853C85022B4A
:1009E000132BCC24DD24F601E35FFE4FC601800FFC
:1009F000911F64810E9447020894C11CD11CCE142F
:100A0000DF0489F7C7988AE060E070E00E949807E9
:100A100043CEC79AC69A809162008E7F809362000F
:100A20008091620082608093620028EE33E0C20110
:100A30000197F1F721503040D1F780916200816039
:100A400080936200C798C69884E160E070E00E94DD
:100A5000980722CE81E060E070E00E9498071CCEEB
:100A600030910D0120910E0190910F0180911001A4
:100A70008E8B1D8AE92EFF24ED89FE89EE2AFF2A3E
:100A8000C69AE114F10409F4CFC1288F1F8AC32E3E
:100A9000DD242F89388DC22AD32A00E010E0C60158
:100AA0000E942602682FC8010E946D088C010894DC
:100AB000E108F1080894C11CD11CE114F10479F794
:100AC000F82E80E090E00E94DA018CE062E070E0B5
:100AD0000E9498078F2D0E948007812F0E94800717
:100AE000C698DACD90910D0180910E018E831D8202
:100AF000E92EFF242D813E81E22AF32A90910F01F5
:100B00008091100188871F82092F10E08F819885BE
:100B1000082B192BC69A9FEF92BB11BA80916200E5
:100B2000806880936200809162008160809362009F
:100B3000F7FC65C1809162008260809362000115BC
:100B4000110509F465C180E090E0EBBAF5BA22E046
:100B50002A95F1F760B30E946D0801501040089487
:100B6000E11CF11C0115110581F7182F092F809147
:100B7000620082608093620080E090E00E94DA016F
:100B800088E062E070E00E949807812F0E94800751
:100B9000802F0E948007C6987FCD30910D01209153
:100BA0000E0190910F01809110018E871D86092FF3
:100BB00010E08D859E85082B192BC79A011511050C
:100BC00009F435C1288B1F86E32FF0E02F85388983
:100BD000E22BF32BFE8FED8F81E1882E81E0982EA2
:100BE0003324662477242D8D3E8D207CAD8CBE8CE5
:100BF0006401FF2405C0C501807C2817390781F4F2
:100C0000F60180818F3F09F0F3940894A11CB11C78
:100C1000015010400894C11CD11C0115110559F751
:100C2000FF2041F40115110509F401C1BE8EAD8EFE
:100C30004601D9CF80E090E860EF0E9447028AEA3F
:100C40009AE86AEA0E94470285E595E865E50E9410
:100C5000470280E090E865E20E9447026F2D6150F4
:100C600080E090E80E94470209C02D8D3E8D2F5FE5
:100C70003F4F3E8F2D8F0894811C911CF4016081A1
:100C80006F3F51F08D8D9E8D90680E944702F40158
:100C90003080FA946D8C7E8CFF2039F780E090E8EC
:100CA00069E20E9447021DBC1CBCC30190689E8F74
:100CB0008D8F8CB59DB584589E4108F03EC08D8DBA
:100CC0009E8D0E94EA01E82E8D8D9E8D0E94EA0184
:100CD000F82E8D8D9E8D0E94EA01982E8F2D8E25E7
:100CE00086FF18C0892D8F2586FF14C0E1FC93C0B4
:100CF000E5FEDFCF8AE263E070E00E9498078E2D68
:100D00000E9480078F2D0E948007892D0E948007F6
:100D1000C798C2CC8D8D9E8D0E94EA01F82E8D8DD4
:100D20009E8D0E94EA01F81621F63F1409F47ACF4D
:100D30008CB59DB584589E4110F28AE260E070E067
:100D40000E949807C798A8CCC79A80E090E860EF07
:100D50000E9447028AEA9AE86AEA0E94470285E509
:100D600095E865E50E9447028AEA9AE860E80E94F1
:100D700047028AEA9AE86AEA0E94470285E595E80E
:100D800065E50E94470280E090E860E30E94470228
:100D90001DBC1CBC8CB59DB58D589B45E8F4EE245C
:100DA000EA94FE2C02C0E12EFF2480E090E80E942D
:100DB000EA01182F8FEFE8168FEFF80641F0812F28
:100DC00090E0EFEFEE22FF248E159F0561F08CB5C9
:100DD0009DB58D589B4538F38CE260E070E00E9431
:100DE0009807C79859CC1F3FC1F08BE261E070E0D3
:100DF0000E949807812F0E948007C7984DCC809150
:100E000062008D7F809362000115110509F09BCE71
:100E100010E000E0ACCE89E26ECF8AE060E070E0E6
:100E20000E949807C79838CCFF2410E04ACE8AE089
:100E300060E070E00E949807C7982ECC81E089B9E5
:100E40001092900088E98AB9E5E9F0E08081866037
:100E5000808308955D9BFECF8CB90895982F92955D
:100E60009F709A3070F4905D8F708A3040F4805D8E
:100E70005D9BFECF9CB95D9BFECF8CB90895895CCC
:100E8000F7CF995CF1CFFC018081882339F05D9B1D
:100E9000FECF8CB9319680818823C9F708959C01D3
:100EA000411551056105710599F080E090E0A0E0E1
:100EB000B0E0F901E80FF91FE0815D9BFECFECB9CE
:100EC0000196A11DB11D84179507A607B70788F3E2
:100ED0000895109206011092050110920B011092D4
:100EE000080108951F93182F80910001612F0E941F
:100EF000650880930001812F0E942A071F910895A1
:100F00000E947207809103019091040101969093D1
:100F100004018093030120910101309102018217A5
:100F2000930709F00895809100010E942A0708950F
:100F3000FF920F931F93F82E8B011092000186E40D
:100F40000E9472078F2D0E947207802F0E947207E5
:100F5000812F0E94720710930201009301011092E9
:100F6000040110920301012B21F4809100010E94E1
:100F70002A071F910F91FF9008951F93182F8091BA
:100F80000801882321F0163411F01F910895109262
:100F900008018091050190910601892B21F410929E
:100FA000070110920B0180910701612F0E946508D3
:100FB000282F80930701409105015091060141308F
:100FC000510509F43FC041305105B0F4163461F0C9
:100FD00081E08093080182E060E070E00E94980761
:100FE00040910501509106014F5F5F4F50930601FC
:100FF000409305011F9108954230510561F143303E
:101000005105B1F1FA01349788E0E030F80708F0B3
:1010100046C08091090190910A01E817F907D8F1BB
:101020008091090190910A01E817F907E9F6222356
:1010300009F042C081E080930B01109206011092EA
:101040000501A3CF10930C014F5F5F4F5093060132
:1010500040930501CFCF812F90E090930A018093B8
:1010600009014F5F5F4F5093060140930501C2CFC6
:101070002091090130910A01912F80E0822B932B5E
:1010800090930A01809309014F5F5F4F50930601CF
:1010900040930501AFCFE35FFE4F1083A5CF1092C1
:1010A00006011092050181E08093080184E060E070
:1010B00070E00E94980769CF81E08093080183E087
:1010C00060E070E00E949807B8CF6827ECE8F0E095
:1010D000E60FF11DE4918E2F0895E62FF0E0E8274A
:1010E000F927F070EE0FFF1FE457FE4F2591349162
:1010F000892F992728273927C9010895F894FFCF08
:00000001FF
