:100000000C9446000C9458000C9458000C94580022
:100010000C9458000C9458000C9458000C94580000
:100020000C9458000C9458000C9458000C945800F0
:100030000C9458000C9458000C9458000C945800E0
:100040000C9458000C9458000C946D010C945800BA
:100050000C9458000C9458000C9458000C945800C0
:100060000C9458000C9458000C9458000C945800B0
:100070000C9458000C9458000C9458000C945800A0
:100080000C9458000C9458000C94580011241FBE76
:10009000CFEFD0E1DEBFCDBF29E0A0E0B1E001C0ED
:1000A0001D92A531B207E1F70E9414030C943C089D
:1000B0000C9400008BBB95BB95FD06C0809162003F
:1000C0008061809362000895809162008F7E8093AA
:1000D00062000895CF93DF93C2E6D0E028812E7F9F
:1000E00028832881226028832FEF22BB11BA0E9427
:1000F0005A0088818F7D888382E08A95F1F700C05D
:1001000080B3988190629883988191609883DF9101
:10011000CF910895CF93DF93C2E6D0E028812E7F60
:1001200028832881226028832FEF22BB11BA2881DF
:10013000206828830E945A00888181608883888192
:100140008D7F8883C39AC49882E08A95F1F700C0B6
:1001500080B3988192609883C49ADF91CF9108957B
:100160001F93CF93DF93162FBC9ABB9AC49AC39A5E
:10017000C2E6D0E028812260288328812068288375
:100180000E945A009FEF91BB12BB888181608883D7
:1001900088818D7F888382E08A95F1F700C0C398BB
:1001A00082E08A95F1F700C0C39A1BBA15BA88811C
:1001B0008061888388818260888392BB11BADF91D5
:1001C000CF911F910895CF93DF93EC01809162004E
:1001D0008E7F8093620080916200826080936200D3
:1001E0008FEF81BB809162008F778093620062BB4A
:1001F000CE010E945A0082E08A95F1F700C08091FA
:10020000620081608093620080916200D7FD2CC003
:1002100082608093620082E08A95F1F700C080914D
:1002200062008E7F80936200809162008260809382
:10023000620082E08A95F1F700C0809162008068D8
:10024000809362008FEF82BB11BA1BBA15BA8091FE
:10025000620080618093620080916200816080937F
:100260006200DF91CF9108958D7F80936200D3CF9C
:10027000CF93DF93EC01809162008E7F80936200C8
:10028000809162008260809362008FEF82BB11BA1E
:1002900080916200806880936200CE010E945A00C3
:1002A0008091620081608093620080916200D7FD3E
:1002B00010C082608093620082E08A95F1F700C0EE
:1002C00080B390916200926090936200DF91CF9131
:1002D00008958D7F80936200EFCF1F920F920FB62B
:1002E0000F9211242F933F934F935F936F937F93BC
:1002F0008F939F93AF93BF93EF93FF935F9B05C043
:100300008CB10E9478025F99FBCFFF91EF91BF9172
:10031000AF919F918F917F916F915F914F913F919D
:100320002F910F900FBE0F901F901895CF93DF93D2
:1003300064E070E082E10E943902C69A1BBA15BAE5
:10034000C2E6D0E088818061888382E08A95F1F7F7
:1003500000C081B182FB882780F90E9461021BBA2C
:1003600084E085BB88818061888382E08A95F1F78B
:1003700000C081B182FB882780F90E9461021BBA0C
:1003800088E085BB88818061888382E08A95F1F767
:1003900000C081B182FB882780F90E9461021BBAEC
:1003A0008CE085BB88818061888382E08A95F1F743
:1003B00000C081B182FB882780F90E9461021BBACC
:1003C00015BA888180618883DF91CF91089581E09B
:1003D00089B91092900088E98AB9E5E9F0E0808156
:1003E0008660808308955D9BFECF8CB90895982F19
:1003F00092959F709A3070F4905D8F708A3040F4BF
:10040000805D5D9BFECF9CB95D9BFECF8CB908954E
:10041000895CF7CF995CF1CFFC019081992339F089
:1004200031965D9BFECF9CB991919111FACF0895C1
:10043000411551056105710551F0FC01480F591F27
:1004400081915D9BFECF8CB9E417F507C9F708953C
:1004500090910801382F28E05CE8492F43279695B2
:1004600040FD952736952150C1F7909308010C94D3
:10047000F3011F93CF93DF93182FEB011092080124
:1004800086E40E942802812F0E9428028C2F0E945D
:1004900028028D2F0E942802D0930701C0930601E5
:1004A0001092050110920401CD2B21F0DF91CF9124
:1004B0001F91089580910801DF91CF911F910C94B5
:1004C000F3010E9428028091040190910501019698
:1004D000909305018093040120910601309107015A
:1004E0008217930709F00895809108010C94F30195
:1004F00090910001992319F0863409F00895109223
:10050000000160910201709103016115710559F1BB
:1005100090910101382F28E05CE8432F49279695F8
:1005200040FD952736952150C1F790930101613028
:10053000710509F447C0DCF062307105E9F1633000
:10054000710539F52091090130910A01A901582B53
:1005500050930A01409309016F5F7F4F709303012D
:1005600060930201089510920B0190E0D3CF6115C2
:10057000710579F4863481F381E08093000160E0B5
:1005800070E082E00E9439026091020170910301E3
:10059000E3CF9B0124503109283058E0350738F566
:1005A0004091090150910A012417350770F4F901AF
:1005B000E35FFE4F8083D0CF90E090930A01809359
:1005C0000901CACF80930C01C7CF40910901509116
:1005D0000A012417350709F0BFCF81E0911113C03C
:1005E00080930B0110920301109202010895109262
:1005F00003011092020181E08093000160E070E04D
:1006000084E00C9439028093000160E070E083E0A4
:100610000E943902E7CF109203011092020110925A
:100620000B01109200010895CF93DF9300D000D00A
:10063000CDB7DEB778940E94E70187B3806C87BBA3
:1006400087EB809361008FEF8093620012981A9A73
:1006500082BB11BA1BBA15BA909162009061909357
:1006600062008ABB84BBBC98C498C798C6980E9495
:100670000B0360E070E080E00E9439026EE6C62E57
:10068000D12C22242A948FB589628FBD8EB58160CA
:100690008EBD20E030E0E0E041E050E060E070E05E
:1006A00080910B01811138C08FB589628FBD8EB5E5
:1006B00081608EBD403187E258076105710508F4FD
:1006C00050C0E11153C0C90101968E3691050CF45A
:1006D00055C0E1E09C012456310939BD28BD9C017B
:1006E000C601821B930B853191050CF059C08B30EC
:1006F00091052CF044E150E0481B590BCA01880FCA
:10070000991F909379008093780040E050E0BA01FF
:1007100080910B01882341F210920B011092790015
:100720001092780019BC18BC1FBC80910C01833159
:1007300009F4A4C2C8F1853209F4C2C208F457C052
:10074000873209F40AC408F4FCC2883209F4B1C340
:100750008E3F09F098CFF89414BEE0E0F8EF0995C9
:1007600092CF4F5F5F4F6F4F7F4F9ACF215031092C
:1007700089F4E0E040E050E0BA0192CF8436910580
:1007800024F02356310939BD28BD9C0140E050E0DA
:10079000BA0186CF243631050CF4A2CFC9019ACF15
:1007A00040E050E0BA017CCF893009F4F7C008F08E
:1007B00064C0863009F453C1873009F41DC1853007
:1007C00009F061CF65E070E080E00E94390282E0CC
:1007D0000E94610280E00E94610280E80E94610242
:1007E00080E00E94610288E00E9461024CCF833267
:1007F00009F401C208F039C1823209F044CF0091F6
:100800000D0180910E0110E0182B30910F013983FA
:1008100080911001432F50E0582B5A834983C69A88
:10082000C49AC39ABC9ABB9A69817A8188E00E9473
:10083000390289819A81892B71F0C8010E948A004E
:100840000E946102E981FA813197FA83E9830F5F9F
:100850001F4FEF2B91F71BBA15BA80916200806190
:100860008093620080916200826080936200C49AEB
:10087000C39ABC98C498C69806CF8D30C9F181310F
:10088000A1F18B3009F0FFCE00910D0180910E0196
:1008900010E0182BF0910F01F983809110012F2F98
:1008A00030E0382B3A832983C69A69817A818CE0BB
:1008B0000E94390249815A81452B71F0C8010E947A
:1008C0006A000E94610289819A8101979A838983D3
:1008D0000F5F1F4F892B91F71BBA15BA80916200E9
:1008E000806180936200C698CECE0E949601CBCEE6
:1008F00000910D0180910E0110E0182B30910F0135
:10090000398380911001432F50E0582B5A8349833B
:10091000C79A452BE1F181E1E82E81E0F82EF7013D
:1009200091917F01809162008E7F8093620080911F
:10093000620082608093620021BA92BBC8010E946B
:100940005A00809162008B7F80936200F2E0FA95FA
:10095000F1F700C08091620084608093620022BA47
:1009600011BA1BBA15BA809162008061809362004F
:10097000809162008160809362000F5F1F4F298128
:100980003A81215031093A832983232B41F6C798B4
:1009900060E070E08EE00E94390275CE00910D019A
:1009A00080910E0110E0182B30910F013983809156
:1009B0001001432F50E0582B5A834983C79A452B87
:1009C000A1F0B1E1EB2EB1E0FB2EF70161917F01C7
:1009D000C8010E94E3000F5F1F4F29813A81215017
:1009E00031093A832983232B81F7C79860E070E0AF
:1009F0008AE00E94390247CE00910D0180910E01DC
:100A000010E0182B50910F01598380911001E52FB0
:100A1000F0E0F82BFA83E983C69A69817A8188E04D
:100A20000E94390229813A81232B09F455CFC8014C
:100A30000E9438010E94610249815A814150510946
:100A40005A8349830F5F1F4F452B89F71BBA15BA8D
:100A500080916200806180936200C69814CE60E04D
:100A600070E081E00E9439020ECE90910D019983D1
:100A700080910E01E92FF0E0F82BFA83E9830091D1
:100A80000F018091100110E0182BC79A0115110574
:100A900009F4AAC0F1E16F2EF1E07F2E29813A819D
:100AA000207E2301F301E980FA80B12C06C0C70142
:100AB000807E2817390709F045C081918F3F09F0E2
:100AC000B3944FEFE41AF40A015011093F0179F78A
:100AD000BB2009F489C060EF80E090E00E94B00084
:100AE0006AEA8AEA9AE00E94B00065E585E595E049
:100AF0000E94B00065E280E090E00E94B000BA94ED
:100B00006B2D80E090E00E94B000F20161912F0116
:100B10006F3F89F089819A810E94B00089819A8112
:100B20000196BB20A1F09A838983BA94F201619166
:100B30002F016F3F79F729813A812F5F3F4F3A8329
:100B40002983E3CFB110C7CFFA82E982A7CF69E248
:100B500080E090E00E94B00029813A8130683C83B7
:100B60002B83EFE98E2EE6E89E2EAA24A394B12CC7
:100B7000A201415051095A8349830BC041FC6BC209
:100B800045FC59C251E0851A9108A108B10809F441
:100B90004BC28B819C810E948A00482E8B819C8154
:100BA0000E948A00582E8B819C810E948A00382ED8
:100BB000842D852586FF04C0852D832586FDDECF07
:100BC0008B819C810E948A00582E8B819C810E947F
:100BD0008A005812D7CFE981FA8180815812D2CF8A
:100BE0000115110509F0B0CF60E070E08AE00E94C5
:100BF0003902C79848CDC79A60EF80E090E00E9424
:100C0000B0006AEA8AEA9AE00E94B00065E585E5EC
:100C100095E00E94B00060E88AEA9AE00E94B00085
:100C20006AEA8AEA9AE00E94B00065E585E595E007
:100C30000E94B00060E380E090E00E94B00080E09D
:100C400090E80E948A008983AFE38A2EA2E49A2E5C
:100C5000AFE0AA2EB12C51E0851A9108A108B10885
:100C600009F403C280E090E80E948A008B834981E6
:100C70004827447409F4BCC18983EDCFC79AC69A4A
:100C8000809162008E7F809362008091620082601A
:100C900080936200FFEF20E732E0F15020403040C7
:100CA000E1F700C0000080916200816080936200E3
:100CB000C798C69860E070E084E10E943902E3CCF6
:100CC000C79A60EF80E090E80E94E3006AEA8AEA4F
:100CD0009AE80E94E30065E585E595E80E94E30057
:100CE00060E88AEA9AE80E94E3006AEA8AEA9AE8F7
:100CF0000E94E30065E585E595E80E94E30060E376
:100D000080E090E80E94E30080E090E80E943801D3
:100D100089837FE3872E72E4972E7FE0A72EB12C84
:100D200021E0821A9108A108B10809F49EC180E06F
:100D300090E80E943801F9818F1709F467C189830F
:100D4000EFCFA0900D0180910E01B12CB82A009137
:100D50000F018091100110E0182BC79A01151105A1
:100D600009F4A0C061E1662E61E0762E9501207E37
:100D70002301F3017501912C06C0C701807E28175D
:100D8000390709F043C081918F3F09F093944FEFE9
:100D9000E41AF40A015011093F0179F7992009F486
:100DA00081C060EF80E090E80E94E3006AEA8AEA8E
:100DB0009AE80E94E30065E585E595E80E94E30076
:100DC00065E280E090E80E94E3009A94692D80E05B
:100DD00090E80E94E300F20161912F016F3F91F0D2
:100DE000950130683C832B83C9010E94E3003FEFEB
:100DF000A31AB30A992071F09A94F20161912F011C
:100E00006F3F71F73FEFA31AB30AE5CF9110C9CF37
:100E10005701ACCF69E280E090E80E94E3005FE90F
:100E2000852E56E8952EAA24A394B12CA2014150F8
:100E300051095A8349830BC041FC0DC145FCFBC0DD
:100E400051E0851A9108A108B10809F4EDC08B8121
:100E50009C810E943801482E8B819C810E94380120
:100E6000582E8B819C810E943801382E842D852537
:100E700086FF04C0852D832586FDDECF8B819C8176
:100E80000E943801582E8B819C810E943801581293
:100E9000D7CFE981FA8180815812D2CF011511058F
:100EA00009F0B6CF60E070E08AE00E943902C7988E
:100EB000EACBE0900D0180910E01F12CF82A00910F
:100EC0000F018091100110E0182BC69A0115110531
:100ED00009F4C5C01A821982C7010E946A00E9811B
:100EE000FA81E827FA83E98388E090E00CC0298141
:100EF0003A813695279541E0242740EA34273A8302
:100F00002983019759F0F981F0FDF1CFE981FA8148
:100F1000F695E795FA83E9830197A9F7015011093E
:100F2000FFEFEF1AFF0A01151105B1F619812A81A9
:100F300029831BBA15BA8091620080618093620098
:100F400062E070E08CE00E943902812F0E94610211
:100F500089810E946102C69896CBE0900D01809134
:100F60000E01F12CF82A00910F018091100110E080
:100F7000182BC69A0115110509F474C01A8219823A
:100F8000C7010E943801E981FA81E827FA83E983E1
:100F900088E090E00CC029813A813695279541E0A0
:100FA000242740EA34273A832983019759F0F981AD
:100FB000F0FDF1CFE981FA81F695E795FA83E983AF
:100FC0000197A9F701501109FFEFEF1AFF0A011568
:100FD0001105B1F619812A8129831BBA15BA8091AE
:100FE000620080618093620062E070E088E0ABCFD5
:100FF0008B818F3F09F4F8CD61E070E08BE20E94B5
:1010000039028B810E946102C7983DCB39813F3FF5
:1010100009F4EACD61E070E08BE20E943902898137
:101020000E946102C7982FCB60E070E08AE20E94C4
:101030003902C79828CB63E070E08AE20E94390247
:10104000842D0E946102852D0E946102832D0E94E1
:101050006102C79818CB63E070E089E2EFCF198294
:1010600010E067CF198210E0B8CF60E070E08CE24A
:0C1070000E943902C79807CBF894FFCF0C
:00000001FF
