:100000000C94C6010C94E3010C94E3010C94E301FD
:100010000C94E3010C94E3010C94E3010C94E301D0
:100020000C94E3010C94E3010C94E3010C94E301C0
:100030000C94E3010C94E3010C94E3010C94E301B0
:100040000C94E3010C94E3010C9462080C94E3011A
:100050000C94E3010C94E3010C94E3010C94E30190
:100060000C94E3010C94E3010C94E3010C94E30180
:100070000C94E3010C94E3010C94E3010C94E30170
:100080000C94E3010C94E3010C94E301005EBCE2E8
:10009000613FDD83C29C7E20A3FD1F419DC3217F64
:1000A000FCA2401E5F01E3BD3E6082DC237D9FC158
:1000B000421CFEA0E1BF5D0380DE3C62BEE0025C4C
:1000C000DF81633D7C22C09E1D43A1FF4618FAA438
:1000D00027799BC584DA3866E5BB5907DB85673924
:1000E000BAE406581947A5FB7826C49A653BD98718
:1000F000045AB8E6A7F91B45C6987A24F8A6441A0C
:1001000099C7257B3A6486D85B05E7B98CD2306EF7
:10011000EDB3510F4E10F2AC2F7193CD114FADF3E3
:10012000702ECC92D38D6F31B2EC0E50AFF1134DD7
:10013000CE90722C6D33D18F0C52B0EE326C8ED0CB
:10014000530DEFB1F0AE4C1291CF2D73CA947628B7
:10015000ABF517490856B4EA6937D58B5709EBB5A3
:1001600036688AD495CB2977F4AA4816E9B7550B97
:1001700088D6346A2B7597C94A14F6A8742AC8968B
:10018000154BA9F7B6E80A54D7896B350000C1C0F2
:1001900081C1400101C3C003800241C201C6C00643
:1001A000800741C70005C1C581C4400401CCC00C13
:1001B000800D41CD000FC1CF81CE400E000AC1CAD3
:1001C00081CB400B01C9C009800841C801D8C018C3
:1001D000801941D9001BC1DB81DA401A001EC1DE43
:1001E00081DF401F01DDC01D801C41DC0014C1D433
:1001F00081D5401501D7C017801641D601D2C01253
:10020000801341D30011C1D181D0401001F0C03022
:10021000803141F10033C1F381F240320036C1F642
:1002200081F7403701F5C035803441F4003CC1FC12
:1002300081FD403D01FFC03F803E41FE01FAC03AD2
:10024000803B41FB0039C1F981F840380028C1E802
:1002500081E9402901EBC02B802A41EA01EEC02E42
:10026000802F41EF002DC1ED81EC402C01E4C02432
:10027000802541E50027C1E781E640260022C1E252
:1002800081E3402301E1C021802041E001A0C06062
:10029000806141A10063C1A381A240620066C1A642
:1002A00081A7406701A5C065806441A4006CC1AC12
:1002B00081AD406D01AFC06F806E41AE01AAC06AD2
:1002C000806B41AB0069C1A981A840680078C1B8C2
:1002D00081B9407901BBC07B807A41BA01BEC07E42
:1002E000807F41BF007DC1BD81BC407C01B4C07432
:1002F000807541B50077C1B781B640760072C1B252
:1003000081B3407301B1C071807041B00050C190A1
:10031000819140510193C053805241920196C05641
:10032000805741970055C19581944054019CC05C11
:10033000805D419D005FC19F819E405E005AC19AD1
:10034000819B405B0199C059805841980188C04801
:1003500080494189004BC18B818A404A004EC18E41
:10036000818F404F018DC04D804C418C0044C18431
:10037000818540450187C047804641860182C04251
:10038000804341830041C1818180404011241FBED0
:10039000CFEFD0E1DEBFCDBF12E0A0E0B1E0E2EAF6
:1003A000FBE202C005900D92AA30B107D9F71AE01E
:1003B000AAE0B2E001C01D92A731B107E1F70E94A7
:1003C0008B080C94CF150C9400008BBB95BB95FD4E
:1003D00006C08091620080618093620008958091E0
:1003E00062008F7E8093620008950F931F938C01AB
:1003F000809162008E7F80936200809162008260B3
:10040000809362008FEF82BB11BA80916200806896
:1004100080936200C8010E94E501809162008160C2
:100420008093620017FD15C0809162008260809306
:100430006200C39AC49A82E08A95F1F780B39091E2
:100440006200926090936200C39AC49A1F910F91C8
:100450000895809162008D7F80936200C39AC49852
:10046000EACF0F931F9302E610E0F80120812E7F60
:1004700020832081226020832FEF22BB11BA0E94AB
:10048000E501F80180818F7D808382E08A95F1F714
:1004900080B39081906290839081916090831F914E
:1004A0000F9108950F931F938C01809162008E7FAE
:1004B00080936200809162008260809362008FEF7F
:1004C00081BB809162008F778093620062BBC8011C
:1004D0000E94E50182E08A95F1F7809162008160D7
:1004E0008093620017FD2DC080916200826080932E
:1004F0006200C39AC49A92E0892F8A95F1F780919D
:1005000062008E7F8093620080916200826080939F
:100510006200C39AC49A9A95F1F78091620080684C
:10052000809362008FEF82BB11BA80E090E00E945E
:10053000E501809162008160809362001F910F91BC
:100540000895809162008D7F80936200C398C49A61
:10055000D2CFFF920F931F93CF93DF938C01F62E90
:10056000EA011DBC1CBC069B16C08CB59DB5845908
:100570009849C8F385E290E466E00E94520280E365
:1005800060E070E00E94A30D80E0DF91CF911F91A9
:100590000F91FF9008950115110531F081E390E46A
:1005A0000E94F501F801808384E290E46F2D0E949F
:1005B000520280E390E40E94F501982F209739F0D1
:1005C00092959695969591708881892B88831DBC0C
:1005D0001CBC069906C08CB59DB584599849C8F3D2
:1005E000C9CF81E0D2CF6F927F928F929F92AF92CC
:1005F000BF92CF92DF92EF92FF920F931F93DF9300
:10060000CF930F92CDB7DEB75C016B0179018A0100
:100610001982C79A85E290E465E00E94520282E363
:1006200090E40E94F50185E290E461E00E945202AC
:1006300020E3E21625E7F20620E0020720E0120799
:1006400008F06CC0C801B70120E432E44FE050E08C
:100650000E9457152DE43FE44BE150E00E947615CF
:10066000CA01B9010E94E9123B014C012BEA3AEAA6
:100670004AE250E40E945F107B018C0120E030E0F0
:1006800040E85FE30E94651288230CF407C1C801AB
:10069000B70120E030E04FE753E40E94051218163E
:1006A0000CF0DFC0C401B30120E030E04AE754E4BD
:1006B0000E9459113B014C0120E030E04AEF54E424
:1006C0000E945F107B018C0120E030E040E85FE396
:1006D0000E94651288230CF4AAC0C801B70120E06B
:1006E0003FEF4FE757E40E94051218160CF04EC07A
:1006F000C401B30120E030E040E251E40E945F1009
:100700000E94890ECB01672B09F447C028EC30E02A
:10071000F9013197F1F70197D9F73FC0C801B70147
:1007200028EE33E040E050E00E947615CA01B9019E
:1007300020E432E44FE050E00E9457152DE43FE4FE
:100740004BE150E00E947615CA01B9010E94E912FE
:100750003B014C0120E030E04AEF54E40E945F107E
:100760007B018C0120E030E040E85FE30E946512ED
:1007700088230CF45CC0C801B70120E03FEF4FE7CD
:1007800057E40E94051218160CF472C0C801B70194
:100790000E94890ECB010197F1F784E290E460E0BA
:1007A0000E94520285E290E461EC0E94520280E0D5
:1007B00090E060E88E010F5F1F4FA8010E94A90220
:1007C000C114D104B9F18981882369F03EC008942D
:1007D000C108D108C114D10469F189818823A9F520
:1007E0000894A11CB11C80E090E0F5016081A80193
:1007F0000E94A902882359F785E290E466E00E94EE
:10080000520280E360E070E00E94A30D80E00F9050
:10081000CF91DF911F910F91FF90EF90DF90CF90DC
:10082000BF90AF909F908F907F906F90089561E000
:1008300070E0B0CF80E090E06FEFA8010E94A902C5
:100840008823D1F28981882359F185E290E466E01A
:100850000E94520284E360E070E00E94A30D80E0F9
:10086000D6CFC801B7010E94890E6A95F1F795CFDE
:10087000C401B30120E030E040E251E40E945F1087
:100880000E94890ECB01672B09F487CF28EC30E05A
:10089000F9013197F1F70197D9F77FCF61E0E5CF03
:1008A00085E290E461ED0E9452028AEE93E00197A6
:1008B000F1F71DBC1CBC82E390E40E94F50181FFAE
:1008C00006C08CB59DB584589E41A8F395CFC798B6
:1008D00081E09DCF2F923F924F925F926F927F92D5
:1008E0008F929F92AF92BF92CF92DF92EF92FF9240
:1008F0000F931F93DF93CF9300D000D0CDB7DEB717
:100900004C016A835C834B831901380185E290E4D2
:1009100065E00E94520280E3C81685E7D80680E0B1
:10092000E80680E0F80608F06CC0C701B60120E4D4
:1009300032E44FE050E00E9457152DE43FE44BE1D4
:1009400050E00E947615CA01B9010E94E9125B01CC
:100950006C012BEA3AEA4AE250E40E945F107B0104
:100960008C0120E030E040E85FE30E9465128823BC
:100970000CF44BC1C801B70120E030E04FE753E46D
:100980000E94051218160CF023C1C601B50120E023
:1009900030E04AE754E40E9459115B016C0120E009
:1009A00030E04AEF54E40E945F107B018C0120E0AC
:1009B00030E040E85FE30E94651288230CF4A1C098
:1009C000C801B70120E03FEF4FE757E40E9405124E
:1009D00018160CF04EC0C601B50120E030E040E230
:1009E00051E40E945F100E94890ECB01672B09F42D
:1009F00047C028EC30E0F9013197F1F70197D9F7BA
:100A00003FC0C701B60128EE33E040E050E00E944D
:100A10007615CA01B90120E432E44FE050E00E94AB
:100A200057152DE43FE44BE150E00E947615CA01D2
:100A3000B9010E94E9125B016C0120E030E04AEF4D
:100A400054E40E945F107B018C0120E030E040E81C
:100A50005FE30E94651288230CF453C0C801B701FC
:100A600020E03FEF4FE757E40E94051218160CF400
:100A7000B6C0C801B7010E94890ECB010197F1F7FA
:100A8000EA81EE2309F074C085E290E465EC0E94EF
:100A900052025401CC24DD24A114B104C104D104B8
:100AA00009F446C0EE24FF2487012E010894411C5E
:100AB000511C0AC00894E11CF11C011D111DEA140F
:100AC000FB040C051D05A0F5C20160E0A1010E9418
:100AD000A9028823A9F16114710461F0FDE0EF1609
:100AE000F1040105110581F0FEE0EF16F1040105A6
:100AF0001105A1F0FA81FF23E9F289810E948B0D93
:100B0000D9CF61E070E0B9CF298130E0F301808175
:100B10009181822B932B91838083ECCF99808824C1
:100B2000F301808191818829992991838083E2CF83
:100B300080E090E060E0A1010E94A902882301F515
:100B400080E00F900F900F900F90CF91DF911F9149
:100B50000F91FF90EF90DF90CF90BF90AF909F905C
:100B60008F907F906F905F904F903F902F9008955F
:100B7000C69AB4016E5F7F4F8EE20E94A30D84CFB0
:100B800085E290E465ED0E94520280E090E060E032
:100B9000A1010E94A902882399F280E390E40E94B7
:100BA000F50182958F70282F20952170EB81FC81B3
:100BB000908192239083869586958170F101908132
:100BC000982B9083FA81FF2311F5C69881E0B9CF65
:100BD000C801B7010E94890E6A95F1F751CFC6018D
:100BE000B50120E030E040E251E40E945F100E9435
:100BF000890ECB01672B09F443CF28EC30E0F901D3
:100C00003197F1F70197D9F73BCF61E0E5CFEB8161
:100C1000FC8180810E948B0DF10180810E948B0DEF
:100C2000D4CF2F923F924F925F926F927F928F928A
:100C30009F92AF92BF92CF92DF92EF92FF920F936B
:100C40001F93DF93CF9300D000D00F92CDB7DEB7C4
:100C5000882EA62E942E29011801370181E0898360
:100C60001A8282E290E460E00E94520283E290E401
:100C700061E00E94520285E290E466E00E94520226
:100C800086E290E460E00E94520280E090E06FEF24
:100C90000E94520283E390E40E94F501182F86E23D
:100CA00090E46FEF0E94520280E090E060E00E94CA
:100CB000520283E390E40E94F5018F778F37E9F0C9
:100CC00081E360E070E00E94A30D0F900F900F9001
:100CD0000F900F90CF91DF911F910F91FF90EF90A8
:100CE000DF90CF90BF90AF909F908F907F906F904C
:100CF0005F904F903F902F900895812F90E08F77D5
:100D00009070892BE9F682E390E40E94F50180FD62
:100D10002CC185E290E465E00E94520228EE33E0A7
:100D200048EC50E0CA010197F1F721503040D1F76B
:100D300083E390E40E94F50187FF1DC11DBC1CBC2C
:100D400010E08CB59DB584589E4130F01DBC1CBC94
:100D50001F5F1F3008F01AC182E390E40E94F50182
:100D600081FFEFCF1DBC1CBC10E08CB59DB5845835
:100D70009E4130F01DBC1CBC1F5F1F3008F006C137
:100D800082E390E40E94F50181FDEFCF992029F0E4
:100D9000F2018081882309F406C1882009F001C18D
:100DA0006A2DA11061E088E390E0AE014F5F5F4FD4
:100DB0009E012E5F3F4F00E010E0FEE3CF2EFEE6E7
:100DC000DF2EF7E0EF2EF12C0E946A04882309F44D
:100DD0007CCF1D82882011F4A110AA9499819923B7
:100DE00009F425C18A81882309F021C1AA2009F0CC
:100DF00039C1992009F41BC12D81A22FB0E0F20165
:100E0000EA0FFB1F8081813009F444C1E1E0E8155D
:100E100008F02CC160E082E090E0AE014F5F5F4FD0
:100E20009E012E5F3F4F00E010E072E4C72E73E298
:100E3000D72EE12CF12C0E946A04882309F445CFB7
:100E4000F1E0F81508F018C102E0B02E998199235D
:100E500009F46EC08A81882309F06AC0AA2009F0CB
:100E6000B6C0992009F464C01C821B822D81A22F78
:100E7000B0E0F201EA0FFB1F80818B1509F4B9C0C5
:100E8000B81408F0ACC060E080E190E0AE014F5FC4
:100E90005F4F9E012E5F3F4F8E010D5F1F4FF2E4AB
:100EA000CF2EF3E2DF2EE12CF12C0E946A0488237E
:100EB00009F40BCFB81410F0A110AA94B39499813F
:100EC000992329F28A81882311F6AA2009F08DC07E
:100ED000992009F4BCCFED81AE2FB0E0F201EA0F0A
:100EE000FB1F80818B1509F4A5C08B819C81B814F0
:100EF00008F097C060E00196AE014F5F5F4F9E0122
:100F00002E5F3F4F00E010E072E4C72E73E2D72E51
:100F1000E12CF12C0E946A04882309F4D6CEB8147F
:100F200010F0A110AA94B3949981992309F092CF5B
:100F300085E290E466E00E94520224EF31E048EC42
:100F400050E0CA010197F1F721503040D1F72D81CF
:100F5000222329F0992019F4AA2009F495C08FE2E0
:100F600060E070E00E94A30DB0CE83E360E070E02B
:100F70000E94A30DAACE85E290E466E00E94520290
:100F800082E360E070E00E94A30D9FCE85E290E4D2
:100F900066E00E94520280E360E070E00E94A30DD0
:100FA00094CE60E000CFF10100811181C301B8014E
:100FB00020EA39ED48E050E00E94F302882309F46A
:100FC00084CE600E711E9A94F1E0FD8303CF1C82E3
:100FD0001B82992009F04ACFB81408F454CF6A2D27
:100FE000AA2009F451CF61E04FCF992009F47DCFB9
:100FF00072CFAA0FBB1FA20DB31D0D911C91C3018F
:10100000B8012DEF35E440E050E00E94F302882360
:1010100009F45BCE600E711E8D818F5F8D839A9473
:1010200049CF6A2DAA2009F466CF61E064CFBB24C2
:10103000B3940DCFAA0FBB1FA20DB31D0D911C9130
:10104000C301B8012DEF35E440E050E00E94F30207
:10105000882309F43ACE600E711EFD81FF5FFD8387
:101060009A945DCF992009F4D1CEC6CE6A2DAA20DC
:1010700009F4D1CE61E0CFCEAA2009F4E5CEAA943E
:1010800082E0B82E9981E3CE86E360E070E00E94B2
:10109000A30D1BCEAA0FBB1FA20DB31D0D911C915A
:1010A000C301B8012DEF35E440E050E00E94F302A7
:1010B000882309F40ACE600E711E8D818F5F8D83A7
:1010C0009A94BECE1F920F920FB60F9211242F93B7
:1010D0003F934F935F936F937F938F939F93AF93C0
:1010E000BF93EF93FF935F9B05C08CB10E94C80D27
:1010F0005F99FBCFFF91EF91BF91AF919F918F913E
:101100007F916F915F914F913F912F910F900FBE03
:101110000F901F9018952F923F924F925F926F926F
:101120007F928F929F92AF92BF92CF92DF92EF9277
:10113000FF920F931F93DF93CF93CDB7DEB7A097A6
:101140000FB6F894DEBF0FBECDBF78940E94290D74
:1011500087B3806C87BB87EB809361001FEF109390
:10116000620012981A9A12BB11BA80E090E00E94B5
:10117000E5011ABB14BB87B3886187BB88B388615C
:1011800088BBC798C6980E94740D80E060E070E04C
:101190000E94A30D2224239488EC482E512C8FB555
:1011A00089628FBD2EBC21E030E040E050E0E0E0FD
:1011B00060E070E080911502882309F041C08FB58E
:1011C00089628FBD2EBC203187E2380780E0480756
:1011D00080E0580708F471C0EE2309F078C06F5F13
:1011E0007F4F6E3671050CF0E1E06436710534F026
:1011F0006456704079BD68BD6C597F4FEE2309F489
:1012000061C08EE690E0861B970B853191050CF04E
:1012100059C08B3091052CF024E130E0281B390BAC
:10122000C901880F991F909379008093780020E07E
:1012300030E040E050E080911502882309F4BFCFF0
:101240001092150210927900109278008091780027
:101250009091790099BD88BD88B599B58FBD35E06D
:101260003EBD80911602833209F4BCC28432C8F5B7
:101270008B3009F449C28C3008F0B5C0863009F4CF
:1012800075C2873008F02CC38530A1F480E065E09A
:1012900070E00E94A30D83E00E948B0D8BEF0E94F3
:1012A0008B0D87E00E948B0D8BEF0E948B0D87E0EA
:1012B0000E948B0DC698C79872CF2F5F3F4F4F4F3C
:1012C0005F4F78CF20E030E040E050E073CF6150D6
:1012D000704009F08ACF20E030E040E050E0E0E0EC
:1012E00069CF883209F448C2893208F065C0853276
:1012F00009F478C2853208F433C1863209F430C16A
:101300008732C1F690911702809118028E831D8258
:10131000E92EFF24ED81FE81EE2AFF2A9091190229
:1013200080911A0288871F82092F10E02F8138854B
:10133000022B132BC69A3FEF32BB11BA8091620089
:101340008068809362008091620081608093620077
:10135000F7FC64C380916200826080936200011593
:10136000110509F464C380E090E0EBBAF5BA22E01D
:101370002A95F1F760B30E94780E0150104008944E
:10138000E11CF11C0115110581F78C0180916200AF
:1013900082608093620080E090E00E94E50188E036
:1013A00062E070E00E94A30D802F0E948B0D812FC0
:1013B0000E948B0DC6987ECF853309F4B7C0863363
:1013C00008F05BC28D3209F075CF809117026091F1
:1013D000180240E020E030E000E010E0EE24FF24BE
:1013E0000E94110667CF813109F461C0823108F093
:1013F000AFC28D3009F05ECF3091170220911802F4
:101400009091190280911A028A8F198EE92EFF2479
:10141000498D5A8DE42AF52AC79AE114F10409F49A
:101420003FC02C8F1B8E032F10E08B8D9C8D082BC3
:10143000192BCC24DD24F601E95EFD4F94818091C7
:1014400062008E7F80936200809162008260809350
:101450006200EFEFE1BB92BBC601800F911F0E94BB
:10146000E501809162008B7F8093620082E08A9523
:10147000F1F780916200846080936200FFEFF2BB1D
:1014800011BA80E090E00E94E501809162008160E5
:10149000809362000894C11CD11CEC14FD0459F621
:1014A000C7988EE060E070E00E94A30D03CF82E158
:1014B00064E070E00E94A30DC69A80E090E00E9474
:1014C000E50182E08A95F1F781B186958695817074
:1014D0000E948B0D80E094E00E94E50182E08A95F5
:1014E000F1F781B18695869581700E948B0D80E021
:1014F00098E00E94E50182E08A95F1F781B1869536
:10150000869581700E948B0D80E09CE00E94E50131
:1015100082E08A95F1F781B18695869581700E9467
:101520008B0D80E090E00E94E501C4CE409117024F
:101530000091170280911702E091170210E0085EF7
:101540001D4FF0E0EE0FFF1FE80FF11DE85EFD4FAD
:1015500080E060E028E132E07F010E941106AACE1F
:1015600030911702209118029091190280911A026D
:101570008E871D86492F50E08D859E85482B592BDF
:1015800058A34F8FC79A452B09F454C2288B1F8646
:10159000E32EFF24EF85F889EE2AFF2A1BE1812E36
:1015A00012E0912E3324662477242091000130919B
:1015B0000101A701422353235701640100E010E019
:1015C00006C0C501822393234817590799F4F601F1
:1015D00080818F3F11F00F5F1F4F0894A11CB11C39
:1015E0008F8D98A1019798A38F8F0894C11CD11C4F
:1015F000892B39F70115110541F42F8D38A1232BC3
:1016000009F418C275014601D0CF80E090E860EF80
:101610000E9452028AEA9AE86AEA0E94520285E52A
:1016200095E865E50E94520280E090E865E20E943C
:101630005202602F615080E090E80E94520206C082
:101640000894E11CF11C0894811C911CF401608138
:101650006F3F49F0C70190680E945202F401308048
:101660000150104037010115110551F780E090E855
:1016700069E20E9452021DBC1CBC830110688CB53B
:101680009DB584589E41C8F5C8010E94F501E82E19
:10169000C8010E94F501F82EC8010E94F501982E9C
:1016A0008F2D8E2586FF18C0892D8F2586FF14C0AB
:1016B000E1FCC7C1E5FEE3CF8AE263E070E00E948F
:1016C000A30D8E2D0E948B0D8F2D0E948B0D892DC9
:1016D0000E948B0DC798EECDC8010E94F501F82E2F
:1016E000C8010E94F501F81651F63F1409F485CFA0
:1016F0008CB59DB584589E4138F28AE260E070E076
:101700000E94A30DC798D6CD009117021091180220
:101710009091190280911A028A8B198AE92EFF246E
:1017200049895A89E42AF52AC69A8CE0B7010E94B1
:10173000A30DE114F104A1F01C8B1B8A10E08B892E
:101740009C89082B192BC8010E9431020E948B0D25
:101750000894E108F1080F5F1F4FE114F10499F7B5
:1017600080E090E00E94E501C698A4CD81E060E0B1
:1017700070E00E94A30D9ECD3091170220911802B7
:101780009091190280911A028E8B1D8AE92EFF24F6
:10179000ED89FE89EE2AFF2AC69AE114F10409F4C4
:1017A00052C1288F1F8A032F10E02F89388D022BFA
:1017B000132BCC24DD24C8010E943102682FC601FE
:1017C0000E94780E6C010894E108F1080F5F1F4F2A
:1017D000E114F10481F78C0180E090E00E94E501C2
:1017E0008CE0DECDC79A80E090E860EF0E94520264
:1017F0008AEA9AE86AEA0E94520285E595E865E578
:101800000E9452028AEA9AE860E80E9452028AEA3A
:101810009AE86AEA0E94520285E595E865E50E9429
:10182000520280E090E860E30E9452021DBC1CBCA2
:101830008CB59DB58D589B45C8F40FEF1FEF02C0C6
:101840000F2D10E080E090E80E94F501F82EFFEFE8
:101850000F3F1F0731F090E010708017910709F4D7
:10186000D0C08CB59DB58D589B4550F38CE260E09F
:1018700070E00E94A30DC7981DCD873349F08E3FBD
:1018800009F018CDF89414BEE0E0F8EF099512CDF8
:1018900090911702809118028E8F1D8E892F90E0F3
:1018A0002D8D3E8D822B932B8230910508F4CEC076
:1018B00020E0969587952F5F82309105D0F78FEFC6
:1018C0009FEF02C0880F991F2A95E2F790930101BC
:1018D0008093000188E360E070E00E94A30DEACCF1
:1018E0008730D9F1893009F0E5CC30911702209189
:1018F00018029091190280911A028A871986E92E9E
:10190000FF2449855A85E42AF52AC79AE114F1048F
:10191000C1F02C871B86C32EDD248B859C85C82AAD
:10192000D92A00E010E0F801E95EFD4FC8018C0DF6
:101930009D1D64810E9452020F5F1F4FE016F10649
:1019400091F7C7988AE060E070E00E94A30DB2CCE6
:101950008331B1F1823209F0ADCC009117021091C0
:1019600018029091190280911A028A831982E92E35
:10197000FF2449815A81E42AF52AC69A88E0B701F2
:101980000E94A30DE114F10409F4EACE1C831B822A
:1019900010E08B819C81082B192BC8010E94F50156
:1019A0000E948B0D0894E108F1080F5F1F4FE114AE
:1019B000F10499F780E090E00E94E501C6987ACCA6
:1019C000C79AC69A809162008E7F80936200809150
:1019D000620082608093620028EE33E0C2010197CA
:1019E000F1F721503040D1F78091620081608093FF
:1019F0006200C798C69884E160E070E00E94A30D81
:101A000059CC3FEFF316B1F08BE261E070E00E9439
:101A1000A30D8F2D0E948B0DC7984CCC8091620036
:101A20008D7F809362000115110509F09CCC00E0C8
:101A300010E0ACCC8AE060E070E00E94A30DC79893
:101A400039CC89E23ACE00E010E0C6CE8FEF9FEFAE
:101A50003DCF81E089B91092900088E98AB9E5E923
:101A6000F0E080818660808308955D9BFECF8CB915
:101A70000895982F92959F709A3070F4905D8F70B2
:101A80008A3040F4805D5D9BFECF9CB95D9BFECFAC
:101A90008CB90895895CF7CF995CF1CFFC01808106
:101AA000882339F05D9BFECF8CB9319680818823E5
:101AB000C9F708959C01411551056105710599F01B
:101AC00080E090E0A0E0B0E0F901E80FF91FE081CC
:101AD0005D9BFECFECB90196A11DB11D8417950742
:101AE000A607B70788F308951092100210920F020C
:101AF000109215021092120208951F93182F8091D0
:101B00000A02612F0E94700E80930A02812F0E94A8
:101B1000350D1F9108950E947D0D80910D029091C9
:101B20000E02019690930E0280930D0220910B02FB
:101B300030910C028217930709F0089580910A02F0
:101B40000E94350D0895FF920F931F93F82E8B017D
:101B500010920A0286E40E947D0D8F2D0E947D0D59
:101B6000802F0E947D0D812F0E947D0D10930C020D
:101B700000930B0210920E0210920D02012B21F421
:101B800080910A020E94350D1F910F91FF900895D8
:101B90001F93182F80911202882321F0163411F020
:101BA0001F9108951092120280910F0290911002DD
:101BB000892B21F4109211021092150280911102CA
:101BC000612F0E94700E282F8093110240910F0206
:101BD000509110024130510509F43FC04130510588
:101BE000B0F4163461F081E08093120282E060E08C
:101BF00070E00E94A30D40910F02509110024F5FC0
:101C00005F4F5093100240930F021F91089542308E
:101C1000510561F143305105B1F1FA01349788E083
:101C2000E030F80708F046C080911302909114024A
:101C3000E817F907D8F18091130290911402E81780
:101C4000F907E9F6222309F042C081E080931502EA
:101C50001092100210920F02A3CF109316024F5F42
:101C60005F4F5093100240930F02CFCF812F90E02F
:101C700090931402809313024F5F5F4F50931002B2
:101C800040930F02C2CF2091130230911402912F82
:101C900080E0822B932B90931402809313024F5F6A
:101CA0005F4F5093100240930F02AFCFE95EFD4F9C
:101CB0001083A5CF1092100210920F0281E0809342
:101CC000120284E060E070E00E94A30D69CF81E021
:101CD0008093120283E060E070E00E94A30DB8CF11
:101CE0006827ECE8F0E0E60FF11DE4918E2F0895EF
:101CF000E62FF0E0E827F927F070EE0FFF1FE4571A
:101D0000FE4F25913491892F992728273927C9011A
:101D10000895EF92FF920F931F937B018C0120E0B7
:101D200030E040E05FE40E94351288238CF0C80167
:101D3000B70120E030E040E05FE40E9401100E9423
:101D400095129B01AC01205030404040504806C0E5
:101D5000C801B7010E9495129B01AC01B901CA01EB
:101D60001F910F91FF90EF900895A0E0B0E0EBEB92
:101D7000FEE00C949815DC012B01FA019C91923045
:101D800008F439C1EB018881823008F433C1943002
:101D900069F4843009F02FC111969C9111978981C3
:101DA000981709F428C1A2E0B1E025C1843009F4F4
:101DB00021C18230A9F4923009F01DC19A01AD0110
:101DC00088E0EA010990AE01E90109929E01815083
:101DD000C1F7E201898111969C918923818308C111
:101DE000923009F407C112962D903C901397EB01A5
:101DF0008A819B811496AD90BD90CD90DC90179711
:101E0000EC80FD800E811F819101281B390BB901E7
:101E100037FF04C066277727621B730B603271059A
:101E20000CF061C0121613066CF537014801062E3E
:101E300004C096948794779467940A94D2F721E02B
:101E400030E040E050E004C0220F331F441F551F14
:101E50006A95D2F721503040404050402E213F211A
:101E600040235123211531054105510521F021E081
:101E700030E040E050E079018A01E628F72808299F
:101E800019293CC0232BD1F1260E371E35014601FE
:101E9000062E04C096948794779467940A94D2F798
:101EA00021E030E040E050E004C0220F331F441F27
:101EB000551F6A95D2F721503040404050402A21AA
:101EC0003B214C215D21211531054105510521F0B2
:101ED00021E030E040E050E059016A01A628B7282F
:101EE000C828D9280BC0821593052CF01C01AA2400
:101EF000BB24650103C0EE24FF24870111969C9149
:101F0000D20111968C91981709F445C0992339F0A4
:101F1000A80197012A193B094C095D0906C0A601D1
:101F200095012E193F09400B510B57FD08C0118236
:101F30003382228224833583468357831DC081E008
:101F400081833382228288279927DC01821B930BAD
:101F5000A40BB50B84839583A683B7830DC0220F92
:101F6000331F441F551F2483358346835783828143
:101F700093810197938382832481358146815781A0
:101F8000DA01C9010197A109B1098F5F9F4FAF4FD6
:101F9000BF4328F30BC0918333822282EA0CFB1CDF
:101FA0000C1D1D1DE482F5820683178383E0808368
:101FB000248135814681578157FF1AC0C901AA275C
:101FC00097FDA095BA2F81709070A070B070569553
:101FD000479537952795822B932BA42BB52B84837C
:101FE0009583A683B78382819381019693838283AD
:101FF000DF0101C0D201CD01CDB7DEB7E2E10C9423
:10200000B415A0E2B0E0E7E0F0E10C94A415698318
:102010007A838B839C832D833E834F835887E9E0AB
:10202000EE2EF12CEC0EFD1ECE010196B7010E94A2
:1020300086148E010F5E1F4FCE010596B8010E94D7
:1020400086148A8991E089278A8BC701B801AE017D
:10205000475E5F4F0E94B50E0E94B113A096E6E066
:102060000C94C015A0E2B0E0E8E3F0E10C94A415F4
:1020700069837A838B839C832D833E834F83588728
:10208000F9E0EF2EF12CEC0EFD1ECE010196B7010A
:102090000E9486148E010F5E1F4FCE010596B80177
:1020A0000E948614C701B801AE01475E5F4F0E94CF
:1020B000B50E0E94B113A096E6E00C94C015A0E204
:1020C000B0E0E5E6F0E10C94981569837A838B83A0
:1020D0009C832D833E834F835887CE010196BE019A
:1020E000675F7F4F0E948614CE010596BE016F5E2A
:1020F0007F4F0E9486149985923088F089898230BA
:10210000C8F0943019F4823051F404C0843029F4BA
:10211000923081F482E091E0C6C0923049F420E030
:102120009A858A89981321E02A87CE010996BBC037
:10213000823049F420E09A858A89981321E02A8B1D
:10214000CE014196B0C02D843E844F8458886D885E
:102150007E888F88988CEE24FF248701AA24BB24D4
:10216000650140E050E060E070E0E0E0F0E0C101D7
:1021700081709070892BE9F0E60CF71C081D191D81
:102180009A01AB012A0D3B1D4C1D5D1D80E090E0C6
:10219000A0E0B0E0E614F7040805190520F481E09A
:1021A00090E0A0E0B0E0BA01A901480F591F6A1FF2
:1021B0007B1FAA0CBB1CCC1CDD1C97FE08C081E059
:1021C00090E0A0E0B0E0A82AB92ACA2ADB2A31961A
:1021D000E032F10549F0660C771C881C991C569476
:1021E000479437942794C3CFFA85EA892B893C8991
:1021F0008B859C85280F391F2E5F3F4F17C0CA0162
:1022000081709070892B61F016950795F794E7948B
:1022100080E090E0A0E0B0E8E82AF92A0A2B1B2B26
:1022200076956795579547952F5F3F4F77FDE7CF99
:102230000CC0440F551F661F771F17FD4160EE0C41
:10224000FF1C001F111F21503040403090E0590703
:1022500090E0690790E4790760F32B8F3C8FDB01F6
:10226000CA018F779070A070B07080349105A1057D
:10227000B10561F447FD0AC0E114F104010511053F
:1022800029F0405C5F4F6F4F7F4F40781A8EFE17EA
:1022900011F081E08A8F4D8F5E8F6F8F78A383E07E
:1022A000898FCE0149960E94B113A096E2E10C9469
:1022B000B415A8E1B0E0EFE5F1E10C94A015698355
:1022C0007A838B839C832D833E834F835887B9E029
:1022D000EB2EF12CEC0EFD1ECE010196B7010E94F3
:1022E00086148E010F5E1F4FCE010596B8010E9425
:1022F00086142985223008F47EC03989323010F4E2
:10230000B8017CC08A859A8989278A87243011F090
:10231000223031F4231709F06EC062E071E06EC024
:10232000343039F41D861E861F86188A1C861B864B
:1023300004C0323021F484E08987B7015FC02B8567
:102340003C858B899C89281B390B3C872B87ED8426
:10235000FE840F851889AD88BE88CF88D88CEA1492
:10236000FB040C051D0540F4EE0CFF1C001F111FA3
:10237000215030403C872B8720E030E040E050E0A7
:1023800080E090E0A0E0B0E460E070E0EA14FB04DC
:102390000C051D0540F0282B392B4A2B5B2BEA1826
:1023A000FB080C091D09B695A79597958795EE0C26
:1023B000FF1C001F111F6F5F7F4F6F31710531F7D9
:1023C000DA01C9018F779070A070B07080349105E8
:1023D000A105B10561F427FD0AC0E114F10401056E
:1023E000110529F0205C3F4F4F4F5F4F20782D871C
:1023F0003E874F87588BBE01675F7F4FCB010E949E
:10240000B1136896EAE00C94BC15A8E1B0E0EBE0EB
:10241000F2E10C94A41569837A838B839C832D83CA
:102420003E834F83588789E0E82EF12CEC0EFD1E89
:10243000CE010196B7010E9486148E010F5E1F4FD8
:10244000CE010596B8010E9486148985823040F03D
:102450008989823028F0C701B8010E94FE1401C0AA
:102460008FEF6896E6E00C94C015A8E1B0E0EBE3CE
:10247000F2E10C94A41569837A838B839C832D836A
:102480003E834F83588789E0E82EF12CEC0EFD1E29
:10249000CE010196B7010E9486148E010F5E1F4F78
:1024A000CE010596B8010E9486148985823040F0DD
:1024B0008989823028F0C701B8010E94FE1401C04A
:1024C0008FEF6896E6E00C94C015A8E1B0E0EBE66B
:1024D000F2E10C94A41569837A838B839C832D830A
:1024E0003E834F83588789E0E82EF12CEC0EFD1EC9
:1024F000CE010196B7010E9486148E010F5E1F4F18
:10250000CE010596B8010E9486148985823040F07C
:102510008989823028F0C701B8010E94FE1401C0E9
:1025200081E06896E6E00C94C015ACE0B0E0EBE921
:10253000F2E10C94A81569837A838B839C83CE0186
:102540000196BE016B5F7F4F0E9486148D818230A1
:1025500061F1823050F1843021F48E81882351F171
:102560002EC02F81388537FD20C06E812F31310577
:102570001CF06623F9F023C08EE190E0821B930BE0
:1025800029853A854B855C8504C0569547953795D6
:1025900027958A95D2F76623B1F0509540953095EE
:1025A00021953F4F4F4F5F4F0EC020E030E040E09D
:1025B00050E009C02FEF3FEF4FEF5FE704C020E08E
:1025C00030E040E050E8B901CA012C96E2E00C94FA
:1025D000C415A8E0B0E0EFEEF2E10C94A0157B0189
:1025E0008C01611571058105910519F482E08983DB
:1025F00060C083E089838EE1C82ED12CDC82CB823F
:10260000ED82FE820F831887C801B7010E94621312
:10261000FC013197F7FF3BC0222733272E1B3F0BCE
:1026200057016801022E04C0D694C794B794A794AA
:102630000A94D2F740E050E060E070E081E090E082
:10264000A0E0B0E004C0880F991FAA1FBB1F2A9505
:10265000D2F70197A109B1098E219F21A023B123AF
:102660000097A105B10521F041E050E060E070E085
:102670004A295B296C297D294D835E836F83788786
:102680008EE190E08E1B9F0B9C838B8312C0309752
:1026900081F00E2E04C0EE0CFF1C001F111F0A94C7
:1026A000D2F7ED82FE820F831887CE1ADF0ADC8212
:1026B000CB821A82CE0101960E94B1132896EAE0DD
:1026C0000C94BC15EF92FF920F931F937B018C012A
:1026D00080E0E81680E0F80681E0080780E018074F
:1026E00088F48FEFE816F1040105110531F028F0A8
:1026F00088E090E0A0E0B0E017C080E090E0A0E0CB
:10270000B0E012C080E0E81680E0F80680E008073C
:1027100081E0180728F088E190E0A0E0B0E004C074
:1027200080E190E0A0E0B0E020E230E040E050E066
:10273000281B390B4A0B5B0B04C016950795F794C1
:10274000E7948A95D2F7F701E65FFE4F8081281B58
:10275000310941095109C9011F910F91FF90EF9073
:102760000895DF92EF92FF920F931F93FC01E48094
:10277000F58006811781D1808081823048F480E025
:1027800090E0A0E1B0E0E82AF92A0A2B1B2BA5C0B3
:10279000843009F49FC0823021F4EE24FF248701A5
:1027A00005C0E114F1040105110519F4E0E0F0E0C1
:1027B00096C0628173819FEF623879070CF05BC02D
:1027C00022E83FEF261B370B2A3131052CF020E0A1
:1027D00030E040E050E02AC0B801A701022E04C05A
:1027E00076956795579547950A94D2F781E090E0E2
:1027F000A0E0B0E004C0880F991FAA1FBB1F2A9554
:10280000D2F70197A109B1098E219F21A023B123FD
:102810000097A105B10521F081E090E0A0E0B0E0D3
:102820009A01AB01282B392B4A2B5B2BDA01C9010A
:102830008F779070A070B07080349105A105B105BC
:1028400039F427FF09C0205C3F4F4F4F5F4F04C052
:10285000215C3F4F4F4F5F4FE0E0F0E02030A0E0C1
:102860003A07A0E04A07A0E45A0710F0E1E0F0E0E0
:1028700079018A0127C06038710564F5FB01E158D0
:10288000FF4FD801C7018F779070A070B07080346F
:102890009105A105B10539F4E7FE0DC080E490E093
:1028A000A0E0B0E004C08FE390E0A0E0B0E0E80E6C
:1028B000F91E0A1F1B1F17FF05C016950795F794F1
:1028C000E794319687E016950795F794E7948A95F3
:1028D000D1F705C0EE24FF248701EFEFF0E06E2F63
:1028E000679566276795902F9F77D794DD24D794B7
:1028F0008E2F8695492F462B582F5D29B701CA0187
:102900001F910F91FF90EF90DF900895FC01DB0184
:10291000408151812281622F6F7770E0221F222730
:10292000221F9381892F880F822B282F30E0991F37
:102930009927991F11969C93119721153105A9F597
:10294000411551056105710511F482E037C082E837
:102950009FEF13969C938E9312979A01AB0167E0B9
:10296000220F331F441F551F6A95D1F783E08C93C4
:102970000DC0220F331F441F551F12968D919C913D
:102980001397019713969C938E931297203080E0B3
:10299000380780E0480780E4580758F314962D93D1
:1029A0003D934D935C93179708952F3F310579F42C
:1029B000411551056105710519F484E08C93089562
:1029C00064FF03C081E08C9312C01C9210C02F578B
:1029D000304013963C932E93129783E08C9387E0BC
:1029E000440F551F661F771F8A95D1F770641496A0
:1029F0004D935D936D937C93179708951F93DC011E
:102A0000FB019C91923008F447C08081823008F429
:102A100043C0943051F411961C91843099F5818112
:102A2000682F70E0611B71093FC0843021F0923043
:102A300031F48230B9F18181882389F12DC011965A
:102A40001C9111978230F1F081811817D9F41296F8
:102A50002D913C911397828193818217930794F073
:102A600028173907BCF014968D919D910D90BC915B
:102A7000A02D2481358146815781281739074A07BF
:102A80005B0718F4112341F00AC082179307A407CB
:102A9000B50740F4112319F061E070E005C06FEF55
:102AA0007FEF02C060E070E0CB011F910895629F4C
:102AB000D001739FF001829FE00DF11D649FE00D36
:102AC000F11D929FF00D839FF00D749FF00D659F97
:102AD000F00D9927729FB00DE11DF91F639FB00D96
:102AE000E11DF91FBD01CF0111240895A1E21A2EA5
:102AF000AA1BBB1BFD010DC0AA1FBB1FEE1FFF1FA2
:102B0000A217B307E407F50720F0A21BB30BE40BF1
:102B1000F50B661F771F881F991F1A9469F7609538
:102B20007095809590959B01AC01BD01CF010895F2
:102B30002F923F924F925F926F927F928F929F92CD
:102B4000AF92BF92CF92DF92EF92FF920F931F93BB
:102B5000CF93DF93CDB7DEB7CA1BDB0B0FB6F8946C
:102B6000DEBF0FBECDBF09942A88398848885F84AC
:102B70006E847D848C849B84AA84B984C884DF801D
:102B8000EE80FD800C811B81AA81B981CE0FD11D01
:102B90000FB6F894DEBF0FBECDBFED010895F894D7
:022BA000FFCF65
:102BA200C0FF000000000000000000010202030359
:102BB20003030404040404040404050505050505CF
:102BC20005050505050505050505060606060606AD
:102BD2000606060606060606060606060606060693
:102BE200060606060606060606060707070707077D
:102BF2000707070707070707070707070707070763
:102C02000707070707070707070707070707070752
:102C12000707070707070707070707070707070742
:102C2200070707070707070707070808080808082C
:102C32000808080808080808080808080808080812
:102C42000808080808080808080808080808080802
:102C520008080808080808080808080808080808F2
:102C620008080808080808080808080808080808E2
:102C720008080808080808080808080808080808D2
:102C820008080808080808080808080808080808C2
:102C920008080808080808080808080808080808B2
:0A2CA20008080808080808080808D8
:00000001FF
