:100000000C9446000C9458000C9458000C94580022
:100010000C9458000C9458000C9458000C94580000
:100020000C9458000C9458000C9458000C945800F0
:100030000C9458000C9458000C9458000C945800E0
:100040000C9458000C9458000C941C090C94580003
:100050000C9458000C9458000C9458000C945800C0
:100060000C9458000C9458000C9458000C945800B0
:100070000C9458000C9458000C9458000C945800A0
:100080000C9458000C9458000C94580011241FBE76
:10009000CFEFD0E1DEBFCDBF15E0A0E0B1E001C001
:1000A0001D92AC33B107E1F70E94BD010C94EF0C37
:1000B0000C9400008BBB95BB95FD06C0809162003F
:1000C0008061809362000895809162008F7E8093AA
:1000D000620008950F931F938C018FEF82BB11BABA
:1000E00080916200806880936200C8010E945A007B
:1000F0008091620081608093620017FD0CC0809146
:10010000620082608093620082E08A95F1F780B39A
:100110001F910F910895809162008D7F80936200FE
:10012000F3CF0F931F932FEF22BB11BA02E610E01B
:10013000F8012081216020832081226020830E9499
:100140005A00F80180818F7D808382E08A95F1F7E3
:1001500080B39081906290831F910F9108950F93C7
:100160001F932FEF22BB11BA02E610E0F8012081A5
:10017000206820830E945A00F8018081816080837A
:1001800080818D7F8083C39AC49882E08A95F1F73D
:1001900080B31F910F9108950F931F938C0180914D
:1001A00062008E7F80936200809162008260809303
:1001B00062008FEF81BB809162008F778093620035
:1001C00062BBC8010E945A008091620081608093E6
:1001D000620017FD29C080916200826080936200F6
:1001E00092E0892F8A95F1F7809162008E7F80934B
:1001F00062009A95F1F780916200826080936200BC
:10020000809162008068809362008FEF82BB11BA98
:1002100080E090E00E945A008091620081608093AB
:1002200062001F910F910895809162008D7F8093ED
:100230006200D6CFFF920F931F9302E610E0F80101
:1002400020812E7F2083208122602083FF24FA9446
:10025000F1BA62BB0E945A00F80180818B7F8083D3
:1002600082E08A95F1F7808184608083F2BA11BAC6
:1002700080E090E00E945A00F801808181608083D4
:100280001F910F91FF90089590680E94CC000895EF
:10029000EF92FF920F931F93F62EC49AC39A02E631
:1002A00010E0F801208122602083208120682083D3
:1002B0000E945A00EE24EA94E1BAF2BAF801808171
:1002C0008160808380818D7F808382E0982F9A95E2
:1002D000F1F7C3988A95F1F7C39A80E090E00E9405
:1002E0005A00F801808182608083E2BA11BA1F91BE
:1002F0000F91FF90EF9008951F9382E164E070E00A
:100300000E94C709C69A80E090E00E945A0012E05D
:10031000812F8A95F1F781B18695869581700E942B
:10032000AF0980E094E00E945A00812F8A95F1F78E
:1003300081B18695869581700E94AF0980E098E032
:100340000E945A00812F8A95F1F781B18695869592
:1003500081700E94AF0980E09CE00E945A001A95CB
:10036000F1F781B18695869581700E94AF0980E092
:1003700090E00E945A001F9108953F924F925F9221
:100380006F927F928F929F92AF92BF92CF92DF92A5
:10039000EF92FF920F931F93DF93CF93CDB7DEB70A
:1003A000E0970FB6F894DEBF0FBECDBF78940E94E1
:1003B000450987B3806C87BB87EB809361001FEF93
:1003C0001093620012981A9A12BB11BA80E090E062
:1003D0000E945A001ABB14BB0E94970AC798C6987D
:1003E0000E94900980E060E070E00E94C709BAE1D5
:1003F000CB2EA5E83A2E8FB589628FBD8EB5816070
:100400008EBD21E030E040E050E0E0E060E070E0F0
:1004100080912001882309F043C08FB589628FBD88
:100420008EB581608EBD203187E2380780E04807B5
:1004300080E0580708F462C0EE2309F064C06F5FE3
:100440007F4F6E3671050CF0E1E06436710534F0D3
:100450006456704079BD68BD6C597F4FEE2309F436
:100460005CC08EE690E0861B970B853191050CF001
:1004700054C08B3091052CF024E130E0281B390B5F
:10048000C901880F991F909379008093780020E02C
:1004900030E040E050E080912001882309F4BDCF96
:1004A00010922001109279001092780080917800CB
:1004B0009091790099BD88BD88B599B58FBD80911F
:1004C00021018A3109F4FEC38B3160F58D3009F4C6
:1004D00012C68E3008F0A4C0873009F421C28830DB
:1004E00008F08EC1853009F4E7C3863009F083CF68
:1004F00081E060E070E00E94C7097DCF2F5F3F4F31
:100500004F4F5F4F85CF6150704009F09ECF20E084
:1005100030E040E050E0E0E07BCF20E030E040E041
:1005200050E076CF833209F470C38432B8F48D3151
:1005300009F45DC48E3108F01EC18B3109F4E0C2AC
:100540008C3109F058CF0E948D0A8FE161E070E094
:100550000E94C70981E00E94AF094DCF863209F49D
:100560008DC4873208F0F8C0843209F407C285329E
:1005700009F041CFC79A80E090E060EF0E9444010B
:100580008AEA9AE06AEA0E94440185E595E065E519
:100590000E9444018AEA9AE060E80E9444018AEAE3
:1005A0009AE06AEA0E94440185E595E065E50E94CB
:1005B000440180E090E060E30E94440100E010E02C
:1005C00010C02BE0083B120709F41CC680916200A2
:1005D00082608093620080ED97E00197F1F70F5FF2
:1005E0001F4F80E090E80E946A008F3F51F780E043
:1005F00090E00E945A0080916200816080936200C6
:1006000080916200826080936200C798085B1B4003
:100610000CF0F1CE8AE060E070E00E94C709EBCEFA
:10062000833109F446C5843148F48F3009F427C575
:10063000813109F0E0CE0E947C01DDCE883109F4E1
:10064000DAC4893109F0D7CE3091220120912301FB
:1006500090912401809125018A8B198A692E772433
:1006600089899A89682A792AC79A6114710409F4D8
:1006700061C02C8B1B8A832E9924EB89FC898E2ADE
:100680009F2AAA24BB248501080D191DF501EE5DE2
:10069000FE4FD48080E090E060EF0E94440185E549
:1006A00095E06AEA0E9444018AEA92E065E50E94C8
:1006B000440185E595E060EA0E944401C8016D2D82
:1006C0000E944401832D8A95F1F7E12C60E8F62E13
:1006D000E02AF12A10E0442455240BC0832D8A958A
:1006E000F1F70894411C511C28EC4216510449F1C1
:1006F000192FC7010E946A00982F809162008260C2
:1007000080936200911751F7D11641F780916200F2
:1007100082608093620080E090E00E945A00FAE0DC
:100720004F165104BCF40894A11CB11C6A147B043C
:1007300009F0A9CFC7988AE060E070E00E94C7097D
:100740005ACE8091620082608093620080E090E0E7
:100750000E945A00C7984FCE883209F44BC38832A2
:1007600008F4FCC28E3F09F046CEF89414BEE0E0D7
:10077000F8EF099540CE8E3109F4B9C0823209F004
:100780003ACEE0902201F0902301909124018091D3
:1007900025018E871D86092F10E02D853E85022BB1
:1007A000132BC69AC49AC39ABC9ABB9A88E0B80124
:1007B0000E94C70901151105A1F0F88A1F86FF24C0
:1007C0006F857889E62AF72AC7010E94AF000E9448
:1007D000AF09015010400894E11CF11C01151105EE
:1007E00099F780E090E00E945A0080916200826058
:1007F00080936200C49AC39A0E94970AC698FBCD60
:10080000893009F43FC08B3009F0F5CDE09022012A
:10081000F090230190912401809125018E8F1D8EEF
:10082000092F10E02D8D3E8D022B132BC69A8CE0E4
:10083000B8010E94C70901151105A1F0F8A21F8E89
:10084000FF246F8D78A1E62AF72AC7010E94910044
:100850000E94AF09015010400894E11CF11C0115E1
:10086000110599F780E090E00E945A0080916200A3
:100870008160809362008091620082608093620058
:10088000C698B9CD30912201209123019091240185
:10089000809125018A871986E92EFF2489859A850A
:1008A000E82AF92AC79AE114F10409F443CF2C8706
:1008B0001B86032F10E0EB85FC850E2B1F2BAA2433
:1008C000BB24F501EE5DFE4FC501800F911F6481D1
:1008D0000E94CC000894A11CB11CEA14FB0489F707
:1008E000C7988AE060E070E00E94C70984CD00915B
:1008F0002201F09023018FE161E070E00E94C709BE
:10090000C79AFEA61DA610E08DA59EA5802B912B53
:1009100064E271E00E949E0A0E94AF09C7986BCD05
:10092000E0902201F0902301909124018091250113
:100930008A831982092F10E069817A81062B172B8F
:10094000C69A88E0B8010E94C7090115110509F48B
:1009500089CFFC821B82FF248B819C81E82AF92AA3
:10096000C7010E946A000E94AF090150104008941C
:10097000E11CF11C0115110599F774CF309122018A
:100980002091230190912401809125018E8B1D8A55
:10099000A92EBB248D899E89A82AB92AC79AC49AF0
:1009A000C39ABC9ABB9A8091620082608093620075
:1009B000A114B10409F418C4288F1F8AE32FF0E0B2
:1009C0002F89388DE22BF32BF8ABEFA756E2452E9B
:1009D00051E0552E2FA538A9207E32018FA498A86A
:1009E00010E005C0C401807E2817390789F4F3019F
:1009F00080818F3F09F01F5F0894811C911C08942F
:100A0000A108B1080894611C711CA114B10451F72C
:100A1000112341F4A114B10409F4E6C398AA8FA6E6
:100A20002301D8CF8AEA9AE06AEA0E94480185E564
:100A300095E065E50E94480180E090E065E20E9453
:100A40004801612F615080E090E00E94480101C0A0
:100A50002C01F20160816F3F29F08FA598A90E94B7
:100A6000480111502FA538A92F5F3F4F38AB2FA752
:100A7000C2010196112361F780E090E069E20E94D3
:100A800048018C2D8A95F1F7DD24EE24FF2487019F
:100A90006FA578A961507040706878AB6FA712C0DD
:100AA0008C2D8A95F1F70894E11CF11C011D111D94
:100AB000F0EAEF16F6E8FF06F1E00F07F0E01F0797
:100AC000B1F0D92E8FA598A90E94AF00982F8091E0
:100AD00062008260809362009D1511F7F2018081AF
:100AE000D816F1F697CF80E090E00E945A008091EE
:100AF00062008260809362000E94970AC7987BCC54
:100B000090912201809123018AA719A6A92EBB24C6
:100B100029A53AA5A22AB32A909124018091250102
:100B20008CA71BA6892E99246BA57CA5862A972ABB
:100B3000C79AB7FC76C38114910409F45FC0EE2410
:100B4000FF2487010A0D1B1DF701EE5DFE4FD480C7
:100B500080E090E060EF0E941A0185E595E06AEA86
:100B60000E941A018AEA92E065E50E941A0185E571
:100B700095E060EA0E941A01C8016D2D0E941A01D9
:100B800010686624772407C088EC90E00197F1F79D
:100B90000894611C711CC8010E949100D816A1F034
:100BA0009AE06916710481F780E090E00E945A0093
:100BB000809162008E7F80936200809162008260EB
:100BC00080936200C79817CC80E090E00E945A00A2
:100BD000809162008E7F80936200809162008260CB
:100BE00080936200EAE06E1671040CF0B3CD0894B5
:100BF000E11CF11CE814F90409F0A3CFC7988EE0BA
:100C000060E070E00E94C709F6CBC79AC49AC39A05
:100C1000BC9ABB9A8091620082608093620080E0FF
:100C200090E060EF0E9448018AEA9AE06AEA0E9436
:100C3000480185E595E065E50E9448018AEA9AE069
:100C400060E80E9448018AEA9AE06AEA0E94480144
:100C500085E595E065E50E94480180E090E060E36D
:100C60000E94480100E010E00BC03BE0083B130786
:100C700009F439CF80ED97E00197F1F70F5F1F4F2F
:100C800080E090E80E94AF008F3F79F780E090E02D
:100C90000E945A00809162008260809362000E94EC
:100CA000970AC798085B1B400CF0A5CB8AE060E070
:100CB00070E00E94C7099FCB80E060E070E00E9476
:100CC000C70999CBC79A80E090E060EF0E941A01B3
:100CD00085E595E06AEA0E941A018AEA92E065E5F4
:100CE0000E941A0185E595E060E80E941A0185E5F9
:100CF00095E06AEA0E941A018AEA92E065E50E949C
:100D00001A0185E595E060E10E941A0100E010E01B
:100D10000BC097E20031190709F474C280ED97E027
:100D20000197F1F70F5F1F4F80E090E00E94910064
:100D30008F3F79F780E090E00E945A008091620036
:100D40008160809362008091620082608093620083
:100D5000C798005117420CF04ECB51CF9091220111
:100D6000809123018E831D82E92EFF24ED81FE8177
:100D7000EE2AFF2A909124018091250188871F8205
:100D8000092F10E02F813885022B132BC69AC7013B
:100D90000E946A000115110509F44BC220E030E001
:100DA00042E0EBBAF5BA842F8A95F1F780B390E070
:100DB0002827392780E090E00AC03695279561E022
:100DC00070EA2627372701968830910541F020FDEB
:100DD000F4CF36952795019688309105C1F70150DB
:100DE000104009F4BCC10894E11CF11CDACF0E9448
:100DF000970AABCB309122012091230190912401DD
:100E0000809125018AA319A2E92EFF2489A19AA124
:100E1000E82AF92AC69AE114F10409F407C22CA3BE
:100E20001BA2032F10E0EBA1FCA10E2B1F2BAA2469
:100E3000BB24C8010E94910090E0A826B92680E05A
:100E400090E00AC0B694A79421E030EAA226B32627
:100E500001968830910541F0A0FCF4CFB694A79498
:100E6000019688309105C1F70894E108F108E11472
:100E7000F10409F491C10F5F1F4FDBCF30912201C4
:100E80002091230190912401809125018A8F198E50
:100E9000A92EBB24698D7A8DA62AB72AC79A80917C
:100EA0006200826080936200A114B10409F490C1D1
:100EB0002C8F1B8E832F90E0EB8DFC8D8E2B9F2B28
:100EC00098AB8FA746E2442E41E0542E2FA538A9B7
:100ED000207E32018FA498A810E005C0C401807E56
:100EE0002817390789F4F30180818F3F09F01F5FCC
:100EF0000894811C911C0894A108B1080894611CF5
:100F0000711CA114B10451F7112341F4A114B104CF
:100F100009F45EC198AA8FA62301D8CF80E090E0A3
:100F200060EF0E9444018AEA9AE06AEA0E94440162
:100F300085E595E065E50E94440180E090E065E28A
:100F40000E944401612F615080E090E00E944401C2
:100F500001C02C01F20160816F3F29F08FA598A993
:100F60000E94440111502FA538A92F5F3F4F38AB85
:100F70002FA7C2010196112361F780E090E069E29A
:100F80000E9444018C2D8A95F1F7DD24EE24FF2484
:100F900087016FA578A961507040706878AB6FA722
:100FA00012C08C2D8A95F1F70894E11CF11C011DEB
:100FB000111DF0EAEF16F6E8FF06F1E00F07F0E08A
:100FC0001F0791F0D92E8FA598A90E946A00982F2B
:100FD000809162008260809362009D1511F7F2019A
:100FE0008081D816F1F692CF809162008260809362
:100FF0006200C79800CAC79A80E090E060EF0E9444
:1010000044018AEA9AE06AEA0E94440185E595E093
:1010100065E50E9444018AEA9AE060E80E94440182
:101020008AEA9AE06AEA0E94440185E595E065E56E
:101030000E9444018AEA9AE060E10E94440104C0EF
:1010400080ED97E00197F1F780E090E80E946A0058
:101050008F3FB1F780E090E00E945A0080916200DB
:101060008160809362008091620082608093620060
:10107000C7988AE060E070E00E94C709BCC980910F
:101080006200816080936200309162008091620012
:101090008E7F809362002091620080E890E02BBBFD
:1010A0003BBB0197E1F780E160E070E00E94C70977
:1010B000A2C9C79AC69A809162008E7F809362000F
:1010C0008091620082608093620028EE33E088ECB9
:1010D00090E00197F1F721503040C9F7809162000C
:1010E000816080936200C798C69884E160E070E0F8
:1010F0000E94C70980C9309122012091230190915B
:101100002401809125018EA31DA2E92EFF246DA14B
:101110007EA1E62AF72AC79AE114F104C9F028A7AC
:101120001FA2032F10E08FA198A5082B192BAA242A
:10113000BB24F501EE5DFE4FC501800F911F648158
:101140000E941A010894A11CB11CEA14FB0489F73F
:10115000C7988EE060E070E00E94C7094CC9122F6A
:10116000032F80E090E00E945A008091620081602D
:10117000809362008091620082608093620088E0C8
:1011800062E070E00E94C709812F0E94AF09802FA2
:101190000E94AF09C6982FC9850180E090E00E94A7
:1011A0005A008091620081608093620080916200A9
:1011B0008260809362008CE062E070E00E94C70968
:1011C000802F0E94AF09812F0E94AF09C69813C9D2
:1011D00080916200826080936200C7988AE060E03C
:1011E00070E00E94C70907C9809162008260809305
:1011F00062000E94970AC7988AE060E070E00E944F
:10120000C709F9C880E090E00E945A00809162000E
:1012100081608093620080916200826080936200AE
:1012200099CA80E090E8A80EB91E85CC00E010E0D5
:10123000B4CF10E000E095CF1F920F920FB60F923F
:1012400011242F933F934F935F936F937F938F93CB
:101250009F93AF93BF93EF93FF935F9B05C08CB1B8
:101260000E94EC095F99FBCFFF91EF91BF91AF9185
:101270009F918F917F916F915F914F913F912F91AE
:101280000F900FBE0F901F90189581E089B91092B2
:10129000900088E98AB9E5E9F0E080818660808382
:1012A00008955D9BFECF8CB90895982F92959F70FD
:1012B0009A3070F4905D8F708A3040F4805D5D9B51
:1012C000FECF9CB95D9BFECF8CB90895895CF7CFAA
:1012D000995CF1CFFC018081882339F05D9BFECFC2
:1012E0008CB9319680818823C9F708959C014115F6
:1012F00051056105710599F080E090E0A0E0B0E053
:10130000F901E80FF91FE0815D9BFECFECB9019672
:10131000A11DB11D84179507A607B70788F3089587
:1013200010920601109205011092200110920801FE
:101330000895582F90910001382F20E04CE801C00B
:101340003695892F8327969580FD94272F5F283027
:10135000B9F790930001852F0E94510908950E94CA
:1013600099098091030190910401019690930401E1
:1013700080930301209101013091020182179307AC
:1013800009F00895809100010E9451090895FF928B
:101390000F931F93F82E8B011092000186E40E9498
:1013A00099098F2D0E949909802F0E949909812FF8
:1013B0000E94990910930201009301011092040107
:1013C00010920301012B21F4809100010E94510928
:1013D0001F910F91FF900895782F80910801882325
:1013E00019F0763409F00895109208014091050132
:1013F000509106014115510509F440C03091070193
:10140000272F90E06CE801C02695832F8227369520
:1014100080FD36279F5F9830B9F730930701413040
:10142000510589F1423051050CF44AC04230510552
:1014300009F43FC04330510579F1FA01349784E053
:10144000EA31F80708F053C080911E0190911F0106
:10145000E817F90708F447C080911E0190911F0119
:10146000E817F90791F4332309F04EC081E0809327
:1014700020011092060110920501089510920701B3
:1014800010922001BBCF709321014F5F5F4F5093AB
:10149000060140930501089520911E0130911F011E
:1014A000972F80E0822B932B90931F0180931E0136
:1014B000ECCF872F90E090931F0180931E01E5CF22
:1014C0004115510509F0B9CF7634F9F281E08093E6
:1014D000080182E060E070E00E94C70940910501C8
:1014E00050910601D2CFEE5DFE4F7083CECF1092A9
:1014F00006011092050181E08093080184E060E01C
:1015000070E00E94C709089581E08093080183E09C
:1015100060E070E00E94C709ACCF88B3817F88BBD0
:1015200087B3866187BBBB9810920901089588B381
:10153000817E88BB87B3817E87BB08952F923F92BF
:101540004F925F926F927F928F929F92AF92BF92D3
:10155000CF92DF92EF92FF920F931F93DF93CF937F
:10156000CDB7DEB72A970FB6F894DEBF0FBECDBF5A
:101570009C838B837E836D83181619060CF079C0CB
:1015800020901C0130901D0160901A0170901B0189
:1015900020911801309119013A8329838090140118
:1015A00090901501A0901601B09017014091100184
:1015B000509111016091120170911301E0900C01A2
:1015C000F0900D0100910E0110910F0180910A0120
:1015D00090910B019A87898750900901CC24DD24D2
:1015E000ED81FE81EC0DFD1DE0819DEF591609F4A2
:1015F00043C0AEEF5A1609F4C1C0552009F06EC0C1
:101600005E2E1A8619860894C11CD11C2B813C8140
:10161000C216D3062CF330921D0120921C01709249
:101620001B0160921A0189819A819093190180931C
:1016300018018092140190921501A0921601B092A7
:1016400017014093100150931101609312017093A0
:101650001301E0920C01F0920D0100930E01109322
:101660000F01A985BA85B0930B01A0930A0150928E
:10167000090121E030E068C029853A85232B09F073
:10168000BDC08E2E9924AA24BB2440E050E060E027
:1016900070E0EE24FF248701D501C40186709070AC
:1016A000A070B0700097A105B10509F480C0843026
:1016B0009105A105B10509F42DC182309105A1055F
:1016C000B10509F427C10697A105B10509F469C060
:1016D000A985BA851196BA87A98795CF30921D0141
:1016E00020921C0170921B0160921A01A981BA819B
:1016F000B0931901A09318018092140190921501E2
:10170000A0921601B092170140931001509311015D
:101710006093120170931301E0920C01F0920D019D
:1017200000930E0110930F01E985FA85F0930B01E8
:10173000E0930A015092090188B3817E88BB87B388
:10174000817E87BB20E030E0C9012A960FB6F8946D
:10175000DEBF0FBECDBFCF91DF911F910F91FF90E4
:10176000EF90DF90CF90BF90AF909F908F907F9041
:101770006F905F904F903F902F90089529853A8504
:10178000232B09F05CC08E2F90E09A83898322245A
:1017900033246624772489859A8501969A878987D8
:1017A00032CF29853A852830310509F091CF80FE66
:1017B00095C0C29AC49AE114F1040105110571F0B3
:1017C00020E030E088B390E1892788BB88B389277F
:1017D00088BB2F5F3F4F2E153F05A1F741155105DF
:1017E0006105710549F080E090E022E02A95F1F76B
:1017F000019684179507C9F755246ACF89859A857C
:10180000049708F06DC081FC8BC08E2F90E0A0E0A3
:10181000B0E029853A852150304E220F331F220F28
:10182000331F220F331F04C0880F991FAA1FBB1F2D
:101830002A95D2F7482B592B6A2B7B2B2DCFA985C4
:10184000BA85119709F48DC02114310479F4E7FDAC
:101850000AC02E2E332429813A816216730608F4B9
:101860009ACF552498CFA1E02A2E312C8E2F90E0CC
:10187000DC01A170B070F2E04F2E4E22E2FD6AC092
:10188000EFEFFFEF2114310409F476C020E030E0DF
:101890001EC0C29A442001F1C19AC498C49A8FEF25
:1018A000EF3FF80759F086B386958695869590E0C8
:1018B00081709070E817F90709F061C00894611C05
:1018C000711C2F5F3F4F2215330508F055C010974C
:1018D00001F7C298442001F7C198DFCFC2986ACFC0
:1018E0008E2F90E0A0E0B0E029853A852550304E5B
:1018F000220F331F220F331F220F331F04C0880F04
:10190000991FAA1FBB1F2A95D2F7482B592B6A2B68
:101910007B2BC2CEE985FA85349709F0D4CE47CF28
:101920008E2F90E0A0E0B0E029853A852150304E1E
:10193000220F331F220F331F220F331F04C0880FC3
:10194000991FAA1FBB1F2A95D2F7E82AF92A0A2B4A
:101950001B2BA2CEE695E695E695F0E0E170F070DF
:1019600091CFE8871F82E981FA812F813885E22BA8
:10197000F32BFA83E9830FCF222433246CCF3092E8
:101980001D0120921C0170921B0160921A01A98115
:10199000BA81B0931901A09318018092140190921A
:1019A0001501A0921601B0921701409310015093B7
:1019B00011016093120170931301E0920C01F092F7
:1019C0000D0100930E0110930F01E985FA85F09344
:1019D0000B01E0930A018EEF80930901ADCEF894DC
:0219E000FFCF37
:00000001FF
