:100000000C9446000C9458000C9458000C94580022
:100010000C9458000C9458000C9458000C94580000
:100020000C9458000C9458000C9458000C945800F0
:100030000C9458000C9458000C9458000C945800E0
:100040000C9458000C9458000C946D010C945800BA
:100050000C9458000C9458000C9458000C945800C0
:100060000C9458000C9458000C9458000C945800B0
:100070000C9458000C9458000C9458000C945800A0
:100080000C9458000C9458000C94580011241FBE76
:10009000CFEFD0E1DEBFCDBF29E0A0E0B1E001C0ED
:1000A0001D92A531B207E1F70E9414030C945E087B
:1000B0000C9400008BBB95BB95FD06C0809162003F
:1000C0008061809362000895809162008F7E8093AA
:1000D00062000895CF93DF93C2E6D0E028812E7F9F
:1000E00028832881226028832FEF22BB11BA0E9427
:1000F0005A0088818F7D888382E08A95F1F700C05D
:1001000080B3988190629883988191609883DF9101
:10011000CF910895CF93DF93C2E6D0E028812E7F60
:1001200028832881226028832FEF22BB11BA2881DF
:10013000206828830E945A00888181608883888192
:100140008D7F8883C39AC49882E08A95F1F700C0B6
:1001500080B3988192609883C49ADF91CF9108957B
:100160001F93CF93DF93162FBC9ABB9AC49AC39A5E
:10017000C2E6D0E028812260288328812068288375
:100180000E945A009FEF91BB12BB888181608883D7
:1001900088818D7F888382E08A95F1F700C0C398BB
:1001A00082E08A95F1F700C0C39A1BBA15BA88811C
:1001B0008061888388818260888392BB11BADF91D5
:1001C000CF911F910895CF93DF93EC01809162004E
:1001D0008E7F8093620080916200826080936200D3
:1001E0008FEF81BB809162008F778093620062BB4A
:1001F000CE010E945A0082E08A95F1F700C08091FA
:10020000620081608093620080916200D7FD2CC003
:1002100082608093620082E08A95F1F700C080914D
:1002200062008E7F80936200809162008260809382
:10023000620082E08A95F1F700C0809162008068D8
:10024000809362008FEF82BB11BA1BBA15BA8091FE
:10025000620080618093620080916200816080937F
:100260006200DF91CF9108958D7F80936200D3CF9C
:10027000CF93DF93EC01809162008E7F80936200C8
:10028000809162008260809362008FEF82BB11BA1E
:1002900080916200806880936200CE010E945A00C3
:1002A0008091620081608093620080916200D7FD3E
:1002B00010C082608093620082E08A95F1F700C0EE
:1002C00080B390916200926090936200DF91CF9131
:1002D00008958D7F80936200EFCF1F920F920FB62B
:1002E0000F9211242F933F934F935F936F937F93BC
:1002F0008F939F93AF93BF93EF93FF935F9B05C043
:100300008CB10E9478025F99FBCFFF91EF91BF9172
:10031000AF919F918F917F916F915F914F913F919D
:100320002F910F900FBE0F901F901895CF93DF93D2
:1003300064E070E082E10E943902C69A1BBA15BAE5
:10034000C2E6D0E088818061888382E08A95F1F7F7
:1003500000C081B182FB882780F90E9461021BBA2C
:1003600084E085BB88818061888382E08A95F1F78B
:1003700000C081B182FB882780F90E9461021BBA0C
:1003800088E085BB88818061888382E08A95F1F767
:1003900000C081B182FB882780F90E9461021BBAEC
:1003A0008CE085BB88818061888382E08A95F1F743
:1003B00000C081B182FB882780F90E9461021BBACC
:1003C00015BA888180618883DF91CF91089581E09B
:1003D00089B91092900088E98AB9E5E9F0E0808156
:1003E0008660808308955D9BFECF8CB90895982F19
:1003F00092959F709A3070F4905D8F708A3040F4BF
:10040000805D5D9BFECF9CB95D9BFECF8CB908954E
:10041000895CF7CF995CF1CFFC019081992339F089
:1004200031965D9BFECF9CB991919111FACF0895C1
:10043000411551056105710551F0FC01480F591F27
:1004400081915D9BFECF8CB9E417F507C9F708953C
:1004500090910801382F28E05CE8492F43279695B2
:1004600040FD952736952150C1F7909308010C94D3
:10047000F3011F93CF93DF93182FEB011092080124
:1004800086E40E942802812F0E9428028C2F0E945D
:1004900028028D2F0E942802D0930701C0930601E5
:1004A0001092050110920401CD2B21F0DF91CF9124
:1004B0001F91089580910801DF91CF911F910C94B5
:1004C000F3010E9428028091040190910501019698
:1004D000909305018093040120910601309107015A
:1004E0008217930709F00895809108010C94F30195
:1004F00090910001992319F0863409F00895109223
:10050000000160910201709103016115710559F1BB
:1005100090910101382F28E05CE8432F49279695F8
:1005200040FD952736952150C1F790930101613028
:10053000710509F447C0DCF062307105E9F1633000
:10054000710539F52091090130910A01A901582B53
:1005500050930A01409309016F5F7F4F709303012D
:1005600060930201089510920B0190E0D3CF6115C2
:10057000710579F4863481F381E08093000160E0B5
:1005800070E082E00E9439026091020170910301E3
:10059000E3CF9B0124503109283058E0350738F566
:1005A0004091090150910A012417350770F4F901AF
:1005B000E35FFE4F8083D0CF90E090930A01809359
:1005C0000901CACF80930C01C7CF40910901509116
:1005D0000A012417350709F0BFCF81E0911113C03C
:1005E00080930B0110920301109202010895109262
:1005F00003011092020181E08093000160E070E04D
:1006000084E00C9439028093000160E070E083E0A4
:100610000E943902E7CF109203011092020110925A
:100620000B01109200010895CF93DF9300D000D00A
:10063000CDB7DEB778940E94E70187B3806C87BBA3
:1006400087EB809361008FEF8093620012981A9A73
:1006500082BB11BA1BBA15BA909162009061909357
:1006600062008ABB84BBBC98C498C798C6980E9495
:100670000B0360E070E080E00E94390277247394FD
:10068000BEE6AB2EB12C14E1212E312C66246A94E7
:100690008FB589628FBD21E02EBD20E030E0E0E023
:1006A00041E050E060E070E080910B01811135C0C5
:1006B0008FB589628FBD7EBC403187E258076105E6
:1006C000710508F451C0E11154C0C90101968E367C
:1006D00091050CF456C0E1E09C012456310939BD66
:1006E00028BD9C01C501821B930B853191050CF03F
:1006F0005AC08B30910524F0A101481B590BCA0147
:10070000880F991F909379008093780040E050E023
:10071000BA0180910B01882359F210920B011092BB
:1007200079001092780019BC18BC1FBC55E05EBD62
:1007300080910C01833109F4B9C2C8F1853209F402
:10074000D7C208F457C0873209F436C408F42AC364
:10075000883209F4DDC38E3F09F09ACFF89414BEB5
:10076000E0E0F8EF099594CF4F5F5F4F6F4F7F4FF9
:100770009BCF2150310989F4E0E040E050E0BA011C
:1007800093CF8436910524F02356310939BD28BD15
:100790009C0140E050E0BA0187CF243631050CF4CB
:1007A000A1CFC90199CF40E050E0BA017DCF893097
:1007B00009F4F6C008F064C0863009F452C18730ED
:1007C00009F41BC1853009F063CF65E070E080E07B
:1007D0000E94390282E00E94610280E00E94610270
:1007E00088E00E94610280E00E94610288E00E942D
:1007F00061024ECF833209F40DC208F038C1823253
:1008000009F046CF00910D0180910E0110E0182BE8
:1008100030910F01398380911001432F50E0582B04
:100820005C834B83C69AC49AC39ABC9ABB9A6B8169
:100830007C8188E00E9439028B819C81892B71F038
:10084000C8010E948A000E946102EB81FC813197FD
:10085000FC83EB830F5F1F4FEF2B91F71BBA15BA89
:10086000809162008061809362008091620082606A
:1008700080936200C49AC39ABC98C498C69808CF63
:100880008D30C9F18131A1F18B3009F001CF009198
:100890000D0180910E0110E0182BF0910F01F983EA
:1008A000809110012F2F30E0382B3C832B83C69A88
:1008B0006B817C818CE00E9439024B815C81452BED
:1008C00071F0C8010E946A000E9461028B819C81C4
:1008D00001979C838B830F5F1F4F892B91F71BBA66
:1008E00015BA80916200806180936200C698D0CE74
:1008F0000E949601CDCEE0900D0180910E01F12C69
:10090000F82A30910F01398380911001432F50E074
:10091000582B5C834B83C79A452BD9F101E111E039
:10092000F80191918F01809162008E7F8093620027
:100930008091620082608093620061BA92BBC701BD
:100940000E945A00809162008B7F80936200F2E0E7
:10095000FA95F1F700C08091620084608093620094
:1009600062BA11BA1BBA15BA809162008061809395
:100970006200809162008160809362002FEFE21A32
:10098000F20A4B815C81415051095C834B83452BBA
:1009900039F6C79860E070E08EE00E94390278CEA8
:1009A000E0900D0180910E01F12CF82A20910F01A9
:1009B000298380911001422F50E0582B5C834B8398
:1009C000C79A452B99F001E111E0F80161918F017F
:1009D000C7010E94E300FFEFEF1AFF0A2B813C8161
:1009E000215031093C832B83232B79F7C79860E092
:1009F00070E08AE00E9439024BCE00910D01809197
:100A00000E0110E0182B80910F0189838091100155
:100A1000F981EF2FF0E0F82BFC83EB83C69A6B8112
:100A20007C8188E00E9439022B813C81232B09F4D0
:100A300056CFC8010E9438010E9461024B815C813F
:100A4000415051095C834B830F5F1F4F452B89F742
:100A50001BBA15BA80916200806180936200C698CB
:100A600017CE60E070E081E00E94390211CE209143
:100A70000D01298380910E01422F50E0582B5C8399
:100A80004B8300910F018091100110E0182BC79A41
:100A90000115110509F4B0C061E1862E61E0962EC2
:100AA0002B813C81207C6401EB80FC80512C06C0B2
:100AB000C701807C2817390709F04AC0F6018191E7
:100AC0006F018F3F09F05394FFEFEF1AFF0A0150B7
:100AD000110971F7552009F48FC060EF80E090E0B4
:100AE0000E94B0006AEA8AEA9AE00E94B00065E5D6
:100AF00085E595E00E94B00065E280E090E00E940C
:100B0000B0005A94652D80E090E00E94B000F4019E
:100B100060816F3F99F08B819C810E94B000F4014D
:100B200041904F018B819C8101965520B9F09C83A7
:100B30008B835A94F40160816F3F69F72B813C816C
:100B40002F5F3F4F3C832B833FEF831A930ADFCF06
:100B50005110C3CF4601FC82EB82A2CF69E280E054
:100B600090E00E94B0001DBC1CBC2B813C81306811
:100B70003C832B838CB59DB584389E4108F043C0DF
:100B80008B819C810E948A00882E8B819C810E948F
:100B90008A00982E8B819C810E948A00582E882D75
:100BA000892586FF18C0892D852586FF14C081FC04
:100BB00074C285FEDFCF63E070E08AE20E943902F2
:100BC000882D0E946102892D0E946102852D0E945C
:100BD0006102C7985DCD8B819C810E948A00982E0E
:100BE0008B819C810E948A009812C4CF4910C2CF89
:100BF0000115110509F0AECF60E070E08AE00E94B7
:100C00003902C79845CD60E070E08AE20E9439025F
:100C1000C7983ECDC79A60EF80E090E00E94B00098
:100C20006AEA8AEA9AE00E94B00065E585E595E007
:100C30000E94B00060E88AEA9AE00E94B0006AEA86
:100C40008AEA9AE00E94B00065E585E595E00E9499
:100C5000B00060E380E090E00E94B0001DBC1CBCCE
:100C60008CB59DB58D389B45D0F480E090E80E940E
:100C70008A0089838CB59DB58D389B4580F480E0D2
:100C800090E80E948A008A8359815827547409F495
:100C9000F6C189838CB59DB58D389B4580F360E0A6
:100CA00070E08CE20E943902C798F2CCC79AC69ACB
:100CB000809162008E7F80936200809162008260EA
:100CC00080936200FFEF20E732E0F1502040304097
:100CD000E1F700C0000080916200816080936200B3
:100CE000C798C69860E070E084E10E943902D0CCD9
:100CF000C79A60EF80E090E80E94E3006AEA8AEA1F
:100D00009AE80E94E30065E585E595E80E94E30026
:100D100060E88AEA9AE80E94E3006AEA8AEA9AE8C6
:100D20000E94E30065E585E595E80E94E30060E345
:100D300080E090E80E94E3001DBC1CBC8CB59DB512
:100D40008D389B4508F0ABCF80E090E80E943801D9
:100D500089838CB59DB58D389B4508F0A0CF80E088
:100D600090E80E9438015981851771F089838CB50C
:100D70009DB58D389B4508F092CF80E090E80E94A9
:100D8000380159818513F2CFF981FF3F09F434CF3F
:100D900061E070E08BE20E94390289810E94610269
:100DA000C79876CC40900D0180910E01512C582AA5
:100DB00020910F01298380911001422F50E0582B80
:100DC0005C834B83C79A452B09F49BC051E1852E68
:100DD00051E0952E9201207C64018201F12C06C025
:100DE000C801807C2817390709F050C0F6018191AD
:100DF0006F018F3F09F0F3940F5F1F4F4B815C81B0
:100E0000415051095C834B83452B51F7FF2009F476
:100E100078C060EF80E090E80E94E3006AEA8AEA26
:100E20009AE80E94E30065E585E595E80E94E30005
:100E300065E280E090E80E94E300FA94F9826F2D69
:100E400080E090E80E94E300F40160816F3FB9F018
:100E500072016894F7F8C7010E94E300F401219140
:100E60004F012A833FEF431A530A4981442399F0E3
:100E7000598151505983F40160816F3F49F74FEF19
:100E8000441A540A5FEF851A950ADECFF110C1CFDC
:100E9000460128019FCF69E280E090E80E94E300CC
:100EA0001DBC1CBC8CB59DB584389E4108F0ABCEF2
:100EB000C7010E943801882EC7010E943801982E70
:100EC000C7010E943801582E882D892586FF09C048
:100ED000892D852586FF05C081FCDFC085FEE2CF18
:100EE0006ACEC7010E943801982EC7010E943801BE
:100EF0009812D8CF8A818911D5CFEB81FC81EF2B55
:100F000039F660E070E08AE00E943902C798C0CBF1
:100F1000E0900D0180910E01F12CF82A00910F0153
:100F20008091100110E0182BC69A0115110509F4E3
:100F3000C2C01C821B82C7010E946A00EB81FC8137
:100F4000E827FC83EB8388E090E00CC02B813C8198
:100F50003695279541E0242740EA34273C832B83AC
:100F6000019759F0FB81F0FDF1CFEB81FC81F69503
:100F7000E795FC83EB830197A9F701501109FFEF77
:100F8000EF1AFF0A01151105B1F61B812C81298387
:100F90001BBA15BA8091620080618093620062E0A2
:100FA00070E08CE00E943902812F0E9461028981E9
:100FB0000E946102C6986CCB40910D0180910E0198
:100FC00050E0582B60910F018091100170E0782B58
:100FD000C69A62BA11BA80916200806880936200FA
:100FE000809162008160809362008091620057FD71
:100FF00058C08260809362006115710509F458C081
:1010000080E090E04BBB55BBE2E0EA95F1F700C011
:1010100020B3822728E030E009C096958795F1E05B
:101020008F27F0EA9F272150310939F080FDF5CF55
:101030009695879521503109C9F7615071094F5F25
:101040005F4F61157105F1F68A8399838091620083
:101050008260809362001BBA15BA80916200806141
:101060008093620062E070E088E00E9439028A8129
:101070000E94610289810E946102C69809CBFA81AF
:10108000FF3F09F4B9CD61E070E08BE20E943902C4
:101090008A810E946102C798FBCA63E070E089E21E
:1010A0008DCD8D7F809362006115710509F0A8CF09
:1010B00019821A82CBCF198210E06ACFF894FFCF41
:00000001FF
